{
  "contractName": "Art",
  "abi": [
    {
      "inputs": [],
      "stateMutability": "nonpayable",
      "type": "constructor"
    },
    {
      "anonymous": false,
      "inputs": [
        {
          "indexed": true,
          "internalType": "address",
          "name": "owner",
          "type": "address"
        },
        {
          "indexed": true,
          "internalType": "address",
          "name": "approved",
          "type": "address"
        },
        {
          "indexed": true,
          "internalType": "uint256",
          "name": "tokenId",
          "type": "uint256"
        }
      ],
      "name": "Approval",
      "type": "event"
    },
    {
      "anonymous": false,
      "inputs": [
        {
          "indexed": true,
          "internalType": "address",
          "name": "owner",
          "type": "address"
        },
        {
          "indexed": true,
          "internalType": "address",
          "name": "operator",
          "type": "address"
        },
        {
          "indexed": false,
          "internalType": "bool",
          "name": "approved",
          "type": "bool"
        }
      ],
      "name": "ApprovalForAll",
      "type": "event"
    },
    {
      "anonymous": false,
      "inputs": [
        {
          "indexed": true,
          "internalType": "address",
          "name": "previousOwner",
          "type": "address"
        },
        {
          "indexed": true,
          "internalType": "address",
          "name": "newOwner",
          "type": "address"
        }
      ],
      "name": "OwnershipTransferred",
      "type": "event"
    },
    {
      "anonymous": false,
      "inputs": [
        {
          "indexed": true,
          "internalType": "address",
          "name": "from",
          "type": "address"
        },
        {
          "indexed": true,
          "internalType": "address",
          "name": "to",
          "type": "address"
        },
        {
          "indexed": true,
          "internalType": "uint256",
          "name": "tokenId",
          "type": "uint256"
        }
      ],
      "name": "Transfer",
      "type": "event"
    },
    {
      "inputs": [
        {
          "internalType": "address",
          "name": "to",
          "type": "address"
        },
        {
          "internalType": "uint256",
          "name": "tokenId",
          "type": "uint256"
        }
      ],
      "name": "approve",
      "outputs": [],
      "stateMutability": "nonpayable",
      "type": "function"
    },
    {
      "inputs": [
        {
          "internalType": "address",
          "name": "owner",
          "type": "address"
        }
      ],
      "name": "balanceOf",
      "outputs": [
        {
          "internalType": "uint256",
          "name": "",
          "type": "uint256"
        }
      ],
      "stateMutability": "view",
      "type": "function"
    },
    {
      "inputs": [
        {
          "internalType": "string",
          "name": "",
          "type": "string"
        }
      ],
      "name": "existed",
      "outputs": [
        {
          "internalType": "bool",
          "name": "",
          "type": "bool"
        }
      ],
      "stateMutability": "view",
      "type": "function"
    },
    {
      "inputs": [
        {
          "internalType": "uint256",
          "name": "tokenId",
          "type": "uint256"
        }
      ],
      "name": "getApproved",
      "outputs": [
        {
          "internalType": "address",
          "name": "",
          "type": "address"
        }
      ],
      "stateMutability": "view",
      "type": "function"
    },
    {
      "inputs": [
        {
          "internalType": "address",
          "name": "owner",
          "type": "address"
        },
        {
          "internalType": "address",
          "name": "operator",
          "type": "address"
        }
      ],
      "name": "isApprovedForAll",
      "outputs": [
        {
          "internalType": "bool",
          "name": "",
          "type": "bool"
        }
      ],
      "stateMutability": "view",
      "type": "function"
    },
    {
      "inputs": [],
      "name": "name",
      "outputs": [
        {
          "internalType": "string",
          "name": "",
          "type": "string"
        }
      ],
      "stateMutability": "view",
      "type": "function"
    },
    {
      "inputs": [],
      "name": "owner",
      "outputs": [
        {
          "internalType": "address",
          "name": "",
          "type": "address"
        }
      ],
      "stateMutability": "view",
      "type": "function"
    },
    {
      "inputs": [
        {
          "internalType": "uint256",
          "name": "tokenId",
          "type": "uint256"
        }
      ],
      "name": "ownerOf",
      "outputs": [
        {
          "internalType": "address",
          "name": "",
          "type": "address"
        }
      ],
      "stateMutability": "view",
      "type": "function"
    },
    {
      "inputs": [
        {
          "internalType": "address",
          "name": "",
          "type": "address"
        },
        {
          "internalType": "uint256",
          "name": "",
          "type": "uint256"
        }
      ],
      "name": "ownerToTokenId",
      "outputs": [
        {
          "internalType": "uint256",
          "name": "",
          "type": "uint256"
        }
      ],
      "stateMutability": "view",
      "type": "function"
    },
    {
      "inputs": [],
      "name": "renounceOwnership",
      "outputs": [],
      "stateMutability": "nonpayable",
      "type": "function"
    },
    {
      "inputs": [
        {
          "internalType": "address",
          "name": "from",
          "type": "address"
        },
        {
          "internalType": "address",
          "name": "to",
          "type": "address"
        },
        {
          "internalType": "uint256",
          "name": "tokenId",
          "type": "uint256"
        }
      ],
      "name": "safeTransferFrom",
      "outputs": [],
      "stateMutability": "nonpayable",
      "type": "function"
    },
    {
      "inputs": [
        {
          "internalType": "address",
          "name": "from",
          "type": "address"
        },
        {
          "internalType": "address",
          "name": "to",
          "type": "address"
        },
        {
          "internalType": "uint256",
          "name": "tokenId",
          "type": "uint256"
        },
        {
          "internalType": "bytes",
          "name": "_data",
          "type": "bytes"
        }
      ],
      "name": "safeTransferFrom",
      "outputs": [],
      "stateMutability": "nonpayable",
      "type": "function"
    },
    {
      "inputs": [
        {
          "internalType": "address",
          "name": "operator",
          "type": "address"
        },
        {
          "internalType": "bool",
          "name": "approved",
          "type": "bool"
        }
      ],
      "name": "setApprovalForAll",
      "outputs": [],
      "stateMutability": "nonpayable",
      "type": "function"
    },
    {
      "inputs": [
        {
          "internalType": "bytes4",
          "name": "interfaceId",
          "type": "bytes4"
        }
      ],
      "name": "supportsInterface",
      "outputs": [
        {
          "internalType": "bool",
          "name": "",
          "type": "bool"
        }
      ],
      "stateMutability": "view",
      "type": "function"
    },
    {
      "inputs": [],
      "name": "symbol",
      "outputs": [
        {
          "internalType": "string",
          "name": "",
          "type": "string"
        }
      ],
      "stateMutability": "view",
      "type": "function"
    },
    {
      "inputs": [
        {
          "internalType": "uint256",
          "name": "tokenId",
          "type": "uint256"
        }
      ],
      "name": "tokenURI",
      "outputs": [
        {
          "internalType": "string",
          "name": "",
          "type": "string"
        }
      ],
      "stateMutability": "view",
      "type": "function"
    },
    {
      "inputs": [],
      "name": "totalSuply",
      "outputs": [
        {
          "internalType": "uint256",
          "name": "",
          "type": "uint256"
        }
      ],
      "stateMutability": "view",
      "type": "function"
    },
    {
      "inputs": [
        {
          "internalType": "address",
          "name": "from",
          "type": "address"
        },
        {
          "internalType": "address",
          "name": "to",
          "type": "address"
        },
        {
          "internalType": "uint256",
          "name": "tokenId",
          "type": "uint256"
        }
      ],
      "name": "transferFrom",
      "outputs": [],
      "stateMutability": "nonpayable",
      "type": "function"
    },
    {
      "inputs": [
        {
          "internalType": "address",
          "name": "newOwner",
          "type": "address"
        }
      ],
      "name": "transferOwnership",
      "outputs": [],
      "stateMutability": "nonpayable",
      "type": "function"
    },
    {
      "inputs": [
        {
          "internalType": "address",
          "name": "_to",
          "type": "address"
        },
        {
          "internalType": "string",
          "name": "_hash",
          "type": "string"
        }
      ],
      "name": "createNewNFT",
      "outputs": [],
      "stateMutability": "nonpayable",
      "type": "function"
    }
  ],
  "bytecode": "0x60806040523480156200001157600080fd5b506040518060400160405280600581526020017f4d794e46540000000000000000000000000000000000000000000000000000008152506040518060400160405280600281526020017f4d4e000000000000000000000000000000000000000000000000000000000000815250816000908051906020019062000096929190620001a6565b508060019080519060200190620000af929190620001a6565b505050620000d2620000c6620000d860201b60201c565b620000e060201b60201c565b620002bb565b600033905090565b6000600760009054906101000a900473ffffffffffffffffffffffffffffffffffffffff16905081600760006101000a81548173ffffffffffffffffffffffffffffffffffffffff021916908373ffffffffffffffffffffffffffffffffffffffff1602179055508173ffffffffffffffffffffffffffffffffffffffff168173ffffffffffffffffffffffffffffffffffffffff167f8be0079c531659141344cd1fd0a4f28419497f9722a3daafe3b4186f6b6457e060405160405180910390a35050565b828054620001b49062000256565b90600052602060002090601f016020900481019282620001d8576000855562000224565b82601f10620001f357805160ff191683800117855562000224565b8280016001018555821562000224579182015b828111156200022357825182559160200191906001019062000206565b5b50905062000233919062000237565b5090565b5b808211156200025257600081600090555060010162000238565b5090565b600060028204905060018216806200026f57607f821691505b602082108114156200028657620002856200028c565b5b50919050565b7f4e487b7100000000000000000000000000000000000000000000000000000000600052602260045260246000fd5b61310880620002cb6000396000f3fe608060405234801561001057600080fd5b506004361061012c5760003560e01c80638da5cb5b116100ad578063c7bde51e11610071578063c7bde51e1461031b578063c87b56dd1461034b578063e985e9c51461037b578063f2fde38b146103ab578063f31dfbee146103c75761012c565b80638da5cb5b1461028957806395d89b41146102a7578063a22cb465146102c5578063a2a96799146102e1578063b88d4fde146102ff5761012c565b806342842e0e116100f457806342842e0e146101e75780636352211e1461020357806370a0823114610233578063715018a6146102635780637cf87f9d1461026d5761012c565b806301ffc9a71461013157806306fdde0314610161578063081812fc1461017f578063095ea7b3146101af57806323b872dd146101cb575b600080fd5b61014b600480360381019061014691906120fe565b6103f7565b6040516101589190612a00565b60405180910390f35b6101696104d9565b6040516101769190612a1b565b60405180910390f35b61019960048036038101906101949190612191565b61056b565b6040516101a69190612999565b60405180910390f35b6101c960048036038101906101c491906120c2565b6105f0565b005b6101e560048036038101906101e09190611f68565b610708565b005b61020160048036038101906101fc9190611f68565b610768565b005b61021d60048036038101906102189190612191565b610788565b60405161022a9190612999565b60405180910390f35b61024d60048036038101906102489190611f03565b61083a565b60405161025a9190612c9d565b60405180910390f35b61026b6108f2565b005b6102876004803603810190610282919061206e565b61097a565b005b610291610aca565b60405161029e9190612999565b60405180910390f35b6102af610af4565b6040516102bc9190612a1b565b60405180910390f35b6102df60048036038101906102da9190612032565b610b86565b005b6102e9610d07565b6040516102f69190612c9d565b60405180910390f35b61031960048036038101906103149190611fb7565b610d0d565b005b610335600480360381019061033091906120c2565b610d6f565b6040516103429190612c9d565b60405180910390f35b61036560048036038101906103609190612191565b610da0565b6040516103729190612a1b565b60405180910390f35b61039560048036038101906103909190611f2c565b610ef2565b6040516103a29190612a00565b60405180910390f35b6103c560048036038101906103c09190611f03565b610f86565b005b6103e160048036038101906103dc9190612150565b61107e565b6040516103ee9190612a00565b60405180910390f35b60007f80ac58cd000000000000000000000000000000000000000000000000000000007bffffffffffffffffffffffffffffffffffffffffffffffffffffffff1916827bffffffffffffffffffffffffffffffffffffffffffffffffffffffff191614806104c257507f5b5e139f000000000000000000000000000000000000000000000000000000007bffffffffffffffffffffffffffffffffffffffffffffffffffffffff1916827bffffffffffffffffffffffffffffffffffffffffffffffffffffffff1916145b806104d257506104d1826110b4565b5b9050919050565b6060600080546104e890612efd565b80601f016020809104026020016040519081016040528092919081815260200182805461051490612efd565b80156105615780601f1061053657610100808354040283529160200191610561565b820191906000526020600020905b81548152906001019060200180831161054457829003601f168201915b5050505050905090565b60006105768261111e565b6105b5576040517f08c379a00000000000000000000000000000000000000000000000000000000081526004016105ac90612bdd565b60405180910390fd5b6004600083815260200190815260200160002060009054906101000a900473ffffffffffffffffffffffffffffffffffffffff169050919050565b60006105fb82610788565b90508073ffffffffffffffffffffffffffffffffffffffff168373ffffffffffffffffffffffffffffffffffffffff16141561066c576040517f08c379a000000000000000000000000000000000000000000000000000000000815260040161066390612c5d565b60405180910390fd5b8073ffffffffffffffffffffffffffffffffffffffff1661068b61118a565b73ffffffffffffffffffffffffffffffffffffffff1614806106ba57506106b9816106b461118a565b610ef2565b5b6106f9576040517f08c379a00000000000000000000000000000000000000000000000000000000081526004016106f090612b1d565b60405180910390fd5b6107038383611192565b505050565b61071961071361118a565b8261124b565b610758576040517f08c379a000000000000000000000000000000000000000000000000000000000815260040161074f90612c7d565b60405180910390fd5b610763838383611329565b505050565b61078383838360405180602001604052806000815250610d0d565b505050565b6000806002600084815260200190815260200160002060009054906101000a900473ffffffffffffffffffffffffffffffffffffffff169050600073ffffffffffffffffffffffffffffffffffffffff168173ffffffffffffffffffffffffffffffffffffffff161415610831576040517f08c379a000000000000000000000000000000000000000000000000000000000815260040161082890612b5d565b60405180910390fd5b80915050919050565b60008073ffffffffffffffffffffffffffffffffffffffff168273ffffffffffffffffffffffffffffffffffffffff1614156108ab576040517f08c379a00000000000000000000000000000000000000000000000000000000081526004016108a290612b3d565b60405180910390fd5b600360008373ffffffffffffffffffffffffffffffffffffffff1673ffffffffffffffffffffffffffffffffffffffff168152602001908152602001600020549050919050565b6108fa61118a565b73ffffffffffffffffffffffffffffffffffffffff16610918610aca565b73ffffffffffffffffffffffffffffffffffffffff161461096e576040517f08c379a000000000000000000000000000000000000000000000000000000000815260040161096590612bfd565b60405180910390fd5b6109786000611585565b565b61098261118a565b73ffffffffffffffffffffffffffffffffffffffff166109a0610aca565b73ffffffffffffffffffffffffffffffffffffffff16146109f6576040517f08c379a00000000000000000000000000000000000000000000000000000000081526004016109ed90612bfd565b60405180910390fd5b600a81604051610a06919061295e565b908152602001604051809103902060009054906101000a900460ff1615610a62576040517f08c379a0000000000000000000000000000000000000000000000000000000008152600401610a5990612a3d565b60405180910390fd5b610a6c600961164b565b6000610a786009611661565b90506001600a83604051610a8c919061295e565b908152602001604051809103902060006101000a81548160ff021916908315150217905550610abb838261166f565b610ac5818361183d565b505050565b6000600760009054906101000a900473ffffffffffffffffffffffffffffffffffffffff16905090565b606060018054610b0390612efd565b80601f0160208091040260200160405190810160405280929190818152602001828054610b2f90612efd565b8015610b7c5780601f10610b5157610100808354040283529160200191610b7c565b820191906000526020600020905b815481529060010190602001808311610b5f57829003601f168201915b5050505050905090565b610b8e61118a565b73ffffffffffffffffffffffffffffffffffffffff168273ffffffffffffffffffffffffffffffffffffffff161415610bfc576040517f08c379a0000000000000000000000000000000000000000000000000000000008152600401610bf390612add565b60405180910390fd5b8060056000610c0961118a565b73ffffffffffffffffffffffffffffffffffffffff1673ffffffffffffffffffffffffffffffffffffffff16815260200190815260200160002060008473ffffffffffffffffffffffffffffffffffffffff1673ffffffffffffffffffffffffffffffffffffffff16815260200190815260200160002060006101000a81548160ff0219169083151502179055508173ffffffffffffffffffffffffffffffffffffffff16610cb661118a565b73ffffffffffffffffffffffffffffffffffffffff167f17307eab39ab6107e8899845ad3d59bd9653f200f220920489ca2b5937696c3183604051610cfb9190612a00565b60405180910390a35050565b60085481565b610d1e610d1861118a565b8361124b565b610d5d576040517f08c379a0000000000000000000000000000000000000000000000000000000008152600401610d5490612c7d565b60405180910390fd5b610d69848484846118b1565b50505050565b600b6020528160005260406000208181548110610d8b57600080fd5b90600052602060002001600091509150505481565b6060610dab8261111e565b610dea576040517f08c379a0000000000000000000000000000000000000000000000000000000008152600401610de190612bbd565b60405180910390fd5b6000600660008481526020019081526020016000208054610e0a90612efd565b80601f0160208091040260200160405190810160405280929190818152602001828054610e3690612efd565b8015610e835780601f10610e5857610100808354040283529160200191610e83565b820191906000526020600020905b815481529060010190602001808311610e6657829003601f168201915b505050505090506000610e9461190d565b9050600081511415610eaa578192505050610eed565b600082511115610edf578082604051602001610ec7929190612975565b60405160208183030381529060405292505050610eed565b610ee884611924565b925050505b919050565b6000600560008473ffffffffffffffffffffffffffffffffffffffff1673ffffffffffffffffffffffffffffffffffffffff16815260200190815260200160002060008373ffffffffffffffffffffffffffffffffffffffff1673ffffffffffffffffffffffffffffffffffffffff16815260200190815260200160002060009054906101000a900460ff16905092915050565b610f8e61118a565b73ffffffffffffffffffffffffffffffffffffffff16610fac610aca565b73ffffffffffffffffffffffffffffffffffffffff1614611002576040517f08c379a0000000000000000000000000000000000000000000000000000000008152600401610ff990612bfd565b60405180910390fd5b600073ffffffffffffffffffffffffffffffffffffffff168173ffffffffffffffffffffffffffffffffffffffff161415611072576040517f08c379a000000000000000000000000000000000000000000000000000000000815260040161106990612a7d565b60405180910390fd5b61107b81611585565b50565b600a818051602081018201805184825260208301602085012081835280955050505050506000915054906101000a900460ff1681565b60007f01ffc9a7000000000000000000000000000000000000000000000000000000007bffffffffffffffffffffffffffffffffffffffffffffffffffffffff1916827bffffffffffffffffffffffffffffffffffffffffffffffffffffffff1916149050919050565b60008073ffffffffffffffffffffffffffffffffffffffff166002600084815260200190815260200160002060009054906101000a900473ffffffffffffffffffffffffffffffffffffffff1673ffffffffffffffffffffffffffffffffffffffff1614159050919050565b600033905090565b816004600083815260200190815260200160002060006101000a81548173ffffffffffffffffffffffffffffffffffffffff021916908373ffffffffffffffffffffffffffffffffffffffff160217905550808273ffffffffffffffffffffffffffffffffffffffff1661120583610788565b73ffffffffffffffffffffffffffffffffffffffff167f8c5be1e5ebec7d5bd14f71427d1e84f3dd0314c0f7b2291e5b200ac8c7c3b92560405160405180910390a45050565b60006112568261111e565b611295576040517f08c379a000000000000000000000000000000000000000000000000000000000815260040161128c90612afd565b60405180910390fd5b60006112a083610788565b90508073ffffffffffffffffffffffffffffffffffffffff168473ffffffffffffffffffffffffffffffffffffffff16148061130f57508373ffffffffffffffffffffffffffffffffffffffff166112f78461056b565b73ffffffffffffffffffffffffffffffffffffffff16145b80611320575061131f8185610ef2565b5b91505092915050565b8273ffffffffffffffffffffffffffffffffffffffff1661134982610788565b73ffffffffffffffffffffffffffffffffffffffff161461139f576040517f08c379a000000000000000000000000000000000000000000000000000000000815260040161139690612c1d565b60405180910390fd5b600073ffffffffffffffffffffffffffffffffffffffff168273ffffffffffffffffffffffffffffffffffffffff16141561140f576040517f08c379a000000000000000000000000000000000000000000000000000000000815260040161140690612abd565b60405180910390fd5b61141a8383836119cb565b611425600082611192565b6001600360008573ffffffffffffffffffffffffffffffffffffffff1673ffffffffffffffffffffffffffffffffffffffff16815260200190815260200160002060008282546114759190612e13565b925050819055506001600360008473ffffffffffffffffffffffffffffffffffffffff1673ffffffffffffffffffffffffffffffffffffffff16815260200190815260200160002060008282546114cc9190612d8c565b92505081905550816002600083815260200190815260200160002060006101000a81548173ffffffffffffffffffffffffffffffffffffffff021916908373ffffffffffffffffffffffffffffffffffffffff160217905550808273ffffffffffffffffffffffffffffffffffffffff168473ffffffffffffffffffffffffffffffffffffffff167fddf252ad1be2c89b69c2b068fc378daa952ba7f163c4a11628f55a4df523b3ef60405160405180910390a4505050565b6000600760009054906101000a900473ffffffffffffffffffffffffffffffffffffffff16905081600760006101000a81548173ffffffffffffffffffffffffffffffffffffffff021916908373ffffffffffffffffffffffffffffffffffffffff1602179055508173ffffffffffffffffffffffffffffffffffffffff168173ffffffffffffffffffffffffffffffffffffffff167f8be0079c531659141344cd1fd0a4f28419497f9722a3daafe3b4186f6b6457e060405160405180910390a35050565b6001816000016000828254019250508190555050565b600081600001549050919050565b600073ffffffffffffffffffffffffffffffffffffffff168273ffffffffffffffffffffffffffffffffffffffff1614156116df576040517f08c379a00000000000000000000000000000000000000000000000000000000081526004016116d690612b9d565b60405180910390fd5b6116e88161111e565b15611728576040517f08c379a000000000000000000000000000000000000000000000000000000000815260040161171f90612a9d565b60405180910390fd5b611734600083836119cb565b6001600360008473ffffffffffffffffffffffffffffffffffffffff1673ffffffffffffffffffffffffffffffffffffffff16815260200190815260200160002060008282546117849190612d8c565b92505081905550816002600083815260200190815260200160002060006101000a81548173ffffffffffffffffffffffffffffffffffffffff021916908373ffffffffffffffffffffffffffffffffffffffff160217905550808273ffffffffffffffffffffffffffffffffffffffff16600073ffffffffffffffffffffffffffffffffffffffff167fddf252ad1be2c89b69c2b068fc378daa952ba7f163c4a11628f55a4df523b3ef60405160405180910390a45050565b6118468261111e565b611885576040517f08c379a000000000000000000000000000000000000000000000000000000000815260040161187c90612b7d565b60405180910390fd5b806006600084815260200190815260200160002090805190602001906118ac929190611d27565b505050565b6118bc848484611329565b6118c8848484846119d0565b611907576040517f08c379a00000000000000000000000000000000000000000000000000000000081526004016118fe90612a5d565b60405180910390fd5b50505050565b606060405180602001604052806000815250905090565b606061192f8261111e565b61196e576040517f08c379a000000000000000000000000000000000000000000000000000000000815260040161196590612c3d565b60405180910390fd5b600061197861190d565b9050600081511161199857604051806020016040528060008152506119c3565b806119a284611b67565b6040516020016119b3929190612975565b6040516020818303038152906040525b915050919050565b505050565b60006119f18473ffffffffffffffffffffffffffffffffffffffff16611d14565b15611b5a578373ffffffffffffffffffffffffffffffffffffffff1663150b7a02611a1a61118a565b8786866040518563ffffffff1660e01b8152600401611a3c94939291906129b4565b602060405180830381600087803b158015611a5657600080fd5b505af1925050508015611a8757506040513d601f19601f82011682018060405250810190611a849190612127565b60015b611b0a573d8060008114611ab7576040519150601f19603f3d011682016040523d82523d6000602084013e611abc565b606091505b50600081511415611b02576040517f08c379a0000000000000000000000000000000000000000000000000000000008152600401611af990612a5d565b60405180910390fd5b805181602001fd5b63150b7a0260e01b7bffffffffffffffffffffffffffffffffffffffffffffffffffffffff1916817bffffffffffffffffffffffffffffffffffffffffffffffffffffffff191614915050611b5f565b600190505b949350505050565b60606000821415611baf576040518060400160405280600181526020017f30000000000000000000000000000000000000000000000000000000000000008152509050611d0f565b600082905060005b60008214611be1578080611bca90612f2f565b915050600a82611bda9190612de2565b9150611bb7565b60008167ffffffffffffffff811115611c23577f4e487b7100000000000000000000000000000000000000000000000000000000600052604160045260246000fd5b6040519080825280601f01601f191660200182016040528015611c555781602001600182028036833780820191505090505b5090505b60008514611d0857600182611c6e9190612e13565b9150600a85611c7d9190612f78565b6030611c899190612d8c565b60f81b818381518110611cc5577f4e487b7100000000000000000000000000000000000000000000000000000000600052603260045260246000fd5b60200101907effffffffffffffffffffffffffffffffffffffffffffffffffffffffffffff1916908160001a905350600a85611d019190612de2565b9450611c59565b8093505050505b919050565b600080823b905060008111915050919050565b828054611d3390612efd565b90600052602060002090601f016020900481019282611d555760008555611d9c565b82601f10611d6e57805160ff1916838001178555611d9c565b82800160010185558215611d9c579182015b82811115611d9b578251825591602001919060010190611d80565b5b509050611da99190611dad565b5090565b5b80821115611dc6576000816000905550600101611dae565b5090565b6000611ddd611dd884612ce9565b612cb8565b905082815260208101848484011115611df557600080fd5b611e00848285612ebb565b509392505050565b6000611e1b611e1684612d19565b612cb8565b905082815260208101848484011115611e3357600080fd5b611e3e848285612ebb565b509392505050565b600081359050611e5581613076565b92915050565b600081359050611e6a8161308d565b92915050565b600081359050611e7f816130a4565b92915050565b600081519050611e94816130a4565b92915050565b600082601f830112611eab57600080fd5b8135611ebb848260208601611dca565b91505092915050565b600082601f830112611ed557600080fd5b8135611ee5848260208601611e08565b91505092915050565b600081359050611efd816130bb565b92915050565b600060208284031215611f1557600080fd5b6000611f2384828501611e46565b91505092915050565b60008060408385031215611f3f57600080fd5b6000611f4d85828601611e46565b9250506020611f5e85828601611e46565b9150509250929050565b600080600060608486031215611f7d57600080fd5b6000611f8b86828701611e46565b9350506020611f9c86828701611e46565b9250506040611fad86828701611eee565b9150509250925092565b60008060008060808587031215611fcd57600080fd5b6000611fdb87828801611e46565b9450506020611fec87828801611e46565b9350506040611ffd87828801611eee565b925050606085013567ffffffffffffffff81111561201a57600080fd5b61202687828801611e9a565b91505092959194509250565b6000806040838503121561204557600080fd5b600061205385828601611e46565b925050602061206485828601611e5b565b9150509250929050565b6000806040838503121561208157600080fd5b600061208f85828601611e46565b925050602083013567ffffffffffffffff8111156120ac57600080fd5b6120b885828601611ec4565b9150509250929050565b600080604083850312156120d557600080fd5b60006120e385828601611e46565b92505060206120f485828601611eee565b9150509250929050565b60006020828403121561211057600080fd5b600061211e84828501611e70565b91505092915050565b60006020828403121561213957600080fd5b600061214784828501611e85565b91505092915050565b60006020828403121561216257600080fd5b600082013567ffffffffffffffff81111561217c57600080fd5b61218884828501611ec4565b91505092915050565b6000602082840312156121a357600080fd5b60006121b184828501611eee565b91505092915050565b6121c381612e47565b82525050565b6121d281612e59565b82525050565b60006121e382612d49565b6121ed8185612d5f565b93506121fd818560208601612eca565b61220681613065565b840191505092915050565b600061221c82612d54565b6122268185612d70565b9350612236818560208601612eca565b61223f81613065565b840191505092915050565b600061225582612d54565b61225f8185612d81565b935061226f818560208601612eca565b80840191505092915050565b6000612288601383612d70565b91507f4172743a204e46542069732065786973746564000000000000000000000000006000830152602082019050919050565b60006122c8603283612d70565b91507f4552433732313a207472616e7366657220746f206e6f6e20455243373231526560008301527f63656976657220696d706c656d656e74657200000000000000000000000000006020830152604082019050919050565b600061232e602683612d70565b91507f4f776e61626c653a206e6577206f776e657220697320746865207a65726f206160008301527f64647265737300000000000000000000000000000000000000000000000000006020830152604082019050919050565b6000612394601c83612d70565b91507f4552433732313a20746f6b656e20616c7265616479206d696e746564000000006000830152602082019050919050565b60006123d4602483612d70565b91507f4552433732313a207472616e7366657220746f20746865207a65726f2061646460008301527f72657373000000000000000000000000000000000000000000000000000000006020830152604082019050919050565b600061243a601983612d70565b91507f4552433732313a20617070726f766520746f2063616c6c6572000000000000006000830152602082019050919050565b600061247a602c83612d70565b91507f4552433732313a206f70657261746f7220717565727920666f72206e6f6e657860008301527f697374656e7420746f6b656e00000000000000000000000000000000000000006020830152604082019050919050565b60006124e0603883612d70565b91507f4552433732313a20617070726f76652063616c6c6572206973206e6f74206f7760008301527f6e6572206e6f7220617070726f76656420666f7220616c6c00000000000000006020830152604082019050919050565b6000612546602a83612d70565b91507f4552433732313a2062616c616e636520717565727920666f7220746865207a6560008301527f726f2061646472657373000000000000000000000000000000000000000000006020830152604082019050919050565b60006125ac602983612d70565b91507f4552433732313a206f776e657220717565727920666f72206e6f6e657869737460008301527f656e7420746f6b656e00000000000000000000000000000000000000000000006020830152604082019050919050565b6000612612602e83612d70565b91507f45524337323155524953746f726167653a2055524920736574206f66206e6f6e60008301527f6578697374656e7420746f6b656e0000000000000000000000000000000000006020830152604082019050919050565b6000612678602083612d70565b91507f4552433732313a206d696e7420746f20746865207a65726f20616464726573736000830152602082019050919050565b60006126b8603183612d70565b91507f45524337323155524953746f726167653a2055524920717565727920666f722060008301527f6e6f6e6578697374656e7420746f6b656e0000000000000000000000000000006020830152604082019050919050565b600061271e602c83612d70565b91507f4552433732313a20617070726f76656420717565727920666f72206e6f6e657860008301527f697374656e7420746f6b656e00000000000000000000000000000000000000006020830152604082019050919050565b6000612784602083612d70565b91507f4f776e61626c653a2063616c6c6572206973206e6f7420746865206f776e65726000830152602082019050919050565b60006127c4602983612d70565b91507f4552433732313a207472616e73666572206f6620746f6b656e2074686174206960008301527f73206e6f74206f776e00000000000000000000000000000000000000000000006020830152604082019050919050565b600061282a602f83612d70565b91507f4552433732314d657461646174613a2055524920717565727920666f72206e6f60008301527f6e6578697374656e7420746f6b656e00000000000000000000000000000000006020830152604082019050919050565b6000612890602183612d70565b91507f4552433732313a20617070726f76616c20746f2063757272656e74206f776e6560008301527f72000000000000000000000000000000000000000000000000000000000000006020830152604082019050919050565b60006128f6603183612d70565b91507f4552433732313a207472616e736665722063616c6c6572206973206e6f74206f60008301527f776e6572206e6f7220617070726f7665640000000000000000000000000000006020830152604082019050919050565b61295881612eb1565b82525050565b600061296a828461224a565b915081905092915050565b6000612981828561224a565b915061298d828461224a565b91508190509392505050565b60006020820190506129ae60008301846121ba565b92915050565b60006080820190506129c960008301876121ba565b6129d660208301866121ba565b6129e3604083018561294f565b81810360608301526129f581846121d8565b905095945050505050565b6000602082019050612a1560008301846121c9565b92915050565b60006020820190508181036000830152612a358184612211565b905092915050565b60006020820190508181036000830152612a568161227b565b9050919050565b60006020820190508181036000830152612a76816122bb565b9050919050565b60006020820190508181036000830152612a9681612321565b9050919050565b60006020820190508181036000830152612ab681612387565b9050919050565b60006020820190508181036000830152612ad6816123c7565b9050919050565b60006020820190508181036000830152612af68161242d565b9050919050565b60006020820190508181036000830152612b168161246d565b9050919050565b60006020820190508181036000830152612b36816124d3565b9050919050565b60006020820190508181036000830152612b5681612539565b9050919050565b60006020820190508181036000830152612b768161259f565b9050919050565b60006020820190508181036000830152612b9681612605565b9050919050565b60006020820190508181036000830152612bb68161266b565b9050919050565b60006020820190508181036000830152612bd6816126ab565b9050919050565b60006020820190508181036000830152612bf681612711565b9050919050565b60006020820190508181036000830152612c1681612777565b9050919050565b60006020820190508181036000830152612c36816127b7565b9050919050565b60006020820190508181036000830152612c568161281d565b9050919050565b60006020820190508181036000830152612c7681612883565b9050919050565b60006020820190508181036000830152612c96816128e9565b9050919050565b6000602082019050612cb2600083018461294f565b92915050565b6000604051905081810181811067ffffffffffffffff82111715612cdf57612cde613036565b5b8060405250919050565b600067ffffffffffffffff821115612d0457612d03613036565b5b601f19601f8301169050602081019050919050565b600067ffffffffffffffff821115612d3457612d33613036565b5b601f19601f8301169050602081019050919050565b600081519050919050565b600081519050919050565b600082825260208201905092915050565b600082825260208201905092915050565b600081905092915050565b6000612d9782612eb1565b9150612da283612eb1565b9250827fffffffffffffffffffffffffffffffffffffffffffffffffffffffffffffffff03821115612dd757612dd6612fa9565b5b828201905092915050565b6000612ded82612eb1565b9150612df883612eb1565b925082612e0857612e07612fd8565b5b828204905092915050565b6000612e1e82612eb1565b9150612e2983612eb1565b925082821015612e3c57612e3b612fa9565b5b828203905092915050565b6000612e5282612e91565b9050919050565b60008115159050919050565b60007fffffffff0000000000000000000000000000000000000000000000000000000082169050919050565b600073ffffffffffffffffffffffffffffffffffffffff82169050919050565b6000819050919050565b82818337600083830152505050565b60005b83811015612ee8578082015181840152602081019050612ecd565b83811115612ef7576000848401525b50505050565b60006002820490506001821680612f1557607f821691505b60208210811415612f2957612f28613007565b5b50919050565b6000612f3a82612eb1565b91507fffffffffffffffffffffffffffffffffffffffffffffffffffffffffffffffff821415612f6d57612f6c612fa9565b5b600182019050919050565b6000612f8382612eb1565b9150612f8e83612eb1565b925082612f9e57612f9d612fd8565b5b828206905092915050565b7f4e487b7100000000000000000000000000000000000000000000000000000000600052601160045260246000fd5b7f4e487b7100000000000000000000000000000000000000000000000000000000600052601260045260246000fd5b7f4e487b7100000000000000000000000000000000000000000000000000000000600052602260045260246000fd5b7f4e487b7100000000000000000000000000000000000000000000000000000000600052604160045260246000fd5b6000601f19601f8301169050919050565b61307f81612e47565b811461308a57600080fd5b50565b61309681612e59565b81146130a157600080fd5b50565b6130ad81612e65565b81146130b857600080fd5b50565b6130c481612eb1565b81146130cf57600080fd5b5056fea2646970667358221220d7fc99c1859c16f31307c465efa36314f0c367743234184e20037d25937659ef64736f6c63430008000033",
  "immutableReferences": {},
  "source": "// SPDX-License-Identifier: UNLICENSED\r\npragma solidity ^0.8.0;\r\n\r\nimport \"@openzeppelin/contracts/utils/Address.sol\";\r\nimport \"@openzeppelin/contracts/token/ERC721/extensions/ERC721URIStorage.sol\";\r\nimport \"@openzeppelin/contracts/access/Ownable.sol\";\r\nimport \"@openzeppelin/contracts/utils/Counters.sol\";\r\n\r\ncontract Art is ERC721URIStorage, Ownable {\r\n    using Counters for Counters.Counter;\r\n\r\n    uint256 public totalSuply;\r\n    Counters.Counter private _tokenIds;\r\n\r\n    mapping(string => bool) public existed;\r\n    mapping(address => uint256[]) public ownerToTokenId;\r\n\r\n    constructor() ERC721(\"MyNFT\", \"MN\") {}\r\n\r\n    function createNewNFT(address _to, string memory _hash) public onlyOwner {\r\n        require(!existed[_hash], \"Art: NFT is existed\");\r\n\r\n        _tokenIds.increment();\r\n        uint256 newItemId = _tokenIds.current();\r\n\r\n        existed[_hash] = true;\r\n        _mint(_to, newItemId);\r\n        _setTokenURI(newItemId, _hash);\r\n    }\r\n}\r\n",
  "sourcePath": "E:\\MNM\\UIT-SE301.M11-BidDapp\\contracts\\Art.sol",
  "compiler": {
    "name": "solc",
    "version": "0.8.0+commit.c7dfd78e.Emscripten.clang"
  },
  "schemaVersion": "3.4.3",
  "updatedAt": "2021-10-24T06:04:53.006Z",
  "devdoc": {
    "kind": "dev",
    "methods": {
      "approve(address,uint256)": {
        "details": "See {IERC721-approve}."
      },
      "balanceOf(address)": {
        "details": "See {IERC721-balanceOf}."
      },
      "getApproved(uint256)": {
        "details": "See {IERC721-getApproved}."
      },
      "isApprovedForAll(address,address)": {
        "details": "See {IERC721-isApprovedForAll}."
      },
      "name()": {
        "details": "See {IERC721Metadata-name}."
      },
      "owner()": {
        "details": "Returns the address of the current owner."
      },
      "ownerOf(uint256)": {
        "details": "See {IERC721-ownerOf}."
      },
      "renounceOwnership()": {
        "details": "Leaves the contract without owner. It will not be possible to call `onlyOwner` functions anymore. Can only be called by the current owner. NOTE: Renouncing ownership will leave the contract without an owner, thereby removing any functionality that is only available to the owner."
      },
      "safeTransferFrom(address,address,uint256)": {
        "details": "See {IERC721-safeTransferFrom}."
      },
      "safeTransferFrom(address,address,uint256,bytes)": {
        "details": "See {IERC721-safeTransferFrom}."
      },
      "setApprovalForAll(address,bool)": {
        "details": "See {IERC721-setApprovalForAll}."
      },
      "supportsInterface(bytes4)": {
        "details": "See {IERC165-supportsInterface}."
      },
      "symbol()": {
        "details": "See {IERC721Metadata-symbol}."
      },
      "tokenURI(uint256)": {
        "details": "See {IERC721Metadata-tokenURI}."
      },
      "transferFrom(address,address,uint256)": {
        "details": "See {IERC721-transferFrom}."
      },
      "transferOwnership(address)": {
        "details": "Transfers ownership of the contract to a new account (`newOwner`). Can only be called by the current owner."
      }
    },
    "version": 1
  },
  "userdoc": {
    "kind": "user",
    "methods": {},
    "version": 1
  }
}