{
  "contractName": "MarketPlace",
  "abi": [
    {
      "inputs": [],
      "stateMutability": "nonpayable",
      "type": "constructor"
    },
    {
      "anonymous": false,
      "inputs": [
        {
          "indexed": true,
          "internalType": "uint256",
          "name": "_tokenId",
          "type": "uint256"
        },
        {
          "indexed": true,
          "internalType": "address",
          "name": "_oldOwner",
          "type": "address"
        },
        {
          "indexed": true,
          "internalType": "address",
          "name": "_newOwner",
          "type": "address"
        },
        {
          "indexed": false,
          "internalType": "uint256",
          "name": "_index",
          "type": "uint256"
        }
      ],
      "name": "ApproveOffer",
      "type": "event"
    },
    {
      "anonymous": false,
      "inputs": [
        {
          "indexed": true,
          "internalType": "uint256",
          "name": "_tokenId",
          "type": "uint256"
        },
        {
          "indexed": false,
          "internalType": "uint256",
          "name": "_amount",
          "type": "uint256"
        },
        {
          "indexed": false,
          "internalType": "address",
          "name": "_token20",
          "type": "address"
        },
        {
          "indexed": true,
          "internalType": "address",
          "name": "_bargainer",
          "type": "address"
        },
        {
          "indexed": false,
          "internalType": "uint256",
          "name": "_timeout",
          "type": "uint256"
        }
      ],
      "name": "NewOffer",
      "type": "event"
    },
    {
      "anonymous": false,
      "inputs": [
        {
          "indexed": true,
          "internalType": "address",
          "name": "previousOwner",
          "type": "address"
        },
        {
          "indexed": true,
          "internalType": "address",
          "name": "newOwner",
          "type": "address"
        }
      ],
      "name": "OwnershipTransferred",
      "type": "event"
    },
    {
      "anonymous": false,
      "inputs": [
        {
          "indexed": true,
          "internalType": "uint256",
          "name": "_tokenId",
          "type": "uint256"
        },
        {
          "indexed": true,
          "internalType": "address",
          "name": "_oldOwner",
          "type": "address"
        },
        {
          "indexed": true,
          "internalType": "address",
          "name": "_newOwner",
          "type": "address"
        }
      ],
      "name": "Transfer",
      "type": "event"
    },
    {
      "inputs": [],
      "name": "owner",
      "outputs": [
        {
          "internalType": "address",
          "name": "",
          "type": "address"
        }
      ],
      "stateMutability": "view",
      "type": "function",
      "constant": true
    },
    {
      "inputs": [],
      "name": "renounceOwnership",
      "outputs": [],
      "stateMutability": "nonpayable",
      "type": "function"
    },
    {
      "inputs": [
        {
          "internalType": "uint256",
          "name": "",
          "type": "uint256"
        }
      ],
      "name": "sellers",
      "outputs": [
        {
          "internalType": "address",
          "name": "",
          "type": "address"
        }
      ],
      "stateMutability": "view",
      "type": "function",
      "constant": true
    },
    {
      "inputs": [
        {
          "internalType": "uint256",
          "name": "",
          "type": "uint256"
        },
        {
          "internalType": "uint256",
          "name": "",
          "type": "uint256"
        }
      ],
      "name": "tokenIdToOffer",
      "outputs": [
        {
          "internalType": "uint256",
          "name": "tokenId",
          "type": "uint256"
        },
        {
          "internalType": "uint256",
          "name": "amount",
          "type": "uint256"
        },
        {
          "internalType": "address",
          "name": "token20",
          "type": "address"
        },
        {
          "internalType": "address",
          "name": "bargainer",
          "type": "address"
        },
        {
          "internalType": "bool",
          "name": "accepted",
          "type": "bool"
        },
        {
          "internalType": "uint256",
          "name": "timeout",
          "type": "uint256"
        }
      ],
      "stateMutability": "view",
      "type": "function",
      "constant": true
    },
    {
      "inputs": [
        {
          "internalType": "uint256",
          "name": "",
          "type": "uint256"
        }
      ],
      "name": "tokenIdToProduct",
      "outputs": [
        {
          "internalType": "uint256",
          "name": "tokenId",
          "type": "uint256"
        },
        {
          "internalType": "uint256",
          "name": "price",
          "type": "uint256"
        },
        {
          "internalType": "bool",
          "name": "listing",
          "type": "bool"
        },
        {
          "internalType": "bool",
          "name": "selling",
          "type": "bool"
        },
        {
          "internalType": "address",
          "name": "creator",
          "type": "address"
        },
        {
          "internalType": "uint256",
          "name": "rate",
          "type": "uint256"
        },
        {
          "internalType": "uint256",
          "name": "timestamp",
          "type": "uint256"
        }
      ],
      "stateMutability": "view",
      "type": "function",
      "constant": true
    },
    {
      "inputs": [
        {
          "internalType": "address",
          "name": "newOwner",
          "type": "address"
        }
      ],
      "name": "transferOwnership",
      "outputs": [],
      "stateMutability": "nonpayable",
      "type": "function"
    },
    {
      "inputs": [
        {
          "internalType": "address",
          "name": "",
          "type": "address"
        },
        {
          "internalType": "uint256",
          "name": "",
          "type": "uint256"
        }
      ],
      "name": "userToProduct",
      "outputs": [
        {
          "internalType": "uint256",
          "name": "tokenId",
          "type": "uint256"
        },
        {
          "internalType": "uint256",
          "name": "price",
          "type": "uint256"
        },
        {
          "internalType": "bool",
          "name": "listing",
          "type": "bool"
        },
        {
          "internalType": "bool",
          "name": "selling",
          "type": "bool"
        },
        {
          "internalType": "address",
          "name": "creator",
          "type": "address"
        },
        {
          "internalType": "uint256",
          "name": "rate",
          "type": "uint256"
        },
        {
          "internalType": "uint256",
          "name": "timestamp",
          "type": "uint256"
        }
      ],
      "stateMutability": "view",
      "type": "function",
      "constant": true
    },
    {
      "inputs": [
        {
          "internalType": "string",
          "name": "_hash",
          "type": "string"
        },
        {
          "internalType": "uint256",
          "name": "_price",
          "type": "uint256"
        }
      ],
      "name": "createNewProduct",
      "outputs": [],
      "stateMutability": "nonpayable",
      "type": "function"
    },
    {
      "inputs": [
        {
          "internalType": "uint256",
          "name": "_tokenId",
          "type": "uint256"
        }
      ],
      "name": "setListOrNot",
      "outputs": [],
      "stateMutability": "nonpayable",
      "type": "function"
    },
    {
      "inputs": [
        {
          "internalType": "uint256",
          "name": "_tokenId",
          "type": "uint256"
        }
      ],
      "name": "setSellOrNot",
      "outputs": [],
      "stateMutability": "nonpayable",
      "type": "function"
    },
    {
      "inputs": [
        {
          "internalType": "uint256",
          "name": "_tokenId",
          "type": "uint256"
        },
        {
          "internalType": "uint256",
          "name": "_price",
          "type": "uint256"
        }
      ],
      "name": "setPrice",
      "outputs": [],
      "stateMutability": "nonpayable",
      "type": "function"
    },
    {
      "inputs": [
        {
          "internalType": "address",
          "name": "_user",
          "type": "address"
        }
      ],
      "name": "getProductListCreated",
      "outputs": [
        {
          "components": [
            {
              "internalType": "uint256",
              "name": "tokenId",
              "type": "uint256"
            },
            {
              "internalType": "uint256",
              "name": "price",
              "type": "uint256"
            },
            {
              "internalType": "bool",
              "name": "listing",
              "type": "bool"
            },
            {
              "internalType": "bool",
              "name": "selling",
              "type": "bool"
            },
            {
              "internalType": "address",
              "name": "creator",
              "type": "address"
            },
            {
              "internalType": "uint256",
              "name": "rate",
              "type": "uint256"
            },
            {
              "internalType": "uint256",
              "name": "timestamp",
              "type": "uint256"
            }
          ],
          "internalType": "struct MarketPlace.Product[]",
          "name": "",
          "type": "tuple[]"
        }
      ],
      "stateMutability": "view",
      "type": "function",
      "constant": true
    },
    {
      "inputs": [
        {
          "internalType": "uint256",
          "name": "_tokenId",
          "type": "uint256"
        }
      ],
      "name": "buy",
      "outputs": [],
      "stateMutability": "payable",
      "type": "function",
      "payable": true
    },
    {
      "inputs": [
        {
          "internalType": "address",
          "name": "_owner",
          "type": "address"
        }
      ],
      "name": "getProducListOwnable",
      "outputs": [
        {
          "components": [
            {
              "internalType": "uint256",
              "name": "tokenId",
              "type": "uint256"
            },
            {
              "internalType": "uint256",
              "name": "price",
              "type": "uint256"
            },
            {
              "internalType": "bool",
              "name": "listing",
              "type": "bool"
            },
            {
              "internalType": "bool",
              "name": "selling",
              "type": "bool"
            },
            {
              "internalType": "address",
              "name": "creator",
              "type": "address"
            },
            {
              "internalType": "uint256",
              "name": "rate",
              "type": "uint256"
            },
            {
              "internalType": "uint256",
              "name": "timestamp",
              "type": "uint256"
            }
          ],
          "internalType": "struct MarketPlace.Product[]",
          "name": "",
          "type": "tuple[]"
        }
      ],
      "stateMutability": "view",
      "type": "function",
      "constant": true
    },
    {
      "inputs": [
        {
          "internalType": "uint256",
          "name": "_tokenId",
          "type": "uint256"
        },
        {
          "internalType": "uint256",
          "name": "_amount",
          "type": "uint256"
        },
        {
          "internalType": "address",
          "name": "_token20",
          "type": "address"
        },
        {
          "internalType": "uint256",
          "name": "_timeout",
          "type": "uint256"
        }
      ],
      "name": "offer",
      "outputs": [],
      "stateMutability": "nonpayable",
      "type": "function"
    },
    {
      "inputs": [
        {
          "internalType": "uint256",
          "name": "_tokenId",
          "type": "uint256"
        },
        {
          "internalType": "uint256",
          "name": "_index",
          "type": "uint256"
        }
      ],
      "name": "getOffer",
      "outputs": [
        {
          "components": [
            {
              "internalType": "uint256",
              "name": "tokenId",
              "type": "uint256"
            },
            {
              "internalType": "uint256",
              "name": "amount",
              "type": "uint256"
            },
            {
              "internalType": "address",
              "name": "token20",
              "type": "address"
            },
            {
              "internalType": "address",
              "name": "bargainer",
              "type": "address"
            },
            {
              "internalType": "bool",
              "name": "accepted",
              "type": "bool"
            },
            {
              "internalType": "uint256",
              "name": "timeout",
              "type": "uint256"
            }
          ],
          "internalType": "struct MarketPlace.Offer",
          "name": "",
          "type": "tuple"
        }
      ],
      "stateMutability": "view",
      "type": "function",
      "constant": true
    },
    {
      "inputs": [
        {
          "internalType": "uint256",
          "name": "_tokenId",
          "type": "uint256"
        },
        {
          "internalType": "uint256",
          "name": "_index",
          "type": "uint256"
        }
      ],
      "name": "approveOffer",
      "outputs": [],
      "stateMutability": "nonpayable",
      "type": "function"
    }
  ],
  "bytecode": "0x60806040523480156200001157600080fd5b506200003262000026620000a460201b60201c565b620000ac60201b60201c565b604051620000409062000170565b604051809103906000f0801580156200005d573d6000803e3d6000fd5b50600160006101000a81548173ffffffffffffffffffffffffffffffffffffffff021916908373ffffffffffffffffffffffffffffffffffffffff1602179055506200017e565b600033905090565b60008060009054906101000a900473ffffffffffffffffffffffffffffffffffffffff169050816000806101000a81548173ffffffffffffffffffffffffffffffffffffffff021916908373ffffffffffffffffffffffffffffffffffffffff1602179055508173ffffffffffffffffffffffffffffffffffffffff168173ffffffffffffffffffffffffffffffffffffffff167f8be0079c531659141344cd1fd0a4f28419497f9722a3daafe3b4186f6b6457e060405160405180910390a35050565b613936806200384983390190565b6136bb806200018e6000396000f3fe6080604052600436106100fe5760003560e01c8063b6f949c311610095578063d96a094a11610064578063d96a094a14610368578063f16f373014610384578063f2fde38b146103ad578063f7d97577146103d6578063fdfe7485146103ff576100fe565b8063b6f949c314610282578063b8fe443d146102c5578063c7ea1e8b146102ee578063cee26ed51461032b576100fe565b80638a195912116100d15780638a195912146101c25780638da5cb5b146101eb578063a2bd1c4114610216578063acb1ba6714610259576100fe565b80633cd0cd6714610103578063656ea7d21461014057806366a65af114610169578063715018a6146101ab575b600080fd5b34801561010f57600080fd5b5061012a60048036038101906101259190612a41565b61043c565b60405161013791906131b9565b60405180910390f35b34801561014c57600080fd5b50610167600480360381019061016291906129ef565b6105b8565b005b34801561017557600080fd5b50610190600480360381019061018b9190612a41565b6106e5565b6040516101a296959493929190613226565b60405180910390f35b3480156101b757600080fd5b506101c061078b565b005b3480156101ce57600080fd5b506101e960048036038101906101e491906129ef565b610813565b005b3480156101f757600080fd5b50610200610940565b60405161020d9190612fc1565b60405180910390f35b34801561022257600080fd5b5061023d600480360381019061023891906128f5565b610969565b6040516102509796959493929190613287565b60405180910390f35b34801561026557600080fd5b50610280600480360381019061027b9190612a7d565b610a02565b005b34801561028e57600080fd5b506102a960048036038101906102a491906129ef565b610d8c565b6040516102bc9796959493929190613287565b60405180910390f35b3480156102d157600080fd5b506102ec60048036038101906102e7919061299b565b610e08565b005b3480156102fa57600080fd5b50610315600480360381019061031091906128a3565b6111b4565b6040516103229190613095565b60405180910390f35b34801561033757600080fd5b50610352600480360381019061034d91906129ef565b611469565b60405161035f9190612fc1565b60405180910390f35b610382600480360381019061037d91906129ef565b6114a8565b005b34801561039057600080fd5b506103ab60048036038101906103a69190612a41565b61191d565b005b3480156103b957600080fd5b506103d460048036038101906103cf91906128a3565b611e78565b005b3480156103e257600080fd5b506103fd60048036038101906103f89190612a41565b611f70565b005b34801561040b57600080fd5b50610426600480360381019061042191906128a3565b612079565b6040516104339190613095565b60405180910390f35b610444612681565b600560008481526020019081526020016000208054905082111561046757600080fd5b6005600084815260200190815260200160002082815481106104b2577f4e487b7100000000000000000000000000000000000000000000000000000000600052603260045260246000fd5b90600052602060002090600502016040518060c001604052908160008201548152602001600182015481526020016002820160009054906101000a900473ffffffffffffffffffffffffffffffffffffffff1673ffffffffffffffffffffffffffffffffffffffff1673ffffffffffffffffffffffffffffffffffffffff1681526020016003820160009054906101000a900473ffffffffffffffffffffffffffffffffffffffff1673ffffffffffffffffffffffffffffffffffffffff1673ffffffffffffffffffffffffffffffffffffffff1681526020016003820160149054906101000a900460ff16151515158152602001600482015481525050905092915050565b803373ffffffffffffffffffffffffffffffffffffffff16600160009054906101000a900473ffffffffffffffffffffffffffffffffffffffff1673ffffffffffffffffffffffffffffffffffffffff16636352211e836040518263ffffffff1660e01b815260040161062b91906131d4565b60206040518083038186803b15801561064357600080fd5b505afa158015610657573d6000803e3d6000fd5b505050506040513d601f19601f8201168201806040525081019061067b91906128cc565b73ffffffffffffffffffffffffffffffffffffffff161461069b57600080fd5b60006003600084815260200190815260200160002090508060020160009054906101000a900460ff16158160020160006101000a81548160ff021916908315150217905550505050565b6005602052816000526040600020818154811061070157600080fd5b9060005260206000209060050201600091509150508060000154908060010154908060020160009054906101000a900473ffffffffffffffffffffffffffffffffffffffff16908060030160009054906101000a900473ffffffffffffffffffffffffffffffffffffffff16908060030160149054906101000a900460ff16908060040154905086565b6107936121cb565b73ffffffffffffffffffffffffffffffffffffffff166107b1610940565b73ffffffffffffffffffffffffffffffffffffffff1614610807576040517f08c379a00000000000000000000000000000000000000000000000000000000081526004016107fe90613159565b60405180910390fd5b61081160006121d3565b565b803373ffffffffffffffffffffffffffffffffffffffff16600160009054906101000a900473ffffffffffffffffffffffffffffffffffffffff1673ffffffffffffffffffffffffffffffffffffffff16636352211e836040518263ffffffff1660e01b815260040161088691906131d4565b60206040518083038186803b15801561089e57600080fd5b505afa1580156108b2573d6000803e3d6000fd5b505050506040513d601f19601f820116820180604052508101906108d691906128cc565b73ffffffffffffffffffffffffffffffffffffffff16146108f657600080fd5b60006003600084815260200190815260200160002090508060020160019054906101000a900460ff16158160020160016101000a81548160ff021916908315150217905550505050565b60008060009054906101000a900473ffffffffffffffffffffffffffffffffffffffff16905090565b6004602052816000526040600020818154811061098557600080fd5b9060005260206000209060050201600091509150508060000154908060010154908060020160009054906101000a900460ff16908060020160019054906101000a900460ff16908060020160029054906101000a900473ffffffffffffffffffffffffffffffffffffffff16908060030154908060040154905087565b600073ffffffffffffffffffffffffffffffffffffffff16600160009054906101000a900473ffffffffffffffffffffffffffffffffffffffff1673ffffffffffffffffffffffffffffffffffffffff16636352211e866040518263ffffffff1660e01b8152600401610a7591906131d4565b60206040518083038186803b158015610a8d57600080fd5b505afa158015610aa1573d6000803e3d6000fd5b505050506040513d601f19601f82011682018060405250810190610ac591906128cc565b73ffffffffffffffffffffffffffffffffffffffff161415610ae657600080fd5b600073ffffffffffffffffffffffffffffffffffffffff168273ffffffffffffffffffffffffffffffffffffffff161415610b2057600080fd5b828273ffffffffffffffffffffffffffffffffffffffff1663dd62ed3e33306040518363ffffffff1660e01b8152600401610b5c929190612fdc565b60206040518083038186803b158015610b7457600080fd5b505afa158015610b88573d6000803e3d6000fd5b505050506040513d601f19601f82011682018060405250810190610bac9190612a18565b1015610bb757600080fd5b600560008581526020019081526020016000206040518060c001604052808681526020018581526020018473ffffffffffffffffffffffffffffffffffffffff1681526020013373ffffffffffffffffffffffffffffffffffffffff1681526020016000151581526020018342610c2e91906133ee565b8152509080600181540180825580915050600190039060005260206000209060050201600090919091909150600082015181600001556020820151816001015560408201518160020160006101000a81548173ffffffffffffffffffffffffffffffffffffffff021916908373ffffffffffffffffffffffffffffffffffffffff16021790555060608201518160030160006101000a81548173ffffffffffffffffffffffffffffffffffffffff021916908373ffffffffffffffffffffffffffffffffffffffff16021790555060808201518160030160146101000a81548160ff02191690831515021790555060a0820151816004015550503373ffffffffffffffffffffffffffffffffffffffff16847f8b4d06c200b17b9c1150172953ceb6fa3e7ace7623f6f933707badfa52c354cf85858542610d6f91906133ee565b604051610d7e939291906131ef565b60405180910390a350505050565b60036020528060005260406000206000915090508060000154908060010154908060020160009054906101000a900460ff16908060020160019054906101000a900460ff16908060020160029054906101000a900473ffffffffffffffffffffffffffffffffffffffff16908060030154908060040154905087565b6000600160009054906101000a900473ffffffffffffffffffffffffffffffffffffffff1673ffffffffffffffffffffffffffffffffffffffff16637cf87f9d33856040518363ffffffff1660e01b8152600401610e6792919061303c565b602060405180830381600087803b158015610e8157600080fd5b505af1158015610e95573d6000803e3d6000fd5b505050506040513d601f19601f82011682018060405250810190610eb99190612a18565b90506002339080600181540180825580915050600190039060005260206000200160009091909190916101000a81548173ffffffffffffffffffffffffffffffffffffffff021916908373ffffffffffffffffffffffffffffffffffffffff16021790555060006040518060e001604052808381526020018481526020016001151581526020016001151581526020013373ffffffffffffffffffffffffffffffffffffffff16815260200160008152602001428152509050600460003373ffffffffffffffffffffffffffffffffffffffff1673ffffffffffffffffffffffffffffffffffffffff168152602001908152602001600020819080600181540180825580915050600190039060005260206000209060050201600090919091909150600082015181600001556020820151816001015560408201518160020160006101000a81548160ff02191690831515021790555060608201518160020160016101000a81548160ff02191690831515021790555060808201518160020160026101000a81548173ffffffffffffffffffffffffffffffffffffffff021916908373ffffffffffffffffffffffffffffffffffffffff16021790555060a0820151816003015560c0820151816004015550508060036000848152602001908152602001600020600082015181600001556020820151816001015560408201518160020160006101000a81548160ff02191690831515021790555060608201518160020160016101000a81548160ff02191690831515021790555060808201518160020160026101000a81548173ffffffffffffffffffffffffffffffffffffffff021916908373ffffffffffffffffffffffffffffffffffffffff16021790555060a0820151816003015560c082015181600401559050503373ffffffffffffffffffffffffffffffffffffffff16600073ffffffffffffffffffffffffffffffffffffffff16837f0a429aba3d89849a2db0153e4534d95c46a1d83c8109d73893f55ebc44010ff460405160405180910390a450505050565b60606000600160009054906101000a900473ffffffffffffffffffffffffffffffffffffffff1673ffffffffffffffffffffffffffffffffffffffff1663d8a30732846040518263ffffffff1660e01b81526004016112139190612fc1565b60006040518083038186803b15801561122b57600080fd5b505afa15801561123f573d6000803e3d6000fd5b505050506040513d6000823e3d601f19601f820116820180604052508101906112689190612931565b90506000815167ffffffffffffffff8111156112ad577f4e487b7100000000000000000000000000000000000000000000000000000000600052604160045260246000fd5b6040519080825280602002602001820160405280156112e657816020015b6112d36126e5565b8152602001906001900390816112cb5790505b50905060005b825181101561145e5760036000848381518110611332577f4e487b7100000000000000000000000000000000000000000000000000000000600052603260045260246000fd5b602002602001015181526020019081526020016000206040518060e001604052908160008201548152602001600182015481526020016002820160009054906101000a900460ff161515151581526020016002820160019054906101000a900460ff161515151581526020016002820160029054906101000a900473ffffffffffffffffffffffffffffffffffffffff1673ffffffffffffffffffffffffffffffffffffffff1673ffffffffffffffffffffffffffffffffffffffff16815260200160038201548152602001600482015481525050828281518110611440577f4e487b7100000000000000000000000000000000000000000000000000000000600052603260045260246000fd5b6020026020010181905250808061145690613559565b9150506112ec565b508092505050919050565b6002818154811061147957600080fd5b906000526020600020016000915054906101000a900473ffffffffffffffffffffffffffffffffffffffff1681565b60006003600083815260200190815260200160002090508060020160019054906101000a900460ff166114da57600080fd5b3073ffffffffffffffffffffffffffffffffffffffff16600160009054906101000a900473ffffffffffffffffffffffffffffffffffffffff1673ffffffffffffffffffffffffffffffffffffffff1663081812fc846040518263ffffffff1660e01b815260040161154c91906131d4565b60206040518083038186803b15801561156457600080fd5b505afa158015611578573d6000803e3d6000fd5b505050506040513d601f19601f8201168201806040525081019061159c91906128cc565b73ffffffffffffffffffffffffffffffffffffffff16146115bc57600080fd5b806001015434146115cc57600080fd5b600160009054906101000a900473ffffffffffffffffffffffffffffffffffffffff1673ffffffffffffffffffffffffffffffffffffffff16636352211e836040518263ffffffff1660e01b815260040161162791906131d4565b60206040518083038186803b15801561163f57600080fd5b505afa158015611653573d6000803e3d6000fd5b505050506040513d601f19601f8201168201806040525081019061167791906128cc565b73ffffffffffffffffffffffffffffffffffffffff163373ffffffffffffffffffffffffffffffffffffffff1614156116af57600080fd5b60008160020160016101000a81548160ff021916908315150217905550600160009054906101000a900473ffffffffffffffffffffffffffffffffffffffff1673ffffffffffffffffffffffffffffffffffffffff1663d78dd96b33846040518363ffffffff1660e01b815260040161172992919061306c565b600060405180830381600087803b15801561174357600080fd5b505af1158015611757573d6000803e3d6000fd5b505050506000600160009054906101000a900473ffffffffffffffffffffffffffffffffffffffff1673ffffffffffffffffffffffffffffffffffffffff16636352211e846040518263ffffffff1660e01b81526004016117b891906131d4565b60206040518083038186803b1580156117d057600080fd5b505afa1580156117e4573d6000803e3d6000fd5b505050506040513d601f19601f8201168201806040525081019061180891906128cc565b9050600160009054906101000a900473ffffffffffffffffffffffffffffffffffffffff1673ffffffffffffffffffffffffffffffffffffffff166342842e0e8233866040518463ffffffff1660e01b815260040161186993929190613005565b600060405180830381600087803b15801561188357600080fd5b505af1158015611897573d6000803e3d6000fd5b505050506118bd8160646062346118ae9190613475565b6118b89190613444565b612297565b3373ffffffffffffffffffffffffffffffffffffffff168173ffffffffffffffffffffffffffffffffffffffff16847f0a429aba3d89849a2db0153e4534d95c46a1d83c8109d73893f55ebc44010ff460405160405180910390a4505050565b60006003600084815260200190815260200160002090506000611940848461043c565b90508160020160019054906101000a900460ff1661195d57600080fd5b3073ffffffffffffffffffffffffffffffffffffffff16600160009054906101000a900473ffffffffffffffffffffffffffffffffffffffff1673ffffffffffffffffffffffffffffffffffffffff1663081812fc866040518263ffffffff1660e01b81526004016119cf91906131d4565b60206040518083038186803b1580156119e757600080fd5b505afa1580156119fb573d6000803e3d6000fd5b505050506040513d601f19601f82011682018060405250810190611a1f91906128cc565b73ffffffffffffffffffffffffffffffffffffffff1614611a3f57600080fd5b3373ffffffffffffffffffffffffffffffffffffffff16600160009054906101000a900473ffffffffffffffffffffffffffffffffffffffff1673ffffffffffffffffffffffffffffffffffffffff16636352211e866040518263ffffffff1660e01b8152600401611ab191906131d4565b60206040518083038186803b158015611ac957600080fd5b505afa158015611add573d6000803e3d6000fd5b505050506040513d601f19601f82011682018060405250810190611b0191906128cc565b73ffffffffffffffffffffffffffffffffffffffff1614611b2157600080fd5b6005600085815260200190815260200160002080549050831115611b4457600080fd5b8060a00151421115611b5557600080fd5b6001600560008681526020019081526020016000208481548110611ba2577f4e487b7100000000000000000000000000000000000000000000000000000000600052603260045260246000fd5b906000526020600020906005020160030160146101000a81548160ff02191690831515021790555060008260020160016101000a81548160ff021916908315150217905550600160009054906101000a900473ffffffffffffffffffffffffffffffffffffffff1673ffffffffffffffffffffffffffffffffffffffff1663d78dd96b33866040518363ffffffff1660e01b8152600401611c4492919061306c565b600060405180830381600087803b158015611c5e57600080fd5b505af1158015611c72573d6000803e3d6000fd5b505050506000600160009054906101000a900473ffffffffffffffffffffffffffffffffffffffff1673ffffffffffffffffffffffffffffffffffffffff16636352211e866040518263ffffffff1660e01b8152600401611cd391906131d4565b60206040518083038186803b158015611ceb57600080fd5b505afa158015611cff573d6000803e3d6000fd5b505050506040513d601f19601f82011682018060405250810190611d2391906128cc565b9050600160009054906101000a900473ffffffffffffffffffffffffffffffffffffffff1673ffffffffffffffffffffffffffffffffffffffff166342842e0e828460600151886040518463ffffffff1660e01b8152600401611d8893929190613005565b600060405180830381600087803b158015611da257600080fd5b505af1158015611db6573d6000803e3d6000fd5b50505050611e0b8260600151826064605f8660200151611dd69190613475565b611de09190613444565b856040015173ffffffffffffffffffffffffffffffffffffffff1661238b909392919063ffffffff16565b3373ffffffffffffffffffffffffffffffffffffffff168173ffffffffffffffffffffffffffffffffffffffff16867f4ec4ba0f51972e72b52d0a288922dc59ab70adba5344f6e3e645b995e701a94487604051611e6991906131d4565b60405180910390a45050505050565b611e806121cb565b73ffffffffffffffffffffffffffffffffffffffff16611e9e610940565b73ffffffffffffffffffffffffffffffffffffffff1614611ef4576040517f08c379a0000000000000000000000000000000000000000000000000000000008152600401611eeb90613159565b60405180910390fd5b600073ffffffffffffffffffffffffffffffffffffffff168173ffffffffffffffffffffffffffffffffffffffff161415611f64576040517f08c379a0000000000000000000000000000000000000000000000000000000008152600401611f5b906130d9565b60405180910390fd5b611f6d816121d3565b50565b813373ffffffffffffffffffffffffffffffffffffffff16600160009054906101000a900473ffffffffffffffffffffffffffffffffffffffff1673ffffffffffffffffffffffffffffffffffffffff16636352211e836040518263ffffffff1660e01b8152600401611fe391906131d4565b60206040518083038186803b158015611ffb57600080fd5b505afa15801561200f573d6000803e3d6000fd5b505050506040513d601f19601f8201168201806040525081019061203391906128cc565b73ffffffffffffffffffffffffffffffffffffffff161461205357600080fd5b600060036000858152602001908152602001600020905082816001018190555050505050565b6060600460008373ffffffffffffffffffffffffffffffffffffffff1673ffffffffffffffffffffffffffffffffffffffff168152602001908152602001600020805480602002602001604051908101604052809291908181526020016000905b828210156121c057838290600052602060002090600502016040518060e001604052908160008201548152602001600182015481526020016002820160009054906101000a900460ff161515151581526020016002820160019054906101000a900460ff161515151581526020016002820160029054906101000a900473ffffffffffffffffffffffffffffffffffffffff1673ffffffffffffffffffffffffffffffffffffffff1673ffffffffffffffffffffffffffffffffffffffff16815260200160038201548152602001600482015481525050815260200190600101906120da565b505050509050919050565b600033905090565b60008060009054906101000a900473ffffffffffffffffffffffffffffffffffffffff169050816000806101000a81548173ffffffffffffffffffffffffffffffffffffffff021916908373ffffffffffffffffffffffffffffffffffffffff1602179055508173ffffffffffffffffffffffffffffffffffffffff168173ffffffffffffffffffffffffffffffffffffffff167f8be0079c531659141344cd1fd0a4f28419497f9722a3daafe3b4186f6b6457e060405160405180910390a35050565b804710156122da576040517f08c379a00000000000000000000000000000000000000000000000000000000081526004016122d190613119565b60405180910390fd5b60008273ffffffffffffffffffffffffffffffffffffffff168260405161230090612fac565b60006040518083038185875af1925050503d806000811461233d576040519150601f19603f3d011682016040523d82523d6000602084013e612342565b606091505b5050905080612386576040517f08c379a000000000000000000000000000000000000000000000000000000000815260040161237d906130f9565b60405180910390fd5b505050565b61240e846323b872dd60e01b8585856040516024016123ac93929190613005565b604051602081830303815290604052907bffffffffffffffffffffffffffffffffffffffffffffffffffffffff19166020820180517bffffffffffffffffffffffffffffffffffffffffffffffffffffffff8381831617835250505050612414565b50505050565b6000612476826040518060400160405280602081526020017f5361666545524332303a206c6f772d6c6576656c2063616c6c206661696c65648152508573ffffffffffffffffffffffffffffffffffffffff166124db9092919063ffffffff16565b90506000815111156124d657808060200190518101906124969190612972565b6124d5576040517f08c379a00000000000000000000000000000000000000000000000000000000081526004016124cc90613199565b60405180910390fd5b5b505050565b60606124ea84846000856124f3565b90509392505050565b606082471015612538576040517f08c379a000000000000000000000000000000000000000000000000000000000815260040161252f90613139565b60405180910390fd5b61254185612607565b612580576040517f08c379a000000000000000000000000000000000000000000000000000000000815260040161257790613179565b60405180910390fd5b6000808673ffffffffffffffffffffffffffffffffffffffff1685876040516125a99190612f95565b60006040518083038185875af1925050503d80600081146125e6576040519150601f19603f3d011682016040523d82523d6000602084013e6125eb565b606091505b50915091506125fb82828661261a565b92505050949350505050565b600080823b905060008111915050919050565b6060831561262a5782905061267a565b60008351111561263d5782518084602001fd5b816040517f08c379a000000000000000000000000000000000000000000000000000000000815260040161267191906130b7565b60405180910390fd5b9392505050565b6040518060c001604052806000815260200160008152602001600073ffffffffffffffffffffffffffffffffffffffff168152602001600073ffffffffffffffffffffffffffffffffffffffff168152602001600015158152602001600081525090565b6040518060e001604052806000815260200160008152602001600015158152602001600015158152602001600073ffffffffffffffffffffffffffffffffffffffff16815260200160008152602001600081525090565b600061274f61274a84613327565b6132f6565b9050808382526020820190508285602086028201111561276e57600080fd5b60005b8581101561279e5781612784888261288e565b845260208401935060208301925050600181019050612771565b5050509392505050565b60006127bb6127b684613353565b6132f6565b9050828152602081018484840111156127d357600080fd5b6127de848285613517565b509392505050565b6000813590506127f581613640565b92915050565b60008151905061280a81613640565b92915050565b600082601f83011261282157600080fd5b815161283184826020860161273c565b91505092915050565b60008151905061284981613657565b92915050565b600082601f83011261286057600080fd5b81356128708482602086016127a8565b91505092915050565b6000813590506128888161366e565b92915050565b60008151905061289d8161366e565b92915050565b6000602082840312156128b557600080fd5b60006128c3848285016127e6565b91505092915050565b6000602082840312156128de57600080fd5b60006128ec848285016127fb565b91505092915050565b6000806040838503121561290857600080fd5b6000612916858286016127e6565b925050602061292785828601612879565b9150509250929050565b60006020828403121561294357600080fd5b600082015167ffffffffffffffff81111561295d57600080fd5b61296984828501612810565b91505092915050565b60006020828403121561298457600080fd5b60006129928482850161283a565b91505092915050565b600080604083850312156129ae57600080fd5b600083013567ffffffffffffffff8111156129c857600080fd5b6129d48582860161284f565b92505060206129e585828601612879565b9150509250929050565b600060208284031215612a0157600080fd5b6000612a0f84828501612879565b91505092915050565b600060208284031215612a2a57600080fd5b6000612a388482850161288e565b91505092915050565b60008060408385031215612a5457600080fd5b6000612a6285828601612879565b9250506020612a7385828601612879565b9150509250929050565b60008060008060808587031215612a9357600080fd5b6000612aa187828801612879565b9450506020612ab287828801612879565b9350506040612ac3878288016127e6565b9250506060612ad487828801612879565b91505092959194509250565b6000612aec8383612ee9565b60e08301905092915050565b612b01816134cf565b82525050565b612b10816134cf565b82525050565b6000612b2182613393565b612b2b81856133c1565b9350612b3683613383565b8060005b83811015612b67578151612b4e8882612ae0565b9750612b59836133b4565b925050600181019050612b3a565b5085935050505092915050565b612b7d816134e1565b82525050565b612b8c816134e1565b82525050565b6000612b9d8261339e565b612ba781856133d2565b9350612bb7818560208601613526565b80840191505092915050565b6000612bce826133a9565b612bd881856133dd565b9350612be8818560208601613526565b612bf18161362f565b840191505092915050565b6000612c096026836133dd565b91507f4f776e61626c653a206e6577206f776e657220697320746865207a65726f206160008301527f64647265737300000000000000000000000000000000000000000000000000006020830152604082019050919050565b6000612c6f603a836133dd565b91507f416464726573733a20756e61626c6520746f2073656e642076616c75652c207260008301527f6563697069656e74206d617920686176652072657665727465640000000000006020830152604082019050919050565b6000612cd5601d836133dd565b91507f416464726573733a20696e73756666696369656e742062616c616e63650000006000830152602082019050919050565b6000612d156026836133dd565b91507f416464726573733a20696e73756666696369656e742062616c616e636520666f60008301527f722063616c6c00000000000000000000000000000000000000000000000000006020830152604082019050919050565b6000612d7b6020836133dd565b91507f4f776e61626c653a2063616c6c6572206973206e6f7420746865206f776e65726000830152602082019050919050565b6000612dbb6000836133d2565b9150600082019050919050565b6000612dd5601d836133dd565b91507f416464726573733a2063616c6c20746f206e6f6e2d636f6e74726163740000006000830152602082019050919050565b6000612e15602a836133dd565b91507f5361666545524332303a204552433230206f7065726174696f6e20646964206e60008301527f6f742073756363656564000000000000000000000000000000000000000000006020830152604082019050919050565b60c082016000820151612e846000850182612f77565b506020820151612e976020850182612f77565b506040820151612eaa6040850182612af8565b506060820151612ebd6060850182612af8565b506080820151612ed06080850182612b74565b5060a0820151612ee360a0850182612f77565b50505050565b60e082016000820151612eff6000850182612f77565b506020820151612f126020850182612f77565b506040820151612f256040850182612b74565b506060820151612f386060850182612b74565b506080820151612f4b6080850182612af8565b5060a0820151612f5e60a0850182612f77565b5060c0820151612f7160c0850182612f77565b50505050565b612f808161350d565b82525050565b612f8f8161350d565b82525050565b6000612fa18284612b92565b915081905092915050565b6000612fb782612dae565b9150819050919050565b6000602082019050612fd66000830184612b07565b92915050565b6000604082019050612ff16000830185612b07565b612ffe6020830184612b07565b9392505050565b600060608201905061301a6000830186612b07565b6130276020830185612b07565b6130346040830184612f86565b949350505050565b60006040820190506130516000830185612b07565b81810360208301526130638184612bc3565b90509392505050565b60006040820190506130816000830185612b07565b61308e6020830184612f86565b9392505050565b600060208201905081810360008301526130af8184612b16565b905092915050565b600060208201905081810360008301526130d18184612bc3565b905092915050565b600060208201905081810360008301526130f281612bfc565b9050919050565b6000602082019050818103600083015261311281612c62565b9050919050565b6000602082019050818103600083015261313281612cc8565b9050919050565b6000602082019050818103600083015261315281612d08565b9050919050565b6000602082019050818103600083015261317281612d6e565b9050919050565b6000602082019050818103600083015261319281612dc8565b9050919050565b600060208201905081810360008301526131b281612e08565b9050919050565b600060c0820190506131ce6000830184612e6e565b92915050565b60006020820190506131e96000830184612f86565b92915050565b60006060820190506132046000830186612f86565b6132116020830185612b07565b61321e6040830184612f86565b949350505050565b600060c08201905061323b6000830189612f86565b6132486020830188612f86565b6132556040830187612b07565b6132626060830186612b07565b61326f6080830185612b83565b61327c60a0830184612f86565b979650505050505050565b600060e08201905061329c600083018a612f86565b6132a96020830189612f86565b6132b66040830188612b83565b6132c36060830187612b83565b6132d06080830186612b07565b6132dd60a0830185612f86565b6132ea60c0830184612f86565b98975050505050505050565b6000604051905081810181811067ffffffffffffffff8211171561331d5761331c613600565b5b8060405250919050565b600067ffffffffffffffff82111561334257613341613600565b5b602082029050602081019050919050565b600067ffffffffffffffff82111561336e5761336d613600565b5b601f19601f8301169050602081019050919050565b6000819050602082019050919050565b600081519050919050565b600081519050919050565b600081519050919050565b6000602082019050919050565b600082825260208201905092915050565b600081905092915050565b600082825260208201905092915050565b60006133f98261350d565b91506134048361350d565b9250827fffffffffffffffffffffffffffffffffffffffffffffffffffffffffffffffff03821115613439576134386135a2565b5b828201905092915050565b600061344f8261350d565b915061345a8361350d565b92508261346a576134696135d1565b5b828204905092915050565b60006134808261350d565b915061348b8361350d565b9250817fffffffffffffffffffffffffffffffffffffffffffffffffffffffffffffffff04831182151516156134c4576134c36135a2565b5b828202905092915050565b60006134da826134ed565b9050919050565b60008115159050919050565b600073ffffffffffffffffffffffffffffffffffffffff82169050919050565b6000819050919050565b82818337600083830152505050565b60005b83811015613544578082015181840152602081019050613529565b83811115613553576000848401525b50505050565b60006135648261350d565b91507fffffffffffffffffffffffffffffffffffffffffffffffffffffffffffffffff821415613597576135966135a2565b5b600182019050919050565b7f4e487b7100000000000000000000000000000000000000000000000000000000600052601160045260246000fd5b7f4e487b7100000000000000000000000000000000000000000000000000000000600052601260045260246000fd5b7f4e487b7100000000000000000000000000000000000000000000000000000000600052604160045260246000fd5b6000601f19601f8301169050919050565b613649816134cf565b811461365457600080fd5b50565b613660816134e1565b811461366b57600080fd5b50565b6136778161350d565b811461368257600080fd5b5056fea26469706673582212205affd1f45cbb1c6af413098efa061b1f31ea08990da294092142364ba25f85d164736f6c6343000800003360806040523480156200001157600080fd5b506040518060400160405280600581526020017f4d794e46540000000000000000000000000000000000000000000000000000008152506040518060400160405280600281526020017f4d4e000000000000000000000000000000000000000000000000000000000000815250816000908051906020019062000096929190620001a6565b508060019080519060200190620000af929190620001a6565b505050620000d2620000c6620000d860201b60201c565b620000e060201b60201c565b620002bb565b600033905090565b6000600760009054906101000a900473ffffffffffffffffffffffffffffffffffffffff16905081600760006101000a81548173ffffffffffffffffffffffffffffffffffffffff021916908373ffffffffffffffffffffffffffffffffffffffff1602179055508173ffffffffffffffffffffffffffffffffffffffff168173ffffffffffffffffffffffffffffffffffffffff167f8be0079c531659141344cd1fd0a4f28419497f9722a3daafe3b4186f6b6457e060405160405180910390a35050565b828054620001b49062000256565b90600052602060002090601f016020900481019282620001d8576000855562000224565b82601f10620001f357805160ff191683800117855562000224565b8280016001018555821562000224579182015b828111156200022357825182559160200191906001019062000206565b5b50905062000233919062000237565b5090565b5b808211156200025257600081600090555060010162000238565b5090565b600060028204905060018216806200026f57607f821691505b602082108114156200028657620002856200028c565b5b50919050565b7f4e487b7100000000000000000000000000000000000000000000000000000000600052602260045260246000fd5b61366b80620002cb6000396000f3fe608060405234801561001057600080fd5b50600436106101425760003560e01c806395d89b41116100b8578063c87b56dd1161007c578063c87b56dd14610375578063d78dd96b146103a5578063d8a30732146103c1578063e985e9c5146103f1578063f2fde38b14610421578063f31dfbee1461043d57610142565b806395d89b41146102d1578063a22cb465146102ef578063a2a967991461030b578063b88d4fde14610329578063c7bde51e1461034557610142565b806342842e0e1161010a57806342842e0e146101fd5780636352211e1461021957806370a0823114610249578063715018a6146102795780637cf87f9d146102835780638da5cb5b146102b357610142565b806301ffc9a71461014757806306fdde0314610177578063081812fc14610195578063095ea7b3146101c557806323b872dd146101e1575b600080fd5b610161600480360381019061015c9190612581565b61046d565b60405161016e9190612f2a565b60405180910390f35b61017f61054f565b60405161018c9190612f45565b60405180910390f35b6101af60048036038101906101aa9190612614565b6105e1565b6040516101bc9190612ea1565b60405180910390f35b6101df60048036038101906101da9190612545565b610666565b005b6101fb60048036038101906101f691906123eb565b61077e565b005b610217600480360381019061021291906123eb565b6107de565b005b610233600480360381019061022e9190612614565b6107fe565b6040516102409190612ea1565b60405180910390f35b610263600480360381019061025e9190612386565b6108b0565b60405161027091906131c7565b60405180910390f35b610281610968565b005b61029d600480360381019061029891906124f1565b6109f0565b6040516102aa91906131c7565b60405180910390f35b6102bb610bc5565b6040516102c89190612ea1565b60405180910390f35b6102d9610bef565b6040516102e69190612f45565b60405180910390f35b610309600480360381019061030491906124b5565b610c81565b005b610313610e02565b60405161032091906131c7565b60405180910390f35b610343600480360381019061033e919061243a565b610e08565b005b61035f600480360381019061035a9190612545565b610e6a565b60405161036c91906131c7565b60405180910390f35b61038f600480360381019061038a9190612614565b610e9b565b60405161039c9190612f45565b60405180910390f35b6103bf60048036038101906103ba9190612545565b610fed565b005b6103db60048036038101906103d69190612386565b6110d3565b6040516103e89190612f08565b60405180910390f35b61040b600480360381019061040691906123af565b61134f565b6040516104189190612f2a565b60405180910390f35b61043b60048036038101906104369190612386565b6113e3565b005b610457600480360381019061045291906125d3565b6114db565b6040516104649190612f2a565b60405180910390f35b60007f80ac58cd000000000000000000000000000000000000000000000000000000007bffffffffffffffffffffffffffffffffffffffffffffffffffffffff1916827bffffffffffffffffffffffffffffffffffffffffffffffffffffffff1916148061053857507f5b5e139f000000000000000000000000000000000000000000000000000000007bffffffffffffffffffffffffffffffffffffffffffffffffffffffff1916827bffffffffffffffffffffffffffffffffffffffffffffffffffffffff1916145b80610548575061054782611511565b5b9050919050565b60606000805461055e90613460565b80601f016020809104026020016040519081016040528092919081815260200182805461058a90613460565b80156105d75780601f106105ac576101008083540402835291602001916105d7565b820191906000526020600020905b8154815290600101906020018083116105ba57829003601f168201915b5050505050905090565b60006105ec8261157b565b61062b576040517f08c379a000000000000000000000000000000000000000000000000000000000815260040161062290613107565b60405180910390fd5b6004600083815260200190815260200160002060009054906101000a900473ffffffffffffffffffffffffffffffffffffffff169050919050565b6000610671826107fe565b90508073ffffffffffffffffffffffffffffffffffffffff168373ffffffffffffffffffffffffffffffffffffffff1614156106e2576040517f08c379a00000000000000000000000000000000000000000000000000000000081526004016106d990613187565b60405180910390fd5b8073ffffffffffffffffffffffffffffffffffffffff166107016115e7565b73ffffffffffffffffffffffffffffffffffffffff161480610730575061072f8161072a6115e7565b61134f565b5b61076f576040517f08c379a000000000000000000000000000000000000000000000000000000000815260040161076690613047565b60405180910390fd5b61077983836115ef565b505050565b61078f6107896115e7565b826116a8565b6107ce576040517f08c379a00000000000000000000000000000000000000000000000000000000081526004016107c5906131a7565b60405180910390fd5b6107d9838383611786565b505050565b6107f983838360405180602001604052806000815250610e08565b505050565b6000806002600084815260200190815260200160002060009054906101000a900473ffffffffffffffffffffffffffffffffffffffff169050600073ffffffffffffffffffffffffffffffffffffffff168173ffffffffffffffffffffffffffffffffffffffff1614156108a7576040517f08c379a000000000000000000000000000000000000000000000000000000000815260040161089e90613087565b60405180910390fd5b80915050919050565b60008073ffffffffffffffffffffffffffffffffffffffff168273ffffffffffffffffffffffffffffffffffffffff161415610921576040517f08c379a000000000000000000000000000000000000000000000000000000000815260040161091890613067565b60405180910390fd5b600360008373ffffffffffffffffffffffffffffffffffffffff1673ffffffffffffffffffffffffffffffffffffffff168152602001908152602001600020549050919050565b6109706115e7565b73ffffffffffffffffffffffffffffffffffffffff1661098e610bc5565b73ffffffffffffffffffffffffffffffffffffffff16146109e4576040517f08c379a00000000000000000000000000000000000000000000000000000000081526004016109db90613127565b60405180910390fd5b6109ee60006119e2565b565b60006109fa6115e7565b73ffffffffffffffffffffffffffffffffffffffff16610a18610bc5565b73ffffffffffffffffffffffffffffffffffffffff1614610a6e576040517f08c379a0000000000000000000000000000000000000000000000000000000008152600401610a6590613127565b60405180910390fd5b600a82604051610a7e9190612e66565b908152602001604051809103902060009054906101000a900460ff1615610ada576040517f08c379a0000000000000000000000000000000000000000000000000000000008152600401610ad190612f67565b60405180910390fd5b610ae46009611aa8565b6000610af06009611abe565b90506001600a84604051610b049190612e66565b908152602001604051809103902060006101000a81548160ff021916908315150217905550600b60008573ffffffffffffffffffffffffffffffffffffffff1673ffffffffffffffffffffffffffffffffffffffff168152602001908152602001600020819080600181540180825580915050600190039060005260206000200160009091909190915055610b998482611acc565b610ba38184611c9a565b60086000815480929190610bb690613492565b91905055508091505092915050565b6000600760009054906101000a900473ffffffffffffffffffffffffffffffffffffffff16905090565b606060018054610bfe90613460565b80601f0160208091040260200160405190810160405280929190818152602001828054610c2a90613460565b8015610c775780601f10610c4c57610100808354040283529160200191610c77565b820191906000526020600020905b815481529060010190602001808311610c5a57829003601f168201915b5050505050905090565b610c896115e7565b73ffffffffffffffffffffffffffffffffffffffff168273ffffffffffffffffffffffffffffffffffffffff161415610cf7576040517f08c379a0000000000000000000000000000000000000000000000000000000008152600401610cee90613007565b60405180910390fd5b8060056000610d046115e7565b73ffffffffffffffffffffffffffffffffffffffff1673ffffffffffffffffffffffffffffffffffffffff16815260200190815260200160002060008473ffffffffffffffffffffffffffffffffffffffff1673ffffffffffffffffffffffffffffffffffffffff16815260200190815260200160002060006101000a81548160ff0219169083151502179055508173ffffffffffffffffffffffffffffffffffffffff16610db16115e7565b73ffffffffffffffffffffffffffffffffffffffff167f17307eab39ab6107e8899845ad3d59bd9653f200f220920489ca2b5937696c3183604051610df69190612f2a565b60405180910390a35050565b60085481565b610e19610e136115e7565b836116a8565b610e58576040517f08c379a0000000000000000000000000000000000000000000000000000000008152600401610e4f906131a7565b60405180910390fd5b610e6484848484611d0e565b50505050565b600b6020528160005260406000208181548110610e8657600080fd5b90600052602060002001600091509150505481565b6060610ea68261157b565b610ee5576040517f08c379a0000000000000000000000000000000000000000000000000000000008152600401610edc906130e7565b60405180910390fd5b6000600660008481526020019081526020016000208054610f0590613460565b80601f0160208091040260200160405190810160405280929190818152602001828054610f3190613460565b8015610f7e5780601f10610f5357610100808354040283529160200191610f7e565b820191906000526020600020905b815481529060010190602001808311610f6157829003601f168201915b505050505090506000610f8f611d6a565b9050600081511415610fa5578192505050610fe8565b600082511115610fda578082604051602001610fc2929190612e7d565b60405160208183030381529060405292505050610fe8565b610fe384611da7565b925050505b919050565b610ff56115e7565b73ffffffffffffffffffffffffffffffffffffffff16611013610bc5565b73ffffffffffffffffffffffffffffffffffffffff1614611069576040517f08c379a000000000000000000000000000000000000000000000000000000000815260040161106090613127565b60405180910390fd5b600b60008373ffffffffffffffffffffffffffffffffffffffff1673ffffffffffffffffffffffffffffffffffffffff1681526020019081526020016000208190806001815401808255809150506001900390600052602060002001600090919091909150555050565b606060006110e0836108b0565b67ffffffffffffffff81111561111f577f4e487b7100000000000000000000000000000000000000000000000000000000600052604160045260246000fd5b60405190808252806020026020018201604052801561114d5781602001602082028036833780820191505090505b5090506000805b600b60008673ffffffffffffffffffffffffffffffffffffffff1673ffffffffffffffffffffffffffffffffffffffff16815260200190815260200160002080549050811015611344578473ffffffffffffffffffffffffffffffffffffffff1661123f600b60008873ffffffffffffffffffffffffffffffffffffffff1673ffffffffffffffffffffffffffffffffffffffff168152602001908152602001600020838154811061122f577f4e487b7100000000000000000000000000000000000000000000000000000000600052603260045260246000fd5b90600052602060002001546107fe565b73ffffffffffffffffffffffffffffffffffffffff16141561133157600b60008673ffffffffffffffffffffffffffffffffffffffff1673ffffffffffffffffffffffffffffffffffffffff16815260200190815260200160002081815481106112d2577f4e487b7100000000000000000000000000000000000000000000000000000000600052603260045260246000fd5b9060005260206000200154838381518110611316577f4e487b7100000000000000000000000000000000000000000000000000000000600052603260045260246000fd5b602002602001018181525050818061132d90613492565b9250505b808061133c90613492565b915050611154565b508192505050919050565b6000600560008473ffffffffffffffffffffffffffffffffffffffff1673ffffffffffffffffffffffffffffffffffffffff16815260200190815260200160002060008373ffffffffffffffffffffffffffffffffffffffff1673ffffffffffffffffffffffffffffffffffffffff16815260200190815260200160002060009054906101000a900460ff16905092915050565b6113eb6115e7565b73ffffffffffffffffffffffffffffffffffffffff16611409610bc5565b73ffffffffffffffffffffffffffffffffffffffff161461145f576040517f08c379a000000000000000000000000000000000000000000000000000000000815260040161145690613127565b60405180910390fd5b600073ffffffffffffffffffffffffffffffffffffffff168173ffffffffffffffffffffffffffffffffffffffff1614156114cf576040517f08c379a00000000000000000000000000000000000000000000000000000000081526004016114c690612fa7565b60405180910390fd5b6114d8816119e2565b50565b600a818051602081018201805184825260208301602085012081835280955050505050506000915054906101000a900460ff1681565b60007f01ffc9a7000000000000000000000000000000000000000000000000000000007bffffffffffffffffffffffffffffffffffffffffffffffffffffffff1916827bffffffffffffffffffffffffffffffffffffffffffffffffffffffff1916149050919050565b60008073ffffffffffffffffffffffffffffffffffffffff166002600084815260200190815260200160002060009054906101000a900473ffffffffffffffffffffffffffffffffffffffff1673ffffffffffffffffffffffffffffffffffffffff1614159050919050565b600033905090565b816004600083815260200190815260200160002060006101000a81548173ffffffffffffffffffffffffffffffffffffffff021916908373ffffffffffffffffffffffffffffffffffffffff160217905550808273ffffffffffffffffffffffffffffffffffffffff16611662836107fe565b73ffffffffffffffffffffffffffffffffffffffff167f8c5be1e5ebec7d5bd14f71427d1e84f3dd0314c0f7b2291e5b200ac8c7c3b92560405160405180910390a45050565b60006116b38261157b565b6116f2576040517f08c379a00000000000000000000000000000000000000000000000000000000081526004016116e990613027565b60405180910390fd5b60006116fd836107fe565b90508073ffffffffffffffffffffffffffffffffffffffff168473ffffffffffffffffffffffffffffffffffffffff16148061176c57508373ffffffffffffffffffffffffffffffffffffffff16611754846105e1565b73ffffffffffffffffffffffffffffffffffffffff16145b8061177d575061177c818561134f565b5b91505092915050565b8273ffffffffffffffffffffffffffffffffffffffff166117a6826107fe565b73ffffffffffffffffffffffffffffffffffffffff16146117fc576040517f08c379a00000000000000000000000000000000000000000000000000000000081526004016117f390613147565b60405180910390fd5b600073ffffffffffffffffffffffffffffffffffffffff168273ffffffffffffffffffffffffffffffffffffffff16141561186c576040517f08c379a000000000000000000000000000000000000000000000000000000000815260040161186390612fe7565b60405180910390fd5b611877838383611e4e565b6118826000826115ef565b6001600360008573ffffffffffffffffffffffffffffffffffffffff1673ffffffffffffffffffffffffffffffffffffffff16815260200190815260200160002060008282546118d29190613376565b925050819055506001600360008473ffffffffffffffffffffffffffffffffffffffff1673ffffffffffffffffffffffffffffffffffffffff168152602001908152602001600020600082825461192991906132ef565b92505081905550816002600083815260200190815260200160002060006101000a81548173ffffffffffffffffffffffffffffffffffffffff021916908373ffffffffffffffffffffffffffffffffffffffff160217905550808273ffffffffffffffffffffffffffffffffffffffff168473ffffffffffffffffffffffffffffffffffffffff167fddf252ad1be2c89b69c2b068fc378daa952ba7f163c4a11628f55a4df523b3ef60405160405180910390a4505050565b6000600760009054906101000a900473ffffffffffffffffffffffffffffffffffffffff16905081600760006101000a81548173ffffffffffffffffffffffffffffffffffffffff021916908373ffffffffffffffffffffffffffffffffffffffff1602179055508173ffffffffffffffffffffffffffffffffffffffff168173ffffffffffffffffffffffffffffffffffffffff167f8be0079c531659141344cd1fd0a4f28419497f9722a3daafe3b4186f6b6457e060405160405180910390a35050565b6001816000016000828254019250508190555050565b600081600001549050919050565b600073ffffffffffffffffffffffffffffffffffffffff168273ffffffffffffffffffffffffffffffffffffffff161415611b3c576040517f08c379a0000000000000000000000000000000000000000000000000000000008152600401611b33906130c7565b60405180910390fd5b611b458161157b565b15611b85576040517f08c379a0000000000000000000000000000000000000000000000000000000008152600401611b7c90612fc7565b60405180910390fd5b611b9160008383611e4e565b6001600360008473ffffffffffffffffffffffffffffffffffffffff1673ffffffffffffffffffffffffffffffffffffffff1681526020019081526020016000206000828254611be191906132ef565b92505081905550816002600083815260200190815260200160002060006101000a81548173ffffffffffffffffffffffffffffffffffffffff021916908373ffffffffffffffffffffffffffffffffffffffff160217905550808273ffffffffffffffffffffffffffffffffffffffff16600073ffffffffffffffffffffffffffffffffffffffff167fddf252ad1be2c89b69c2b068fc378daa952ba7f163c4a11628f55a4df523b3ef60405160405180910390a45050565b611ca38261157b565b611ce2576040517f08c379a0000000000000000000000000000000000000000000000000000000008152600401611cd9906130a7565b60405180910390fd5b80600660008481526020019081526020016000209080519060200190611d099291906121aa565b505050565b611d19848484611786565b611d2584848484611e53565b611d64576040517f08c379a0000000000000000000000000000000000000000000000000000000008152600401611d5b90612f87565b60405180910390fd5b50505050565b60606040518060400160405280601581526020017f68747470733a2f2f697066732e696f2f697066732f0000000000000000000000815250905090565b6060611db28261157b565b611df1576040517f08c379a0000000000000000000000000000000000000000000000000000000008152600401611de890613167565b60405180910390fd5b6000611dfb611d6a565b90506000815111611e1b5760405180602001604052806000815250611e46565b80611e2584611fea565b604051602001611e36929190612e7d565b6040516020818303038152906040525b915050919050565b505050565b6000611e748473ffffffffffffffffffffffffffffffffffffffff16612197565b15611fdd578373ffffffffffffffffffffffffffffffffffffffff1663150b7a02611e9d6115e7565b8786866040518563ffffffff1660e01b8152600401611ebf9493929190612ebc565b602060405180830381600087803b158015611ed957600080fd5b505af1925050508015611f0a57506040513d601f19601f82011682018060405250810190611f0791906125aa565b60015b611f8d573d8060008114611f3a576040519150601f19603f3d011682016040523d82523d6000602084013e611f3f565b606091505b50600081511415611f85576040517f08c379a0000000000000000000000000000000000000000000000000000000008152600401611f7c90612f87565b60405180910390fd5b805181602001fd5b63150b7a0260e01b7bffffffffffffffffffffffffffffffffffffffffffffffffffffffff1916817bffffffffffffffffffffffffffffffffffffffffffffffffffffffff191614915050611fe2565b600190505b949350505050565b60606000821415612032576040518060400160405280600181526020017f30000000000000000000000000000000000000000000000000000000000000008152509050612192565b600082905060005b6000821461206457808061204d90613492565b915050600a8261205d9190613345565b915061203a565b60008167ffffffffffffffff8111156120a6577f4e487b7100000000000000000000000000000000000000000000000000000000600052604160045260246000fd5b6040519080825280601f01601f1916602001820160405280156120d85781602001600182028036833780820191505090505b5090505b6000851461218b576001826120f19190613376565b9150600a8561210091906134db565b603061210c91906132ef565b60f81b818381518110612148577f4e487b7100000000000000000000000000000000000000000000000000000000600052603260045260246000fd5b60200101907effffffffffffffffffffffffffffffffffffffffffffffffffffffffffffff1916908160001a905350600a856121849190613345565b94506120dc565b8093505050505b919050565b600080823b905060008111915050919050565b8280546121b690613460565b90600052602060002090601f0160209004810192826121d8576000855561221f565b82601f106121f157805160ff191683800117855561221f565b8280016001018555821561221f579182015b8281111561221e578251825591602001919060010190612203565b5b50905061222c9190612230565b5090565b5b80821115612249576000816000905550600101612231565b5090565b600061226061225b84613213565b6131e2565b90508281526020810184848401111561227857600080fd5b61228384828561341e565b509392505050565b600061229e61229984613243565b6131e2565b9050828152602081018484840111156122b657600080fd5b6122c184828561341e565b509392505050565b6000813590506122d8816135d9565b92915050565b6000813590506122ed816135f0565b92915050565b60008135905061230281613607565b92915050565b60008151905061231781613607565b92915050565b600082601f83011261232e57600080fd5b813561233e84826020860161224d565b91505092915050565b600082601f83011261235857600080fd5b813561236884826020860161228b565b91505092915050565b6000813590506123808161361e565b92915050565b60006020828403121561239857600080fd5b60006123a6848285016122c9565b91505092915050565b600080604083850312156123c257600080fd5b60006123d0858286016122c9565b92505060206123e1858286016122c9565b9150509250929050565b60008060006060848603121561240057600080fd5b600061240e868287016122c9565b935050602061241f868287016122c9565b925050604061243086828701612371565b9150509250925092565b6000806000806080858703121561245057600080fd5b600061245e878288016122c9565b945050602061246f878288016122c9565b935050604061248087828801612371565b925050606085013567ffffffffffffffff81111561249d57600080fd5b6124a98782880161231d565b91505092959194509250565b600080604083850312156124c857600080fd5b60006124d6858286016122c9565b92505060206124e7858286016122de565b9150509250929050565b6000806040838503121561250457600080fd5b6000612512858286016122c9565b925050602083013567ffffffffffffffff81111561252f57600080fd5b61253b85828601612347565b9150509250929050565b6000806040838503121561255857600080fd5b6000612566858286016122c9565b925050602061257785828601612371565b9150509250929050565b60006020828403121561259357600080fd5b60006125a1848285016122f3565b91505092915050565b6000602082840312156125bc57600080fd5b60006125ca84828501612308565b91505092915050565b6000602082840312156125e557600080fd5b600082013567ffffffffffffffff8111156125ff57600080fd5b61260b84828501612347565b91505092915050565b60006020828403121561262657600080fd5b600061263484828501612371565b91505092915050565b60006126498383612e48565b60208301905092915050565b61265e816133aa565b82525050565b600061266f82613283565b61267981856132b1565b935061268483613273565b8060005b838110156126b557815161269c888261263d565b97506126a7836132a4565b925050600181019050612688565b5085935050505092915050565b6126cb816133bc565b82525050565b60006126dc8261328e565b6126e681856132c2565b93506126f681856020860161342d565b6126ff816135c8565b840191505092915050565b600061271582613299565b61271f81856132d3565b935061272f81856020860161342d565b612738816135c8565b840191505092915050565b600061274e82613299565b61275881856132e4565b935061276881856020860161342d565b80840191505092915050565b60006127816013836132d3565b91507f4172743a204e46542069732065786973746564000000000000000000000000006000830152602082019050919050565b60006127c16032836132d3565b91507f4552433732313a207472616e7366657220746f206e6f6e20455243373231526560008301527f63656976657220696d706c656d656e74657200000000000000000000000000006020830152604082019050919050565b60006128276026836132d3565b91507f4f776e61626c653a206e6577206f776e657220697320746865207a65726f206160008301527f64647265737300000000000000000000000000000000000000000000000000006020830152604082019050919050565b600061288d601c836132d3565b91507f4552433732313a20746f6b656e20616c7265616479206d696e746564000000006000830152602082019050919050565b60006128cd6024836132d3565b91507f4552433732313a207472616e7366657220746f20746865207a65726f2061646460008301527f72657373000000000000000000000000000000000000000000000000000000006020830152604082019050919050565b60006129336019836132d3565b91507f4552433732313a20617070726f766520746f2063616c6c6572000000000000006000830152602082019050919050565b6000612973602c836132d3565b91507f4552433732313a206f70657261746f7220717565727920666f72206e6f6e657860008301527f697374656e7420746f6b656e00000000000000000000000000000000000000006020830152604082019050919050565b60006129d96038836132d3565b91507f4552433732313a20617070726f76652063616c6c6572206973206e6f74206f7760008301527f6e6572206e6f7220617070726f76656420666f7220616c6c00000000000000006020830152604082019050919050565b6000612a3f602a836132d3565b91507f4552433732313a2062616c616e636520717565727920666f7220746865207a6560008301527f726f2061646472657373000000000000000000000000000000000000000000006020830152604082019050919050565b6000612aa56029836132d3565b91507f4552433732313a206f776e657220717565727920666f72206e6f6e657869737460008301527f656e7420746f6b656e00000000000000000000000000000000000000000000006020830152604082019050919050565b6000612b0b602e836132d3565b91507f45524337323155524953746f726167653a2055524920736574206f66206e6f6e60008301527f6578697374656e7420746f6b656e0000000000000000000000000000000000006020830152604082019050919050565b6000612b716020836132d3565b91507f4552433732313a206d696e7420746f20746865207a65726f20616464726573736000830152602082019050919050565b6000612bb16031836132d3565b91507f45524337323155524953746f726167653a2055524920717565727920666f722060008301527f6e6f6e6578697374656e7420746f6b656e0000000000000000000000000000006020830152604082019050919050565b6000612c17602c836132d3565b91507f4552433732313a20617070726f76656420717565727920666f72206e6f6e657860008301527f697374656e7420746f6b656e00000000000000000000000000000000000000006020830152604082019050919050565b6000612c7d6020836132d3565b91507f4f776e61626c653a2063616c6c6572206973206e6f7420746865206f776e65726000830152602082019050919050565b6000612cbd6029836132d3565b91507f4552433732313a207472616e73666572206f6620746f6b656e2074686174206960008301527f73206e6f74206f776e00000000000000000000000000000000000000000000006020830152604082019050919050565b6000612d23602f836132d3565b91507f4552433732314d657461646174613a2055524920717565727920666f72206e6f60008301527f6e6578697374656e7420746f6b656e00000000000000000000000000000000006020830152604082019050919050565b6000612d896021836132d3565b91507f4552433732313a20617070726f76616c20746f2063757272656e74206f776e6560008301527f72000000000000000000000000000000000000000000000000000000000000006020830152604082019050919050565b6000612def6031836132d3565b91507f4552433732313a207472616e736665722063616c6c6572206973206e6f74206f60008301527f776e6572206e6f7220617070726f7665640000000000000000000000000000006020830152604082019050919050565b612e5181613414565b82525050565b612e6081613414565b82525050565b6000612e728284612743565b915081905092915050565b6000612e898285612743565b9150612e958284612743565b91508190509392505050565b6000602082019050612eb66000830184612655565b92915050565b6000608082019050612ed16000830187612655565b612ede6020830186612655565b612eeb6040830185612e57565b8181036060830152612efd81846126d1565b905095945050505050565b60006020820190508181036000830152612f228184612664565b905092915050565b6000602082019050612f3f60008301846126c2565b92915050565b60006020820190508181036000830152612f5f818461270a565b905092915050565b60006020820190508181036000830152612f8081612774565b9050919050565b60006020820190508181036000830152612fa0816127b4565b9050919050565b60006020820190508181036000830152612fc08161281a565b9050919050565b60006020820190508181036000830152612fe081612880565b9050919050565b60006020820190508181036000830152613000816128c0565b9050919050565b6000602082019050818103600083015261302081612926565b9050919050565b6000602082019050818103600083015261304081612966565b9050919050565b60006020820190508181036000830152613060816129cc565b9050919050565b6000602082019050818103600083015261308081612a32565b9050919050565b600060208201905081810360008301526130a081612a98565b9050919050565b600060208201905081810360008301526130c081612afe565b9050919050565b600060208201905081810360008301526130e081612b64565b9050919050565b6000602082019050818103600083015261310081612ba4565b9050919050565b6000602082019050818103600083015261312081612c0a565b9050919050565b6000602082019050818103600083015261314081612c70565b9050919050565b6000602082019050818103600083015261316081612cb0565b9050919050565b6000602082019050818103600083015261318081612d16565b9050919050565b600060208201905081810360008301526131a081612d7c565b9050919050565b600060208201905081810360008301526131c081612de2565b9050919050565b60006020820190506131dc6000830184612e57565b92915050565b6000604051905081810181811067ffffffffffffffff8211171561320957613208613599565b5b8060405250919050565b600067ffffffffffffffff82111561322e5761322d613599565b5b601f19601f8301169050602081019050919050565b600067ffffffffffffffff82111561325e5761325d613599565b5b601f19601f8301169050602081019050919050565b6000819050602082019050919050565b600081519050919050565b600081519050919050565b600081519050919050565b6000602082019050919050565b600082825260208201905092915050565b600082825260208201905092915050565b600082825260208201905092915050565b600081905092915050565b60006132fa82613414565b915061330583613414565b9250827fffffffffffffffffffffffffffffffffffffffffffffffffffffffffffffffff0382111561333a5761333961350c565b5b828201905092915050565b600061335082613414565b915061335b83613414565b92508261336b5761336a61353b565b5b828204905092915050565b600061338182613414565b915061338c83613414565b92508282101561339f5761339e61350c565b5b828203905092915050565b60006133b5826133f4565b9050919050565b60008115159050919050565b60007fffffffff0000000000000000000000000000000000000000000000000000000082169050919050565b600073ffffffffffffffffffffffffffffffffffffffff82169050919050565b6000819050919050565b82818337600083830152505050565b60005b8381101561344b578082015181840152602081019050613430565b8381111561345a576000848401525b50505050565b6000600282049050600182168061347857607f821691505b6020821081141561348c5761348b61356a565b5b50919050565b600061349d82613414565b91507fffffffffffffffffffffffffffffffffffffffffffffffffffffffffffffffff8214156134d0576134cf61350c565b5b600182019050919050565b60006134e682613414565b91506134f183613414565b9250826135015761350061353b565b5b828206905092915050565b7f4e487b7100000000000000000000000000000000000000000000000000000000600052601160045260246000fd5b7f4e487b7100000000000000000000000000000000000000000000000000000000600052601260045260246000fd5b7f4e487b7100000000000000000000000000000000000000000000000000000000600052602260045260246000fd5b7f4e487b7100000000000000000000000000000000000000000000000000000000600052604160045260246000fd5b6000601f19601f8301169050919050565b6135e2816133aa565b81146135ed57600080fd5b50565b6135f9816133bc565b811461360457600080fd5b50565b613610816133c8565b811461361b57600080fd5b50565b61362781613414565b811461363257600080fd5b5056fea26469706673582212208355b4a60491fd27ec9ca06b9f19f9c09ea4a8e15082d3130418cc19f04e5b7764736f6c63430008000033",
  "immutableReferences": {},
  "source": "// SPDX-License-Identifier: UNLICENSED\r\npragma solidity ^0.8.0;\r\n\r\nimport \"@openzeppelin/contracts/access/Ownable.sol\";\r\nimport \"@openzeppelin/contracts/token/ERC721/IERC721.sol\";\r\nimport \"@openzeppelin/contracts/token/ERC20/IERC20.sol\";\r\nimport \"@openzeppelin/contracts/utils/Address.sol\";\r\nimport \"@openzeppelin/contracts/token/ERC20/utils/SafeERC20.sol\";\r\nimport \"./Art.sol\";\r\n\r\ncontract MarketPlace is Ownable {\r\n    using SafeERC20 for IERC20;\r\n    struct Product {\r\n        uint256 tokenId;\r\n        uint256 price;\r\n        bool listing;\r\n        bool selling;\r\n        address creator;\r\n        uint256 rate;\r\n        uint256 timestamp;\r\n    }\r\n\r\n    struct Offer {\r\n        uint256 tokenId;\r\n        uint256 amount;\r\n        address token20;\r\n        address bargainer;\r\n        bool accepted;\r\n        uint256 timeout;\r\n    }\r\n\r\n    Art art;\r\n\r\n    address[] public sellers;\r\n    mapping(uint256 => Product) public tokenIdToProduct;\r\n    mapping(address => Product[]) public userToProduct; //creator anf their product\r\n\r\n    mapping(uint256 => Offer[]) public tokenIdToOffer;\r\n    // mapping(uint256 => address) public askToOwner721;\r\n\r\n    event Transfer(\r\n        uint256 indexed _tokenId,\r\n        address indexed _oldOwner,\r\n        address indexed _newOwner\r\n    );\r\n    event NewOffer(\r\n        uint256 indexed _tokenId,\r\n        uint256 _amount,\r\n        address _token20,\r\n        address indexed _bargainer,\r\n        uint256 _timeout\r\n    );\r\n    event ApproveOffer(\r\n        uint256 indexed _tokenId,\r\n        address indexed _oldOwner,\r\n        address indexed _newOwner,\r\n        uint256 _index\r\n    );\r\n\r\n    modifier onlyOwnerOfToken(uint256 _tokenId) {\r\n        require(art.ownerOf(_tokenId) == msg.sender);\r\n        _;\r\n    }\r\n\r\n    constructor() {\r\n        art = new Art();\r\n    }\r\n\r\n    function createNewProduct(string memory _hash, uint256 _price) public {\r\n        uint256 _tokenId = art.createNewNFT(msg.sender, _hash);\r\n        sellers.push(msg.sender);\r\n\r\n        Product memory product = Product(\r\n            _tokenId,\r\n            _price,\r\n            true,\r\n            true,\r\n            msg.sender,\r\n            0,\r\n            block.timestamp\r\n        );\r\n        userToProduct[msg.sender].push(product);\r\n        tokenIdToProduct[_tokenId] = product;\r\n        // art.approve(address(this), _tokenId);\r\n        emit Transfer(_tokenId, address(0), msg.sender);\r\n    } //goi kem approve\r\n\r\n    function setListOrNot(uint256 _tokenId) public onlyOwnerOfToken(_tokenId) {\r\n        Product storage product = tokenIdToProduct[_tokenId];\r\n        product.listing = !product.listing;\r\n    }\r\n\r\n    //neu tu false sang true thi phai goi kem approve\r\n    function setSellOrNot(uint256 _tokenId) public onlyOwnerOfToken(_tokenId) {\r\n        Product storage product = tokenIdToProduct[_tokenId];\r\n        product.selling = !product.selling;\r\n    }\r\n\r\n    function setPrice(uint256 _tokenId, uint256 _price)\r\n        public\r\n        onlyOwnerOfToken(_tokenId)\r\n    {\r\n        Product storage product = tokenIdToProduct[_tokenId];\r\n        product.price = _price;\r\n    }\r\n\r\n    function getProductListCreated(address _user)\r\n        public\r\n        view\r\n        returns (Product[] memory)\r\n    {\r\n        return userToProduct[_user];\r\n    }\r\n\r\n    //Phai approve truoc\r\n    function buy(uint256 _tokenId) public payable {\r\n        Product storage _product = tokenIdToProduct[_tokenId];\r\n        require(_product.selling);\r\n        require(art.getApproved(_tokenId) == address(this));\r\n        require(msg.value == _product.price);\r\n        require(msg.sender != art.ownerOf(_tokenId));\r\n\r\n        _product.selling = false;\r\n        art.setOwnerToTokenId(msg.sender, _tokenId);\r\n        address _owner = art.ownerOf(_tokenId);\r\n        art.safeTransferFrom(_owner, msg.sender, _tokenId);\r\n        Address.sendValue(payable(_owner), (msg.value * 98) / 100);\r\n\r\n        emit Transfer(_tokenId, _owner, msg.sender);\r\n    }\r\n\r\n    //lay ra danh sach cac san pham so huu\r\n    function getProducListOwnable(address _owner)\r\n        public\r\n        view\r\n        returns (Product[] memory)\r\n    {\r\n        uint256[] memory arr = art.getTokenList(_owner);\r\n        Product[] memory productList = new Product[](arr.length);\r\n        for (uint256 i = 0; i < arr.length; i++) {\r\n            productList[i] = tokenIdToProduct[arr[i]];\r\n        }\r\n        return productList;\r\n    }\r\n\r\n    //Phai goi kem approve token cho contractt nay\r\n    function offer(\r\n        uint256 _tokenId,\r\n        uint256 _amount,\r\n        address _token20,\r\n        uint256 _timeout\r\n    ) public {\r\n        require(art.ownerOf(_tokenId) != address(0));\r\n        require(_token20 != address(0));\r\n        require(\r\n            IERC20(_token20).allowance(msg.sender, address(this)) >= _amount\r\n        );\r\n        // IERC20(_token20).approve(address(this), _amount);\r\n\r\n        tokenIdToOffer[_tokenId].push(\r\n            Offer(\r\n                _tokenId,\r\n                _amount,\r\n                _token20,\r\n                msg.sender,\r\n                false,\r\n                block.timestamp + _timeout\r\n            )\r\n        );\r\n        emit NewOffer(\r\n            _tokenId,\r\n            _amount,\r\n            _token20,\r\n            msg.sender,\r\n            block.timestamp + _timeout\r\n        );\r\n    }\r\n\r\n    function getOffer(uint256 _tokenId, uint256 _index)\r\n        public\r\n        view\r\n        returns (Offer memory)\r\n    {\r\n        // require(art.ownerOf(_tokenId) == msg.sender);\r\n        require(_index <= tokenIdToOffer[_tokenId].length);\r\n        return tokenIdToOffer[_tokenId][_index];\r\n    }\r\n\r\n    //ch s hu da approve token721 hay chua\r\n    //manual => not guarantee\r\n    //automation => guarantee.....\r\n    function approveOffer(uint256 _tokenId, uint256 _index) public {\r\n        Product storage _product = tokenIdToProduct[_tokenId];\r\n        Offer memory _offer = getOffer(_tokenId, _index);\r\n\r\n        require(_product.selling);\r\n        require(art.getApproved(_tokenId) == address(this));\r\n        require(art.ownerOf(_tokenId) == msg.sender);\r\n        require(_index <= tokenIdToOffer[_tokenId].length);\r\n        require(block.timestamp <= _offer.timeout);\r\n\r\n        tokenIdToOffer[_tokenId][_index].accepted = true;\r\n        _product.selling = false;\r\n        art.setOwnerToTokenId(msg.sender, _tokenId);\r\n        address _owner = art.ownerOf(_tokenId);\r\n        art.safeTransferFrom(_owner, _offer.bargainer, _tokenId);\r\n        IERC20(_offer.token20).safeTransferFrom(\r\n            _offer.bargainer,\r\n            _owner,\r\n            (_offer.amount * 95) / 100\r\n        );\r\n\r\n        emit ApproveOffer(_tokenId, _owner, msg.sender, _index);\r\n    }\r\n}\r\n",
  "sourcePath": "E:\\MNM\\UIT-SE301.M11-BidDapp\\contracts\\MarketPlace.sol",
  "compiler": {
    "name": "solc",
    "version": "0.8.0+commit.c7dfd78e.Emscripten.clang"
  },
  "schemaVersion": "3.4.3",
  "updatedAt": "2021-10-30T15:40:06.567Z",
  "networkType": "ethereum",
  "devdoc": {
    "kind": "dev",
    "methods": {
      "owner()": {
        "details": "Returns the address of the current owner."
      },
      "renounceOwnership()": {
        "details": "Leaves the contract without owner. It will not be possible to call `onlyOwner` functions anymore. Can only be called by the current owner. NOTE: Renouncing ownership will leave the contract without an owner, thereby removing any functionality that is only available to the owner."
      },
      "transferOwnership(address)": {
        "details": "Transfers ownership of the contract to a new account (`newOwner`). Can only be called by the current owner."
      }
    },
    "version": 1
  },
  "userdoc": {
    "kind": "user",
    "methods": {},
    "version": 1
  }
}