{
  "contractName": "MarketPlace",
  "abi": [
    {
      "inputs": [
        {
          "internalType": "address",
          "name": "_artAddr",
          "type": "address"
        }
      ],
      "stateMutability": "nonpayable",
      "type": "constructor"
    },
    {
      "anonymous": false,
      "inputs": [
        {
          "indexed": true,
          "internalType": "uint256",
          "name": "_tokenId",
          "type": "uint256"
        },
        {
          "indexed": true,
          "internalType": "address",
          "name": "_oldOwner",
          "type": "address"
        },
        {
          "indexed": true,
          "internalType": "address",
          "name": "_newOwner",
          "type": "address"
        },
        {
          "indexed": false,
          "internalType": "uint256",
          "name": "_index",
          "type": "uint256"
        }
      ],
      "name": "ApproveOffer",
      "type": "event"
    },
    {
      "anonymous": false,
      "inputs": [
        {
          "indexed": true,
          "internalType": "uint256",
          "name": "_tokenId",
          "type": "uint256"
        },
        {
          "indexed": false,
          "internalType": "uint256",
          "name": "_amount",
          "type": "uint256"
        },
        {
          "indexed": false,
          "internalType": "address",
          "name": "_token20",
          "type": "address"
        },
        {
          "indexed": true,
          "internalType": "address",
          "name": "_bargainer",
          "type": "address"
        },
        {
          "indexed": false,
          "internalType": "uint256",
          "name": "_timeout",
          "type": "uint256"
        }
      ],
      "name": "NewOffer",
      "type": "event"
    },
    {
      "anonymous": false,
      "inputs": [
        {
          "indexed": true,
          "internalType": "address",
          "name": "previousOwner",
          "type": "address"
        },
        {
          "indexed": true,
          "internalType": "address",
          "name": "newOwner",
          "type": "address"
        }
      ],
      "name": "OwnershipTransferred",
      "type": "event"
    },
    {
      "anonymous": false,
      "inputs": [
        {
          "indexed": true,
          "internalType": "uint256",
          "name": "_tokenId",
          "type": "uint256"
        },
        {
          "indexed": true,
          "internalType": "address",
          "name": "_oldOwner",
          "type": "address"
        },
        {
          "indexed": true,
          "internalType": "address",
          "name": "_newOwner",
          "type": "address"
        }
      ],
      "name": "Transfer",
      "type": "event"
    },
    {
      "inputs": [
        {
          "internalType": "string",
          "name": "",
          "type": "string"
        }
      ],
      "name": "checkTransactionId",
      "outputs": [
        {
          "internalType": "bool",
          "name": "",
          "type": "bool"
        }
      ],
      "stateMutability": "view",
      "type": "function"
    },
    {
      "inputs": [
        {
          "internalType": "string",
          "name": "",
          "type": "string"
        }
      ],
      "name": "imageExisted",
      "outputs": [
        {
          "internalType": "bool",
          "name": "",
          "type": "bool"
        }
      ],
      "stateMutability": "view",
      "type": "function"
    },
    {
      "inputs": [],
      "name": "owner",
      "outputs": [
        {
          "internalType": "address",
          "name": "",
          "type": "address"
        }
      ],
      "stateMutability": "view",
      "type": "function"
    },
    {
      "inputs": [],
      "name": "renounceOwnership",
      "outputs": [],
      "stateMutability": "nonpayable",
      "type": "function"
    },
    {
      "inputs": [
        {
          "internalType": "uint256",
          "name": "",
          "type": "uint256"
        }
      ],
      "name": "sellers",
      "outputs": [
        {
          "internalType": "address",
          "name": "",
          "type": "address"
        }
      ],
      "stateMutability": "view",
      "type": "function"
    },
    {
      "inputs": [
        {
          "internalType": "uint256",
          "name": "",
          "type": "uint256"
        },
        {
          "internalType": "uint256",
          "name": "",
          "type": "uint256"
        }
      ],
      "name": "tokenIdToOffer",
      "outputs": [
        {
          "internalType": "uint256",
          "name": "tokenId",
          "type": "uint256"
        },
        {
          "internalType": "uint256",
          "name": "amount",
          "type": "uint256"
        },
        {
          "internalType": "address",
          "name": "token20",
          "type": "address"
        },
        {
          "internalType": "address",
          "name": "bargainer",
          "type": "address"
        },
        {
          "internalType": "bool",
          "name": "accepted",
          "type": "bool"
        },
        {
          "internalType": "uint256",
          "name": "timeout",
          "type": "uint256"
        }
      ],
      "stateMutability": "view",
      "type": "function"
    },
    {
      "inputs": [
        {
          "internalType": "uint256",
          "name": "",
          "type": "uint256"
        }
      ],
      "name": "tokenIdToProduct",
      "outputs": [
        {
          "internalType": "uint256",
          "name": "tokenId",
          "type": "uint256"
        },
        {
          "internalType": "uint256",
          "name": "price",
          "type": "uint256"
        },
        {
          "internalType": "bool",
          "name": "listing",
          "type": "bool"
        },
        {
          "internalType": "bool",
          "name": "selling",
          "type": "bool"
        },
        {
          "internalType": "address",
          "name": "creator",
          "type": "address"
        },
        {
          "internalType": "uint256",
          "name": "rate",
          "type": "uint256"
        },
        {
          "internalType": "uint256",
          "name": "timestamp",
          "type": "uint256"
        }
      ],
      "stateMutability": "view",
      "type": "function"
    },
    {
      "inputs": [
        {
          "internalType": "address",
          "name": "newOwner",
          "type": "address"
        }
      ],
      "name": "transferOwnership",
      "outputs": [],
      "stateMutability": "nonpayable",
      "type": "function"
    },
    {
      "inputs": [
        {
          "internalType": "address",
          "name": "",
          "type": "address"
        },
        {
          "internalType": "uint256",
          "name": "",
          "type": "uint256"
        }
      ],
      "name": "userToProduct",
      "outputs": [
        {
          "internalType": "uint256",
          "name": "tokenId",
          "type": "uint256"
        },
        {
          "internalType": "uint256",
          "name": "price",
          "type": "uint256"
        },
        {
          "internalType": "bool",
          "name": "listing",
          "type": "bool"
        },
        {
          "internalType": "bool",
          "name": "selling",
          "type": "bool"
        },
        {
          "internalType": "address",
          "name": "creator",
          "type": "address"
        },
        {
          "internalType": "uint256",
          "name": "rate",
          "type": "uint256"
        },
        {
          "internalType": "uint256",
          "name": "timestamp",
          "type": "uint256"
        }
      ],
      "stateMutability": "view",
      "type": "function"
    },
    {
      "inputs": [
        {
          "internalType": "string",
          "name": "_hashInfo",
          "type": "string"
        },
        {
          "internalType": "string",
          "name": "_hashImg",
          "type": "string"
        },
        {
          "internalType": "uint256",
          "name": "_price",
          "type": "uint256"
        }
      ],
      "name": "createNewProduct",
      "outputs": [],
      "stateMutability": "nonpayable",
      "type": "function"
    },
    {
      "inputs": [
        {
          "internalType": "uint256",
          "name": "_tokenId",
          "type": "uint256"
        }
      ],
      "name": "setListOrNot",
      "outputs": [],
      "stateMutability": "nonpayable",
      "type": "function"
    },
    {
      "inputs": [
        {
          "internalType": "uint256",
          "name": "_tokenId",
          "type": "uint256"
        }
      ],
      "name": "setSellOrNot",
      "outputs": [],
      "stateMutability": "nonpayable",
      "type": "function"
    },
    {
      "inputs": [
        {
          "internalType": "uint256",
          "name": "_tokenId",
          "type": "uint256"
        },
        {
          "internalType": "uint256",
          "name": "_price",
          "type": "uint256"
        }
      ],
      "name": "setPrice",
      "outputs": [],
      "stateMutability": "nonpayable",
      "type": "function"
    },
    {
      "inputs": [
        {
          "internalType": "address",
          "name": "_user",
          "type": "address"
        }
      ],
      "name": "getProductListCreated",
      "outputs": [
        {
          "components": [
            {
              "internalType": "uint256",
              "name": "tokenId",
              "type": "uint256"
            },
            {
              "internalType": "uint256",
              "name": "price",
              "type": "uint256"
            },
            {
              "internalType": "bool",
              "name": "listing",
              "type": "bool"
            },
            {
              "internalType": "bool",
              "name": "selling",
              "type": "bool"
            },
            {
              "internalType": "address",
              "name": "creator",
              "type": "address"
            },
            {
              "internalType": "uint256",
              "name": "rate",
              "type": "uint256"
            },
            {
              "internalType": "uint256",
              "name": "timestamp",
              "type": "uint256"
            }
          ],
          "internalType": "struct MarketPlace.Product[]",
          "name": "",
          "type": "tuple[]"
        }
      ],
      "stateMutability": "view",
      "type": "function"
    },
    {
      "inputs": [
        {
          "internalType": "uint256",
          "name": "_tokenId",
          "type": "uint256"
        }
      ],
      "name": "buyWithETH",
      "outputs": [],
      "stateMutability": "payable",
      "type": "function"
    },
    {
      "inputs": [
        {
          "internalType": "uint256",
          "name": "_tokenId",
          "type": "uint256"
        },
        {
          "internalType": "string",
          "name": "traransactionId",
          "type": "string"
        }
      ],
      "name": "buyWithCurrency",
      "outputs": [],
      "stateMutability": "nonpayable",
      "type": "function"
    },
    {
      "inputs": [
        {
          "internalType": "address",
          "name": "_owner",
          "type": "address"
        }
      ],
      "name": "getProducListOwnable",
      "outputs": [
        {
          "components": [
            {
              "internalType": "uint256",
              "name": "tokenId",
              "type": "uint256"
            },
            {
              "internalType": "uint256",
              "name": "price",
              "type": "uint256"
            },
            {
              "internalType": "bool",
              "name": "listing",
              "type": "bool"
            },
            {
              "internalType": "bool",
              "name": "selling",
              "type": "bool"
            },
            {
              "internalType": "address",
              "name": "creator",
              "type": "address"
            },
            {
              "internalType": "uint256",
              "name": "rate",
              "type": "uint256"
            },
            {
              "internalType": "uint256",
              "name": "timestamp",
              "type": "uint256"
            }
          ],
          "internalType": "struct MarketPlace.Product[]",
          "name": "",
          "type": "tuple[]"
        }
      ],
      "stateMutability": "view",
      "type": "function"
    },
    {
      "inputs": [
        {
          "internalType": "uint256",
          "name": "_tokenId",
          "type": "uint256"
        },
        {
          "internalType": "uint256",
          "name": "_amount",
          "type": "uint256"
        },
        {
          "internalType": "address",
          "name": "_token20",
          "type": "address"
        },
        {
          "internalType": "uint256",
          "name": "_timeout",
          "type": "uint256"
        }
      ],
      "name": "offer",
      "outputs": [],
      "stateMutability": "nonpayable",
      "type": "function"
    },
    {
      "inputs": [
        {
          "internalType": "uint256",
          "name": "_tokenId",
          "type": "uint256"
        },
        {
          "internalType": "uint256",
          "name": "_index",
          "type": "uint256"
        },
        {
          "internalType": "uint256",
          "name": "_timeout",
          "type": "uint256"
        }
      ],
      "name": "restartOffer",
      "outputs": [],
      "stateMutability": "nonpayable",
      "type": "function"
    },
    {
      "inputs": [
        {
          "internalType": "uint256",
          "name": "_tokenId",
          "type": "uint256"
        },
        {
          "internalType": "uint256",
          "name": "_index",
          "type": "uint256"
        }
      ],
      "name": "getOffer",
      "outputs": [
        {
          "components": [
            {
              "internalType": "uint256",
              "name": "tokenId",
              "type": "uint256"
            },
            {
              "internalType": "uint256",
              "name": "amount",
              "type": "uint256"
            },
            {
              "internalType": "address",
              "name": "token20",
              "type": "address"
            },
            {
              "internalType": "address",
              "name": "bargainer",
              "type": "address"
            },
            {
              "internalType": "bool",
              "name": "accepted",
              "type": "bool"
            },
            {
              "internalType": "uint256",
              "name": "timeout",
              "type": "uint256"
            }
          ],
          "internalType": "struct MarketPlace.Offer",
          "name": "",
          "type": "tuple"
        }
      ],
      "stateMutability": "view",
      "type": "function"
    },
    {
      "inputs": [
        {
          "internalType": "uint256",
          "name": "_tokenId",
          "type": "uint256"
        },
        {
          "internalType": "uint256",
          "name": "_index",
          "type": "uint256"
        }
      ],
      "name": "approveOffer",
      "outputs": [],
      "stateMutability": "nonpayable",
      "type": "function"
    }
  ],
  "bytecode": "0x60806040523480156200001157600080fd5b50604051620042eb380380620042eb833981810160405281019062000037919062000182565b620000576200004b6200009f60201b60201c565b620000a760201b60201c565b80600160006101000a81548173ffffffffffffffffffffffffffffffffffffffff021916908373ffffffffffffffffffffffffffffffffffffffff16021790555050620001fc565b600033905090565b60008060009054906101000a900473ffffffffffffffffffffffffffffffffffffffff169050816000806101000a81548173ffffffffffffffffffffffffffffffffffffffff021916908373ffffffffffffffffffffffffffffffffffffffff1602179055508173ffffffffffffffffffffffffffffffffffffffff168173ffffffffffffffffffffffffffffffffffffffff167f8be0079c531659141344cd1fd0a4f28419497f9722a3daafe3b4186f6b6457e060405160405180910390a35050565b6000815190506200017c81620001e2565b92915050565b6000602082840312156200019557600080fd5b6000620001a5848285016200016b565b91505092915050565b6000620001bb82620001c2565b9050919050565b600073ffffffffffffffffffffffffffffffffffffffff82169050919050565b620001ed81620001ae565b8114620001f957600080fd5b50565b6140df806200020c6000396000f3fe60806040526004361061012a5760003560e01c8063a2bd1c41116100ab578063cee26ed51161006f578063cee26ed514610402578063f16f37301461043f578063f2fde38b14610468578063f7d9757714610491578063fd7acfe7146104ba578063fdfe7485146104f75761012a565b8063a2bd1c41146102ed578063acb1ba6714610330578063b6f949c314610359578063b9b8245c1461039c578063c7ea1e8b146103c55761012a565b8063688ec404116100f2578063688ec4041461023d578063715018a6146102665780638a1959121461027d5780638da5cb5b146102a657806394dc9cf3146102d15761012a565b80632509907c1461012f5780633cd0cd671461016c5780635e7524e7146101a9578063656ea7d2146101d257806366a65af1146101fb575b600080fd5b34801561013b57600080fd5b50610156600480360381019061015191906131e2565b610534565b6040516101639190613a95565b60405180910390f35b34801561017857600080fd5b50610193600480360381019061018e9190613348565b61056a565b6040516101a09190613bd2565b60405180910390f35b3480156101b557600080fd5b506101d060048036038101906101cb91906132f4565b6106e6565b005b3480156101de57600080fd5b506101f960048036038101906101f491906132a2565b610b97565b005b34801561020757600080fd5b50610222600480360381019061021d9190613348565b610cc4565b60405161023496959493929190613c3f565b60405180910390f35b34801561024957600080fd5b50610264600480360381019061025f91906133e7565b610d6a565b005b34801561027257600080fd5b5061027b610ef8565b005b34801561028957600080fd5b506102a4600480360381019061029f91906132a2565b610f80565b005b3480156102b257600080fd5b506102bb6110ad565b6040516102c8919061399f565b60405180910390f35b6102eb60048036038101906102e691906132a2565b6110d6565b005b3480156102f957600080fd5b50610314600480360381019061030f919061313c565b61154b565b6040516103279796959493929190613ca0565b60405180910390f35b34801561033c57600080fd5b5061035760048036038101906103529190613384565b6115e4565b005b34801561036557600080fd5b50610380600480360381019061037b91906132a2565b61196e565b6040516103939796959493929190613ca0565b60405180910390f35b3480156103a857600080fd5b506103c360048036038101906103be9190613223565b6119ea565b005b3480156103d157600080fd5b506103ec60048036038101906103e791906130ea565b611e3a565b6040516103f99190613a73565b60405180910390f35b34801561040e57600080fd5b50610429600480360381019061042491906132a2565b6120ef565b604051610436919061399f565b60405180910390f35b34801561044b57600080fd5b5061046660048036038101906104619190613348565b61212e565b005b34801561047457600080fd5b5061048f600480360381019061048a91906130ea565b612689565b005b34801561049d57600080fd5b506104b860048036038101906104b39190613348565b612781565b005b3480156104c657600080fd5b506104e160048036038101906104dc91906131e2565b61288a565b6040516104ee9190613a95565b60405180910390f35b34801561050357600080fd5b5061051e600480360381019061051991906130ea565b6128c0565b60405161052b9190613a73565b60405180910390f35b6006818051602081018201805184825260208301602085012081835280955050505050506000915054906101000a900460ff1681565b610572612ec8565b600560008481526020019081526020016000208054905082111561059557600080fd5b6005600084815260200190815260200160002082815481106105e0577f4e487b7100000000000000000000000000000000000000000000000000000000600052603260045260246000fd5b90600052602060002090600502016040518060c001604052908160008201548152602001600182015481526020016002820160009054906101000a900473ffffffffffffffffffffffffffffffffffffffff1673ffffffffffffffffffffffffffffffffffffffff1673ffffffffffffffffffffffffffffffffffffffff1681526020016003820160009054906101000a900473ffffffffffffffffffffffffffffffffffffffff1673ffffffffffffffffffffffffffffffffffffffff1673ffffffffffffffffffffffffffffffffffffffff1681526020016003820160149054906101000a900460ff16151515158152602001600482015481525050905092915050565b60006003600084815260200190815260200160002090508060020160019054906101000a900460ff1661071857600080fd5b3073ffffffffffffffffffffffffffffffffffffffff16600160009054906101000a900473ffffffffffffffffffffffffffffffffffffffff1673ffffffffffffffffffffffffffffffffffffffff1663081812fc856040518263ffffffff1660e01b815260040161078a9190613bed565b60206040518083038186803b1580156107a257600080fd5b505afa1580156107b6573d6000803e3d6000fd5b505050506040513d601f19601f820116820180604052508101906107da9190613113565b73ffffffffffffffffffffffffffffffffffffffff16146107fa57600080fd5b600160009054906101000a900473ffffffffffffffffffffffffffffffffffffffff1673ffffffffffffffffffffffffffffffffffffffff16636352211e846040518263ffffffff1660e01b81526004016108559190613bed565b60206040518083038186803b15801561086d57600080fd5b505afa158015610881573d6000803e3d6000fd5b505050506040513d601f19601f820116820180604052508101906108a59190613113565b73ffffffffffffffffffffffffffffffffffffffff163373ffffffffffffffffffffffffffffffffffffffff1614156108dd57600080fd5b6006826040516108ed9190613973565b908152602001604051809103902060009054906101000a900460ff161561091357600080fd5b60016006836040516109259190613973565b908152602001604051809103902060006101000a81548160ff02191690831515021790555060008160020160016101000a81548160ff021916908315150217905550600160009054906101000a900473ffffffffffffffffffffffffffffffffffffffff1673ffffffffffffffffffffffffffffffffffffffff1663d78dd96b33856040518363ffffffff1660e01b81526004016109c4929190613a4a565b600060405180830381600087803b1580156109de57600080fd5b505af11580156109f2573d6000803e3d6000fd5b505050506000600160009054906101000a900473ffffffffffffffffffffffffffffffffffffffff1673ffffffffffffffffffffffffffffffffffffffff16636352211e856040518263ffffffff1660e01b8152600401610a539190613bed565b60206040518083038186803b158015610a6b57600080fd5b505afa158015610a7f573d6000803e3d6000fd5b505050506040513d601f19601f82011682018060405250810190610aa39190613113565b9050600160009054906101000a900473ffffffffffffffffffffffffffffffffffffffff1673ffffffffffffffffffffffffffffffffffffffff166342842e0e8233876040518463ffffffff1660e01b8152600401610b04939291906139e3565b600060405180830381600087803b158015610b1e57600080fd5b505af1158015610b32573d6000803e3d6000fd5b505050503373ffffffffffffffffffffffffffffffffffffffff168173ffffffffffffffffffffffffffffffffffffffff16857f0a429aba3d89849a2db0153e4534d95c46a1d83c8109d73893f55ebc44010ff460405160405180910390a450505050565b803373ffffffffffffffffffffffffffffffffffffffff16600160009054906101000a900473ffffffffffffffffffffffffffffffffffffffff1673ffffffffffffffffffffffffffffffffffffffff16636352211e836040518263ffffffff1660e01b8152600401610c0a9190613bed565b60206040518083038186803b158015610c2257600080fd5b505afa158015610c36573d6000803e3d6000fd5b505050506040513d601f19601f82011682018060405250810190610c5a9190613113565b73ffffffffffffffffffffffffffffffffffffffff1614610c7a57600080fd5b60006003600084815260200190815260200160002090508060020160009054906101000a900460ff16158160020160006101000a81548160ff021916908315150217905550505050565b60056020528160005260406000208181548110610ce057600080fd5b9060005260206000209060050201600091509150508060000154908060010154908060020160009054906101000a900473ffffffffffffffffffffffffffffffffffffffff16908060030160009054906101000a900473ffffffffffffffffffffffffffffffffffffffff16908060030160149054906101000a900460ff16908060040154905086565b3373ffffffffffffffffffffffffffffffffffffffff16600560008581526020019081526020016000208381548110610dcc577f4e487b7100000000000000000000000000000000000000000000000000000000600052603260045260246000fd5b906000526020600020906005020160030160009054906101000a900473ffffffffffffffffffffffffffffffffffffffff1673ffffffffffffffffffffffffffffffffffffffff1614610e1e57600080fd5b42600560008581526020019081526020016000208381548110610e6a577f4e487b7100000000000000000000000000000000000000000000000000000000600052603260045260246000fd5b90600052602060002090600502016004015410610e8657600080fd5b428111610e9257600080fd5b80600560008581526020019081526020016000208381548110610ede577f4e487b7100000000000000000000000000000000000000000000000000000000600052603260045260246000fd5b906000526020600020906005020160040181905550505050565b610f00612a12565b73ffffffffffffffffffffffffffffffffffffffff16610f1e6110ad565b73ffffffffffffffffffffffffffffffffffffffff1614610f74576040517f08c379a0000000000000000000000000000000000000000000000000000000008152600401610f6b90613b52565b60405180910390fd5b610f7e6000612a1a565b565b803373ffffffffffffffffffffffffffffffffffffffff16600160009054906101000a900473ffffffffffffffffffffffffffffffffffffffff1673ffffffffffffffffffffffffffffffffffffffff16636352211e836040518263ffffffff1660e01b8152600401610ff39190613bed565b60206040518083038186803b15801561100b57600080fd5b505afa15801561101f573d6000803e3d6000fd5b505050506040513d601f19601f820116820180604052508101906110439190613113565b73ffffffffffffffffffffffffffffffffffffffff161461106357600080fd5b60006003600084815260200190815260200160002090508060020160019054906101000a900460ff16158160020160016101000a81548160ff021916908315150217905550505050565b60008060009054906101000a900473ffffffffffffffffffffffffffffffffffffffff16905090565b60006003600083815260200190815260200160002090508060020160019054906101000a900460ff1661110857600080fd5b3073ffffffffffffffffffffffffffffffffffffffff16600160009054906101000a900473ffffffffffffffffffffffffffffffffffffffff1673ffffffffffffffffffffffffffffffffffffffff1663081812fc846040518263ffffffff1660e01b815260040161117a9190613bed565b60206040518083038186803b15801561119257600080fd5b505afa1580156111a6573d6000803e3d6000fd5b505050506040513d601f19601f820116820180604052508101906111ca9190613113565b73ffffffffffffffffffffffffffffffffffffffff16146111ea57600080fd5b806001015434146111fa57600080fd5b600160009054906101000a900473ffffffffffffffffffffffffffffffffffffffff1673ffffffffffffffffffffffffffffffffffffffff16636352211e836040518263ffffffff1660e01b81526004016112559190613bed565b60206040518083038186803b15801561126d57600080fd5b505afa158015611281573d6000803e3d6000fd5b505050506040513d601f19601f820116820180604052508101906112a59190613113565b73ffffffffffffffffffffffffffffffffffffffff163373ffffffffffffffffffffffffffffffffffffffff1614156112dd57600080fd5b60008160020160016101000a81548160ff021916908315150217905550600160009054906101000a900473ffffffffffffffffffffffffffffffffffffffff1673ffffffffffffffffffffffffffffffffffffffff1663d78dd96b33846040518363ffffffff1660e01b8152600401611357929190613a4a565b600060405180830381600087803b15801561137157600080fd5b505af1158015611385573d6000803e3d6000fd5b505050506000600160009054906101000a900473ffffffffffffffffffffffffffffffffffffffff1673ffffffffffffffffffffffffffffffffffffffff16636352211e846040518263ffffffff1660e01b81526004016113e69190613bed565b60206040518083038186803b1580156113fe57600080fd5b505afa158015611412573d6000803e3d6000fd5b505050506040513d601f19601f820116820180604052508101906114369190613113565b9050600160009054906101000a900473ffffffffffffffffffffffffffffffffffffffff1673ffffffffffffffffffffffffffffffffffffffff166342842e0e8233866040518463ffffffff1660e01b8152600401611497939291906139e3565b600060405180830381600087803b1580156114b157600080fd5b505af11580156114c5573d6000803e3d6000fd5b505050506114eb8160646062346114dc9190613e99565b6114e69190613e68565b612ade565b3373ffffffffffffffffffffffffffffffffffffffff168173ffffffffffffffffffffffffffffffffffffffff16847f0a429aba3d89849a2db0153e4534d95c46a1d83c8109d73893f55ebc44010ff460405160405180910390a4505050565b6004602052816000526040600020818154811061156757600080fd5b9060005260206000209060050201600091509150508060000154908060010154908060020160009054906101000a900460ff16908060020160019054906101000a900460ff16908060020160029054906101000a900473ffffffffffffffffffffffffffffffffffffffff16908060030154908060040154905087565b600073ffffffffffffffffffffffffffffffffffffffff16600160009054906101000a900473ffffffffffffffffffffffffffffffffffffffff1673ffffffffffffffffffffffffffffffffffffffff16636352211e866040518263ffffffff1660e01b81526004016116579190613bed565b60206040518083038186803b15801561166f57600080fd5b505afa158015611683573d6000803e3d6000fd5b505050506040513d601f19601f820116820180604052508101906116a79190613113565b73ffffffffffffffffffffffffffffffffffffffff1614156116c857600080fd5b600073ffffffffffffffffffffffffffffffffffffffff168273ffffffffffffffffffffffffffffffffffffffff16141561170257600080fd5b828273ffffffffffffffffffffffffffffffffffffffff1663dd62ed3e33306040518363ffffffff1660e01b815260040161173e9291906139ba565b60206040518083038186803b15801561175657600080fd5b505afa15801561176a573d6000803e3d6000fd5b505050506040513d601f19601f8201168201806040525081019061178e91906132cb565b101561179957600080fd5b600560008581526020019081526020016000206040518060c001604052808681526020018581526020018473ffffffffffffffffffffffffffffffffffffffff1681526020013373ffffffffffffffffffffffffffffffffffffffff16815260200160001515815260200183426118109190613e12565b8152509080600181540180825580915050600190039060005260206000209060050201600090919091909150600082015181600001556020820151816001015560408201518160020160006101000a81548173ffffffffffffffffffffffffffffffffffffffff021916908373ffffffffffffffffffffffffffffffffffffffff16021790555060608201518160030160006101000a81548173ffffffffffffffffffffffffffffffffffffffff021916908373ffffffffffffffffffffffffffffffffffffffff16021790555060808201518160030160146101000a81548160ff02191690831515021790555060a0820151816004015550503373ffffffffffffffffffffffffffffffffffffffff16847f8b4d06c200b17b9c1150172953ceb6fa3e7ace7623f6f933707badfa52c354cf858585426119519190613e12565b60405161196093929190613c08565b60405180910390a350505050565b60036020528060005260406000206000915090508060000154908060010154908060020160009054906101000a900460ff16908060020160019054906101000a900460ff16908060020160029054906101000a900473ffffffffffffffffffffffffffffffffffffffff16908060030154908060040154905087565b6007826040516119fa9190613973565b908152602001604051809103902060009054906101000a900460ff1615611a56576040517f08c379a0000000000000000000000000000000000000000000000000000000008152600401611a4d90613bb2565b60405180910390fd5b6000600160009054906101000a900473ffffffffffffffffffffffffffffffffffffffff1673ffffffffffffffffffffffffffffffffffffffff16637cf87f9d33866040518363ffffffff1660e01b8152600401611ab5929190613a1a565b602060405180830381600087803b158015611acf57600080fd5b505af1158015611ae3573d6000803e3d6000fd5b505050506040513d601f19601f82011682018060405250810190611b0791906132cb565b90506002339080600181540180825580915050600190039060005260206000200160009091909190916101000a81548173ffffffffffffffffffffffffffffffffffffffff021916908373ffffffffffffffffffffffffffffffffffffffff1602179055506001600784604051611b7e9190613973565b908152602001604051809103902060006101000a81548160ff02191690831515021790555060006040518060e001604052808381526020018481526020016001151581526020016001151581526020013373ffffffffffffffffffffffffffffffffffffffff16815260200160008152602001428152509050600460003373ffffffffffffffffffffffffffffffffffffffff1673ffffffffffffffffffffffffffffffffffffffff168152602001908152602001600020819080600181540180825580915050600190039060005260206000209060050201600090919091909150600082015181600001556020820151816001015560408201518160020160006101000a81548160ff02191690831515021790555060608201518160020160016101000a81548160ff02191690831515021790555060808201518160020160026101000a81548173ffffffffffffffffffffffffffffffffffffffff021916908373ffffffffffffffffffffffffffffffffffffffff16021790555060a0820151816003015560c0820151816004015550508060036000848152602001908152602001600020600082015181600001556020820151816001015560408201518160020160006101000a81548160ff02191690831515021790555060608201518160020160016101000a81548160ff02191690831515021790555060808201518160020160026101000a81548173ffffffffffffffffffffffffffffffffffffffff021916908373ffffffffffffffffffffffffffffffffffffffff16021790555060a0820151816003015560c082015181600401559050503373ffffffffffffffffffffffffffffffffffffffff16600073ffffffffffffffffffffffffffffffffffffffff16837f0a429aba3d89849a2db0153e4534d95c46a1d83c8109d73893f55ebc44010ff460405160405180910390a45050505050565b60606000600160009054906101000a900473ffffffffffffffffffffffffffffffffffffffff1673ffffffffffffffffffffffffffffffffffffffff1663d8a30732846040518263ffffffff1660e01b8152600401611e99919061399f565b60006040518083038186803b158015611eb157600080fd5b505afa158015611ec5573d6000803e3d6000fd5b505050506040513d6000823e3d601f19601f82011682018060405250810190611eee9190613178565b90506000815167ffffffffffffffff811115611f33577f4e487b7100000000000000000000000000000000000000000000000000000000600052604160045260246000fd5b604051908082528060200260200182016040528015611f6c57816020015b611f59612f2c565b815260200190600190039081611f515790505b50905060005b82518110156120e45760036000848381518110611fb8577f4e487b7100000000000000000000000000000000000000000000000000000000600052603260045260246000fd5b602002602001015181526020019081526020016000206040518060e001604052908160008201548152602001600182015481526020016002820160009054906101000a900460ff161515151581526020016002820160019054906101000a900460ff161515151581526020016002820160029054906101000a900473ffffffffffffffffffffffffffffffffffffffff1673ffffffffffffffffffffffffffffffffffffffff1673ffffffffffffffffffffffffffffffffffffffff168152602001600382015481526020016004820154815250508282815181106120c6577f4e487b7100000000000000000000000000000000000000000000000000000000600052603260045260246000fd5b602002602001018190525080806120dc90613f7d565b915050611f72565b508092505050919050565b600281815481106120ff57600080fd5b906000526020600020016000915054906101000a900473ffffffffffffffffffffffffffffffffffffffff1681565b60006003600084815260200190815260200160002090506000612151848461056a565b90508160020160019054906101000a900460ff1661216e57600080fd5b3073ffffffffffffffffffffffffffffffffffffffff16600160009054906101000a900473ffffffffffffffffffffffffffffffffffffffff1673ffffffffffffffffffffffffffffffffffffffff1663081812fc866040518263ffffffff1660e01b81526004016121e09190613bed565b60206040518083038186803b1580156121f857600080fd5b505afa15801561220c573d6000803e3d6000fd5b505050506040513d601f19601f820116820180604052508101906122309190613113565b73ffffffffffffffffffffffffffffffffffffffff161461225057600080fd5b3373ffffffffffffffffffffffffffffffffffffffff16600160009054906101000a900473ffffffffffffffffffffffffffffffffffffffff1673ffffffffffffffffffffffffffffffffffffffff16636352211e866040518263ffffffff1660e01b81526004016122c29190613bed565b60206040518083038186803b1580156122da57600080fd5b505afa1580156122ee573d6000803e3d6000fd5b505050506040513d601f19601f820116820180604052508101906123129190613113565b73ffffffffffffffffffffffffffffffffffffffff161461233257600080fd5b600560008581526020019081526020016000208054905083111561235557600080fd5b8060a0015142111561236657600080fd5b60016005600086815260200190815260200160002084815481106123b3577f4e487b7100000000000000000000000000000000000000000000000000000000600052603260045260246000fd5b906000526020600020906005020160030160146101000a81548160ff02191690831515021790555060008260020160016101000a81548160ff021916908315150217905550600160009054906101000a900473ffffffffffffffffffffffffffffffffffffffff1673ffffffffffffffffffffffffffffffffffffffff1663d78dd96b33866040518363ffffffff1660e01b8152600401612455929190613a4a565b600060405180830381600087803b15801561246f57600080fd5b505af1158015612483573d6000803e3d6000fd5b505050506000600160009054906101000a900473ffffffffffffffffffffffffffffffffffffffff1673ffffffffffffffffffffffffffffffffffffffff16636352211e866040518263ffffffff1660e01b81526004016124e49190613bed565b60206040518083038186803b1580156124fc57600080fd5b505afa158015612510573d6000803e3d6000fd5b505050506040513d601f19601f820116820180604052508101906125349190613113565b9050600160009054906101000a900473ffffffffffffffffffffffffffffffffffffffff1673ffffffffffffffffffffffffffffffffffffffff166342842e0e828460600151886040518463ffffffff1660e01b8152600401612599939291906139e3565b600060405180830381600087803b1580156125b357600080fd5b505af11580156125c7573d6000803e3d6000fd5b5050505061261c8260600151826064605f86602001516125e79190613e99565b6125f19190613e68565b856040015173ffffffffffffffffffffffffffffffffffffffff16612bd2909392919063ffffffff16565b3373ffffffffffffffffffffffffffffffffffffffff168173ffffffffffffffffffffffffffffffffffffffff16867f4ec4ba0f51972e72b52d0a288922dc59ab70adba5344f6e3e645b995e701a9448760405161267a9190613bed565b60405180910390a45050505050565b612691612a12565b73ffffffffffffffffffffffffffffffffffffffff166126af6110ad565b73ffffffffffffffffffffffffffffffffffffffff1614612705576040517f08c379a00000000000000000000000000000000000000000000000000000000081526004016126fc90613b52565b60405180910390fd5b600073ffffffffffffffffffffffffffffffffffffffff168173ffffffffffffffffffffffffffffffffffffffff161415612775576040517f08c379a000000000000000000000000000000000000000000000000000000000815260040161276c90613ad2565b60405180910390fd5b61277e81612a1a565b50565b813373ffffffffffffffffffffffffffffffffffffffff16600160009054906101000a900473ffffffffffffffffffffffffffffffffffffffff1673ffffffffffffffffffffffffffffffffffffffff16636352211e836040518263ffffffff1660e01b81526004016127f49190613bed565b60206040518083038186803b15801561280c57600080fd5b505afa158015612820573d6000803e3d6000fd5b505050506040513d601f19601f820116820180604052508101906128449190613113565b73ffffffffffffffffffffffffffffffffffffffff161461286457600080fd5b600060036000858152602001908152602001600020905082816001018190555050505050565b6007818051602081018201805184825260208301602085012081835280955050505050506000915054906101000a900460ff1681565b6060600460008373ffffffffffffffffffffffffffffffffffffffff1673ffffffffffffffffffffffffffffffffffffffff168152602001908152602001600020805480602002602001604051908101604052809291908181526020016000905b82821015612a0757838290600052602060002090600502016040518060e001604052908160008201548152602001600182015481526020016002820160009054906101000a900460ff161515151581526020016002820160019054906101000a900460ff161515151581526020016002820160029054906101000a900473ffffffffffffffffffffffffffffffffffffffff1673ffffffffffffffffffffffffffffffffffffffff1673ffffffffffffffffffffffffffffffffffffffff1681526020016003820154815260200160048201548152505081526020019060010190612921565b505050509050919050565b600033905090565b60008060009054906101000a900473ffffffffffffffffffffffffffffffffffffffff169050816000806101000a81548173ffffffffffffffffffffffffffffffffffffffff021916908373ffffffffffffffffffffffffffffffffffffffff1602179055508173ffffffffffffffffffffffffffffffffffffffff168173ffffffffffffffffffffffffffffffffffffffff167f8be0079c531659141344cd1fd0a4f28419497f9722a3daafe3b4186f6b6457e060405160405180910390a35050565b80471015612b21576040517f08c379a0000000000000000000000000000000000000000000000000000000008152600401612b1890613b12565b60405180910390fd5b60008273ffffffffffffffffffffffffffffffffffffffff1682604051612b479061398a565b60006040518083038185875af1925050503d8060008114612b84576040519150601f19603f3d011682016040523d82523d6000602084013e612b89565b606091505b5050905080612bcd576040517f08c379a0000000000000000000000000000000000000000000000000000000008152600401612bc490613af2565b60405180910390fd5b505050565b612c55846323b872dd60e01b858585604051602401612bf3939291906139e3565b604051602081830303815290604052907bffffffffffffffffffffffffffffffffffffffffffffffffffffffff19166020820180517bffffffffffffffffffffffffffffffffffffffffffffffffffffffff8381831617835250505050612c5b565b50505050565b6000612cbd826040518060400160405280602081526020017f5361666545524332303a206c6f772d6c6576656c2063616c6c206661696c65648152508573ffffffffffffffffffffffffffffffffffffffff16612d229092919063ffffffff16565b9050600081511115612d1d5780806020019051810190612cdd91906131b9565b612d1c576040517f08c379a0000000000000000000000000000000000000000000000000000000008152600401612d1390613b92565b60405180910390fd5b5b505050565b6060612d318484600085612d3a565b90509392505050565b606082471015612d7f576040517f08c379a0000000000000000000000000000000000000000000000000000000008152600401612d7690613b32565b60405180910390fd5b612d8885612e4e565b612dc7576040517f08c379a0000000000000000000000000000000000000000000000000000000008152600401612dbe90613b72565b60405180910390fd5b6000808673ffffffffffffffffffffffffffffffffffffffff168587604051612df0919061395c565b60006040518083038185875af1925050503d8060008114612e2d576040519150601f19603f3d011682016040523d82523d6000602084013e612e32565b606091505b5091509150612e42828286612e61565b92505050949350505050565b600080823b905060008111915050919050565b60608315612e7157829050612ec1565b600083511115612e845782518084602001fd5b816040517f08c379a0000000000000000000000000000000000000000000000000000000008152600401612eb89190613ab0565b60405180910390fd5b9392505050565b6040518060c001604052806000815260200160008152602001600073ffffffffffffffffffffffffffffffffffffffff168152602001600073ffffffffffffffffffffffffffffffffffffffff168152602001600015158152602001600081525090565b6040518060e001604052806000815260200160008152602001600015158152602001600015158152602001600073ffffffffffffffffffffffffffffffffffffffff16815260200160008152602001600081525090565b6000612f96612f9184613d40565b613d0f565b90508083825260208201905082856020860282011115612fb557600080fd5b60005b85811015612fe55781612fcb88826130d5565b845260208401935060208301925050600181019050612fb8565b5050509392505050565b6000613002612ffd84613d6c565b613d0f565b90508281526020810184848401111561301a57600080fd5b613025848285613f3b565b509392505050565b60008135905061303c81614064565b92915050565b60008151905061305181614064565b92915050565b600082601f83011261306857600080fd5b8151613078848260208601612f83565b91505092915050565b6000815190506130908161407b565b92915050565b600082601f8301126130a757600080fd5b81356130b7848260208601612fef565b91505092915050565b6000813590506130cf81614092565b92915050565b6000815190506130e481614092565b92915050565b6000602082840312156130fc57600080fd5b600061310a8482850161302d565b91505092915050565b60006020828403121561312557600080fd5b600061313384828501613042565b91505092915050565b6000806040838503121561314f57600080fd5b600061315d8582860161302d565b925050602061316e858286016130c0565b9150509250929050565b60006020828403121561318a57600080fd5b600082015167ffffffffffffffff8111156131a457600080fd5b6131b084828501613057565b91505092915050565b6000602082840312156131cb57600080fd5b60006131d984828501613081565b91505092915050565b6000602082840312156131f457600080fd5b600082013567ffffffffffffffff81111561320e57600080fd5b61321a84828501613096565b91505092915050565b60008060006060848603121561323857600080fd5b600084013567ffffffffffffffff81111561325257600080fd5b61325e86828701613096565b935050602084013567ffffffffffffffff81111561327b57600080fd5b61328786828701613096565b9250506040613298868287016130c0565b9150509250925092565b6000602082840312156132b457600080fd5b60006132c2848285016130c0565b91505092915050565b6000602082840312156132dd57600080fd5b60006132eb848285016130d5565b91505092915050565b6000806040838503121561330757600080fd5b6000613315858286016130c0565b925050602083013567ffffffffffffffff81111561333257600080fd5b61333e85828601613096565b9150509250929050565b6000806040838503121561335b57600080fd5b6000613369858286016130c0565b925050602061337a858286016130c0565b9150509250929050565b6000806000806080858703121561339a57600080fd5b60006133a8878288016130c0565b94505060206133b9878288016130c0565b93505060406133ca8782880161302d565b92505060606133db878288016130c0565b91505092959194509250565b6000806000606084860312156133fc57600080fd5b600061340a868287016130c0565b935050602061341b868287016130c0565b925050604061342c868287016130c0565b9150509250925092565b600061344283836138b0565b60e08301905092915050565b61345781613ef3565b82525050565b61346681613ef3565b82525050565b600061347782613dac565b6134818185613dda565b935061348c83613d9c565b8060005b838110156134bd5781516134a48882613436565b97506134af83613dcd565b925050600181019050613490565b5085935050505092915050565b6134d381613f05565b82525050565b6134e281613f05565b82525050565b60006134f382613db7565b6134fd8185613deb565b935061350d818560208601613f4a565b80840191505092915050565b600061352482613dc2565b61352e8185613df6565b935061353e818560208601613f4a565b61354781614053565b840191505092915050565b600061355d82613dc2565b6135678185613e07565b9350613577818560208601613f4a565b80840191505092915050565b6000613590602683613df6565b91507f4f776e61626c653a206e6577206f776e657220697320746865207a65726f206160008301527f64647265737300000000000000000000000000000000000000000000000000006020830152604082019050919050565b60006135f6603a83613df6565b91507f416464726573733a20756e61626c6520746f2073656e642076616c75652c207260008301527f6563697069656e74206d617920686176652072657665727465640000000000006020830152604082019050919050565b600061365c601d83613df6565b91507f416464726573733a20696e73756666696369656e742062616c616e63650000006000830152602082019050919050565b600061369c602683613df6565b91507f416464726573733a20696e73756666696369656e742062616c616e636520666f60008301527f722063616c6c00000000000000000000000000000000000000000000000000006020830152604082019050919050565b6000613702602083613df6565b91507f4f776e61626c653a2063616c6c6572206973206e6f7420746865206f776e65726000830152602082019050919050565b6000613742600083613deb565b9150600082019050919050565b600061375c601d83613df6565b91507f416464726573733a2063616c6c20746f206e6f6e2d636f6e74726163740000006000830152602082019050919050565b600061379c602a83613df6565b91507f5361666545524332303a204552433230206f7065726174696f6e20646964206e60008301527f6f742073756363656564000000000000000000000000000000000000000000006020830152604082019050919050565b6000613802600483613df6565b91507f6a6d6a6e000000000000000000000000000000000000000000000000000000006000830152602082019050919050565b60c08201600082015161384b600085018261393e565b50602082015161385e602085018261393e565b506040820151613871604085018261344e565b506060820151613884606085018261344e565b50608082015161389760808501826134ca565b5060a08201516138aa60a085018261393e565b50505050565b60e0820160008201516138c6600085018261393e565b5060208201516138d9602085018261393e565b5060408201516138ec60408501826134ca565b5060608201516138ff60608501826134ca565b506080820151613912608085018261344e565b5060a082015161392560a085018261393e565b5060c082015161393860c085018261393e565b50505050565b61394781613f31565b82525050565b61395681613f31565b82525050565b600061396882846134e8565b915081905092915050565b600061397f8284613552565b915081905092915050565b600061399582613735565b9150819050919050565b60006020820190506139b4600083018461345d565b92915050565b60006040820190506139cf600083018561345d565b6139dc602083018461345d565b9392505050565b60006060820190506139f8600083018661345d565b613a05602083018561345d565b613a12604083018461394d565b949350505050565b6000604082019050613a2f600083018561345d565b8181036020830152613a418184613519565b90509392505050565b6000604082019050613a5f600083018561345d565b613a6c602083018461394d565b9392505050565b60006020820190508181036000830152613a8d818461346c565b905092915050565b6000602082019050613aaa60008301846134d9565b92915050565b60006020820190508181036000830152613aca8184613519565b905092915050565b60006020820190508181036000830152613aeb81613583565b9050919050565b60006020820190508181036000830152613b0b816135e9565b9050919050565b60006020820190508181036000830152613b2b8161364f565b9050919050565b60006020820190508181036000830152613b4b8161368f565b9050919050565b60006020820190508181036000830152613b6b816136f5565b9050919050565b60006020820190508181036000830152613b8b8161374f565b9050919050565b60006020820190508181036000830152613bab8161378f565b9050919050565b60006020820190508181036000830152613bcb816137f5565b9050919050565b600060c082019050613be76000830184613835565b92915050565b6000602082019050613c02600083018461394d565b92915050565b6000606082019050613c1d600083018661394d565b613c2a602083018561345d565b613c37604083018461394d565b949350505050565b600060c082019050613c54600083018961394d565b613c61602083018861394d565b613c6e604083018761345d565b613c7b606083018661345d565b613c8860808301856134d9565b613c9560a083018461394d565b979650505050505050565b600060e082019050613cb5600083018a61394d565b613cc2602083018961394d565b613ccf60408301886134d9565b613cdc60608301876134d9565b613ce9608083018661345d565b613cf660a083018561394d565b613d0360c083018461394d565b98975050505050505050565b6000604051905081810181811067ffffffffffffffff82111715613d3657613d35614024565b5b8060405250919050565b600067ffffffffffffffff821115613d5b57613d5a614024565b5b602082029050602081019050919050565b600067ffffffffffffffff821115613d8757613d86614024565b5b601f19601f8301169050602081019050919050565b6000819050602082019050919050565b600081519050919050565b600081519050919050565b600081519050919050565b6000602082019050919050565b600082825260208201905092915050565b600081905092915050565b600082825260208201905092915050565b600081905092915050565b6000613e1d82613f31565b9150613e2883613f31565b9250827fffffffffffffffffffffffffffffffffffffffffffffffffffffffffffffffff03821115613e5d57613e5c613fc6565b5b828201905092915050565b6000613e7382613f31565b9150613e7e83613f31565b925082613e8e57613e8d613ff5565b5b828204905092915050565b6000613ea482613f31565b9150613eaf83613f31565b9250817fffffffffffffffffffffffffffffffffffffffffffffffffffffffffffffffff0483118215151615613ee857613ee7613fc6565b5b828202905092915050565b6000613efe82613f11565b9050919050565b60008115159050919050565b600073ffffffffffffffffffffffffffffffffffffffff82169050919050565b6000819050919050565b82818337600083830152505050565b60005b83811015613f68578082015181840152602081019050613f4d565b83811115613f77576000848401525b50505050565b6000613f8882613f31565b91507fffffffffffffffffffffffffffffffffffffffffffffffffffffffffffffffff821415613fbb57613fba613fc6565b5b600182019050919050565b7f4e487b7100000000000000000000000000000000000000000000000000000000600052601160045260246000fd5b7f4e487b7100000000000000000000000000000000000000000000000000000000600052601260045260246000fd5b7f4e487b7100000000000000000000000000000000000000000000000000000000600052604160045260246000fd5b6000601f19601f8301169050919050565b61406d81613ef3565b811461407857600080fd5b50565b61408481613f05565b811461408f57600080fd5b50565b61409b81613f31565b81146140a657600080fd5b5056fea2646970667358221220641b362f54cd6815def9cd73f8bf48763685a510ad0897b26533494255b3a20a64736f6c63430008000033",
  "immutableReferences": {},
  "source": "// SPDX-License-Identifier: UNLICENSED\r\npragma solidity ^0.8.0;\r\n\r\nimport \"@openzeppelin/contracts/access/Ownable.sol\";\r\nimport \"@openzeppelin/contracts/token/ERC721/IERC721.sol\";\r\nimport \"@openzeppelin/contracts/token/ERC20/IERC20.sol\";\r\nimport \"@openzeppelin/contracts/utils/Address.sol\";\r\nimport \"@openzeppelin/contracts/token/ERC20/utils/SafeERC20.sol\";\r\nimport \"./Art.sol\";\r\n\r\ncontract MarketPlace is Ownable {\r\n    using SafeERC20 for IERC20;\r\n    struct Product {\r\n        uint256 tokenId;\r\n        uint256 price;\r\n        bool listing;\r\n        bool selling;\r\n        address creator;\r\n        uint256 rate;\r\n        uint256 timestamp;\r\n    }\r\n\r\n    struct Offer {\r\n        uint256 tokenId;\r\n        uint256 amount;\r\n        address token20;\r\n        address bargainer;\r\n        bool accepted;\r\n        uint256 timeout;\r\n    }\r\n\r\n    Art art;\r\n\r\n    address[] public sellers;\r\n    mapping(uint256 => Product) public tokenIdToProduct;\r\n    mapping(address => Product[]) public userToProduct; //creator anf their product\r\n    mapping(uint256 => Offer[]) public tokenIdToOffer;\r\n    mapping(string => bool) public checkTransactionId;\r\n    // mapping(uint256 => address) public askToOwner721;\r\n\r\n    mapping(string => bool) public imageExisted;\r\n\r\n    event Transfer(\r\n        uint256 indexed _tokenId,\r\n        address indexed _oldOwner,\r\n        address indexed _newOwner\r\n    );\r\n    event NewOffer(\r\n        uint256 indexed _tokenId,\r\n        uint256 _amount,\r\n        address _token20,\r\n        address indexed _bargainer,\r\n        uint256 _timeout\r\n    );\r\n    event ApproveOffer(\r\n        uint256 indexed _tokenId,\r\n        address indexed _oldOwner,\r\n        address indexed _newOwner,\r\n        uint256 _index\r\n    );\r\n\r\n    modifier onlyOwnerOfToken(uint256 _tokenId) {\r\n        require(art.ownerOf(_tokenId) == msg.sender);\r\n        _;\r\n    }\r\n\r\n    constructor(address _artAddr) {\r\n        art = Art(_artAddr);\r\n    }\r\n\r\n    function createNewProduct(\r\n        string memory _hashInfo,\r\n        string memory _hashImg,\r\n        uint256 _price\r\n    ) public {\r\n        require(!imageExisted[_hashImg], \"jmjn\");\r\n        uint256 _tokenId = art.createNewNFT(msg.sender, _hashInfo);\r\n        sellers.push(msg.sender);\r\n        imageExisted[_hashImg] = true;\r\n        Product memory product = Product(\r\n            _tokenId,\r\n            _price,\r\n            true,\r\n            true,\r\n            msg.sender,\r\n            0,\r\n            block.timestamp\r\n        );\r\n        userToProduct[msg.sender].push(product);\r\n        tokenIdToProduct[_tokenId] = product;\r\n        // art.approve(address(this), _tokenId);\r\n        emit Transfer(_tokenId, address(0), msg.sender);\r\n    } //goi kem approve\r\n\r\n    function setListOrNot(uint256 _tokenId) public onlyOwnerOfToken(_tokenId) {\r\n        Product storage product = tokenIdToProduct[_tokenId];\r\n        product.listing = !product.listing;\r\n    }\r\n\r\n    //neu tu false sang true thi phai goi kem approve\r\n    function setSellOrNot(uint256 _tokenId) public onlyOwnerOfToken(_tokenId) {\r\n        Product storage product = tokenIdToProduct[_tokenId];\r\n        product.selling = !product.selling;\r\n    }\r\n\r\n    function setPrice(uint256 _tokenId, uint256 _price)\r\n        public\r\n        onlyOwnerOfToken(_tokenId)\r\n    {\r\n        Product storage product = tokenIdToProduct[_tokenId];\r\n        product.price = _price;\r\n    }\r\n\r\n    function getProductListCreated(address _user)\r\n        public\r\n        view\r\n        returns (Product[] memory)\r\n    {\r\n        return userToProduct[_user];\r\n    }\r\n\r\n    //Phai approve truoc\r\n    function buyWithETH(uint256 _tokenId) public payable {\r\n        Product storage _product = tokenIdToProduct[_tokenId];\r\n        require(_product.selling);\r\n        require(art.getApproved(_tokenId) == address(this));\r\n        require(msg.value == _product.price);\r\n        require(msg.sender != art.ownerOf(_tokenId));\r\n\r\n        _product.selling = false;\r\n        art.setOwnerToTokenId(msg.sender, _tokenId);\r\n        address _owner = art.ownerOf(_tokenId);\r\n        art.safeTransferFrom(_owner, msg.sender, _tokenId);\r\n        Address.sendValue(payable(_owner), (msg.value * 98) / 100);\r\n\r\n        emit Transfer(_tokenId, _owner, msg.sender);\r\n    }\r\n\r\n    function buyWithCurrency(uint256 _tokenId, string memory traransactionId)\r\n        public\r\n    {\r\n        Product storage _product = tokenIdToProduct[_tokenId];\r\n        require(_product.selling);\r\n        require(art.getApproved(_tokenId) == address(this));\r\n        // require(msg.value == _product.price);\r\n        require(msg.sender != art.ownerOf(_tokenId));\r\n        require(!checkTransactionId[traransactionId]);\r\n\r\n        checkTransactionId[traransactionId] = true;\r\n        _product.selling = false;\r\n        art.setOwnerToTokenId(msg.sender, _tokenId);\r\n        address _owner = art.ownerOf(_tokenId);\r\n        art.safeTransferFrom(_owner, msg.sender, _tokenId);\r\n        // Address.sendValue(payable(_owner), (msg.value * 98) / 100);\r\n\r\n        emit Transfer(_tokenId, _owner, msg.sender);\r\n    }\r\n\r\n    //lay ra danh sach cac san pham so huu\r\n    function getProducListOwnable(address _owner)\r\n        public\r\n        view\r\n        returns (Product[] memory)\r\n    {\r\n        uint256[] memory arr = art.getTokenList(_owner);\r\n        Product[] memory productList = new Product[](arr.length);\r\n        for (uint256 i = 0; i < arr.length; i++) {\r\n            productList[i] = tokenIdToProduct[arr[i]];\r\n        }\r\n        return productList;\r\n    }\r\n\r\n    //Phai goi kem approve token cho contractt nay\r\n    function offer(\r\n        uint256 _tokenId,\r\n        uint256 _amount,\r\n        address _token20,\r\n        uint256 _timeout\r\n    ) public {\r\n        // require(_product.selling);\r\n        require(art.ownerOf(_tokenId) != address(0));\r\n        require(_token20 != address(0));\r\n        require(\r\n            IERC20(_token20).allowance(msg.sender, address(this)) >= _amount\r\n        );\r\n        // IERC20(_token20).approve(address(this), _amount);\r\n\r\n        tokenIdToOffer[_tokenId].push(\r\n            Offer(\r\n                _tokenId,\r\n                _amount,\r\n                _token20,\r\n                msg.sender,\r\n                false,\r\n                block.timestamp + _timeout\r\n            )\r\n        );\r\n        emit NewOffer(\r\n            _tokenId,\r\n            _amount,\r\n            _token20,\r\n            msg.sender,\r\n            block.timestamp + _timeout\r\n        );\r\n    }\r\n\r\n    function restartOffer(\r\n        uint256 _tokenId,\r\n        uint256 _index,\r\n        uint256 _timeout\r\n    ) public {\r\n        require(tokenIdToOffer[_tokenId][_index].bargainer == msg.sender);\r\n        require(tokenIdToOffer[_tokenId][_index].timeout < block.timestamp);\r\n        require(_timeout > block.timestamp);\r\n        tokenIdToOffer[_tokenId][_index].timeout = _timeout;\r\n    }\r\n\r\n    function getOffer(uint256 _tokenId, uint256 _index)\r\n        public\r\n        view\r\n        returns (Offer memory)\r\n    {\r\n        // require(art.ownerOf(_tokenId) == msg.sender);\r\n        require(_index <= tokenIdToOffer[_tokenId].length);\r\n        return tokenIdToOffer[_tokenId][_index];\r\n    }\r\n\r\n    //ch s hu da approve token721 hay chua\r\n    //manual => not guarantee\r\n    //automation => guarantee.....\r\n    function approveOffer(uint256 _tokenId, uint256 _index) public {\r\n        Product storage _product = tokenIdToProduct[_tokenId];\r\n        Offer memory _offer = getOffer(_tokenId, _index);\r\n\r\n        require(_product.selling);\r\n        require(art.getApproved(_tokenId) == address(this));\r\n        require(art.ownerOf(_tokenId) == msg.sender);\r\n        require(_index <= tokenIdToOffer[_tokenId].length);\r\n        require(block.timestamp <= _offer.timeout);\r\n\r\n        tokenIdToOffer[_tokenId][_index].accepted = true;\r\n        _product.selling = false;\r\n        art.setOwnerToTokenId(msg.sender, _tokenId);\r\n        address _owner = art.ownerOf(_tokenId);\r\n        art.safeTransferFrom(_owner, _offer.bargainer, _tokenId);\r\n        IERC20(_offer.token20).safeTransferFrom(\r\n            _offer.bargainer,\r\n            _owner,\r\n            (_offer.amount * 95) / 100\r\n        );\r\n\r\n        emit ApproveOffer(_tokenId, _owner, msg.sender, _index);\r\n    }\r\n}\r\n",
  "sourcePath": "E:\\MNM\\UIT-SE301.M11-BidDapp\\contracts\\MarketPlace.sol",
  "compiler": {
    "name": "solc",
    "version": "0.8.0+commit.c7dfd78e.Emscripten.clang"
  },
  "schemaVersion": "3.4.3",
  "updatedAt": "2021-11-09T03:14:28.898Z",
  "devdoc": {
    "kind": "dev",
    "methods": {
      "owner()": {
        "details": "Returns the address of the current owner."
      },
      "renounceOwnership()": {
        "details": "Leaves the contract without owner. It will not be possible to call `onlyOwner` functions anymore. Can only be called by the current owner. NOTE: Renouncing ownership will leave the contract without an owner, thereby removing any functionality that is only available to the owner."
      },
      "transferOwnership(address)": {
        "details": "Transfers ownership of the contract to a new account (`newOwner`). Can only be called by the current owner."
      }
    },
    "version": 1
  },
  "userdoc": {
    "kind": "user",
    "methods": {},
    "version": 1
  }
}