{
  "contractName": "MarketPlace",
  "abi": [
    {
      "inputs": [
        {
          "internalType": "address",
          "name": "_artAddr",
          "type": "address"
        }
      ],
      "stateMutability": "nonpayable",
      "type": "constructor"
    },
    {
      "anonymous": false,
      "inputs": [
        {
          "indexed": true,
          "internalType": "uint256",
          "name": "_tokenId",
          "type": "uint256"
        },
        {
          "indexed": true,
          "internalType": "address",
          "name": "_oldOwner",
          "type": "address"
        },
        {
          "indexed": true,
          "internalType": "address",
          "name": "_newOwner",
          "type": "address"
        },
        {
          "indexed": false,
          "internalType": "uint256",
          "name": "_index",
          "type": "uint256"
        }
      ],
      "name": "ApproveOffer",
      "type": "event"
    },
    {
      "anonymous": false,
      "inputs": [
        {
          "indexed": true,
          "internalType": "uint256",
          "name": "_tokenId",
          "type": "uint256"
        },
        {
          "indexed": false,
          "internalType": "uint256",
          "name": "_amount",
          "type": "uint256"
        },
        {
          "indexed": false,
          "internalType": "address",
          "name": "_token20",
          "type": "address"
        },
        {
          "indexed": true,
          "internalType": "address",
          "name": "_bargainer",
          "type": "address"
        },
        {
          "indexed": false,
          "internalType": "uint256",
          "name": "_timeout",
          "type": "uint256"
        }
      ],
      "name": "NewOffer",
      "type": "event"
    },
    {
      "anonymous": false,
      "inputs": [
        {
          "indexed": true,
          "internalType": "address",
          "name": "previousOwner",
          "type": "address"
        },
        {
          "indexed": true,
          "internalType": "address",
          "name": "newOwner",
          "type": "address"
        }
      ],
      "name": "OwnershipTransferred",
      "type": "event"
    },
    {
      "anonymous": false,
      "inputs": [
        {
          "indexed": true,
          "internalType": "uint256",
          "name": "_tokenId",
          "type": "uint256"
        },
        {
          "indexed": true,
          "internalType": "address",
          "name": "_oldOwner",
          "type": "address"
        },
        {
          "indexed": true,
          "internalType": "address",
          "name": "_newOwner",
          "type": "address"
        }
      ],
      "name": "Transfer",
      "type": "event"
    },
    {
      "inputs": [
        {
          "internalType": "string",
          "name": "",
          "type": "string"
        }
      ],
      "name": "checkTransactionId",
      "outputs": [
        {
          "internalType": "bool",
          "name": "",
          "type": "bool"
        }
      ],
      "stateMutability": "view",
      "type": "function"
    },
    {
      "inputs": [
        {
          "internalType": "string",
          "name": "",
          "type": "string"
        }
      ],
      "name": "imageExisted",
      "outputs": [
        {
          "internalType": "bool",
          "name": "",
          "type": "bool"
        }
      ],
      "stateMutability": "view",
      "type": "function"
    },
    {
      "inputs": [],
      "name": "owner",
      "outputs": [
        {
          "internalType": "address",
          "name": "",
          "type": "address"
        }
      ],
      "stateMutability": "view",
      "type": "function"
    },
    {
      "inputs": [],
      "name": "renounceOwnership",
      "outputs": [],
      "stateMutability": "nonpayable",
      "type": "function"
    },
    {
      "inputs": [
        {
          "internalType": "uint256",
          "name": "",
          "type": "uint256"
        }
      ],
      "name": "sellers",
      "outputs": [
        {
          "internalType": "address",
          "name": "",
          "type": "address"
        }
      ],
      "stateMutability": "view",
      "type": "function"
    },
    {
      "inputs": [
        {
          "internalType": "uint256",
          "name": "",
          "type": "uint256"
        },
        {
          "internalType": "uint256",
          "name": "",
          "type": "uint256"
        }
      ],
      "name": "tokenIdToOffer",
      "outputs": [
        {
          "internalType": "uint256",
          "name": "tokenId",
          "type": "uint256"
        },
        {
          "internalType": "uint256",
          "name": "amount",
          "type": "uint256"
        },
        {
          "internalType": "address",
          "name": "token20",
          "type": "address"
        },
        {
          "internalType": "address",
          "name": "bargainer",
          "type": "address"
        },
        {
          "internalType": "bool",
          "name": "accepted",
          "type": "bool"
        },
        {
          "internalType": "uint256",
          "name": "timeout",
          "type": "uint256"
        }
      ],
      "stateMutability": "view",
      "type": "function"
    },
    {
      "inputs": [
        {
          "internalType": "uint256",
          "name": "",
          "type": "uint256"
        }
      ],
      "name": "tokenIdToProduct",
      "outputs": [
        {
          "internalType": "uint256",
          "name": "tokenId",
          "type": "uint256"
        },
        {
          "internalType": "uint256",
          "name": "price",
          "type": "uint256"
        },
        {
          "internalType": "bool",
          "name": "listing",
          "type": "bool"
        },
        {
          "internalType": "bool",
          "name": "selling",
          "type": "bool"
        },
        {
          "internalType": "address",
          "name": "creator",
          "type": "address"
        },
        {
          "internalType": "uint256",
          "name": "rate",
          "type": "uint256"
        },
        {
          "internalType": "uint256",
          "name": "timestamp",
          "type": "uint256"
        }
      ],
      "stateMutability": "view",
      "type": "function"
    },
    {
      "inputs": [
        {
          "internalType": "address",
          "name": "newOwner",
          "type": "address"
        }
      ],
      "name": "transferOwnership",
      "outputs": [],
      "stateMutability": "nonpayable",
      "type": "function"
    },
    {
      "inputs": [
        {
          "internalType": "address",
          "name": "",
          "type": "address"
        },
        {
          "internalType": "uint256",
          "name": "",
          "type": "uint256"
        }
      ],
      "name": "userToProduct",
      "outputs": [
        {
          "internalType": "uint256",
          "name": "tokenId",
          "type": "uint256"
        },
        {
          "internalType": "uint256",
          "name": "price",
          "type": "uint256"
        },
        {
          "internalType": "bool",
          "name": "listing",
          "type": "bool"
        },
        {
          "internalType": "bool",
          "name": "selling",
          "type": "bool"
        },
        {
          "internalType": "address",
          "name": "creator",
          "type": "address"
        },
        {
          "internalType": "uint256",
          "name": "rate",
          "type": "uint256"
        },
        {
          "internalType": "uint256",
          "name": "timestamp",
          "type": "uint256"
        }
      ],
      "stateMutability": "view",
      "type": "function"
    },
    {
      "inputs": [
        {
          "internalType": "address",
          "name": "_artAddr",
          "type": "address"
        }
      ],
      "name": "setArtAddr",
      "outputs": [],
      "stateMutability": "nonpayable",
      "type": "function"
    },
    {
      "inputs": [
        {
          "internalType": "string",
          "name": "_hashInfo",
          "type": "string"
        },
        {
          "internalType": "string",
          "name": "_hashImg",
          "type": "string"
        },
        {
          "internalType": "uint256",
          "name": "_price",
          "type": "uint256"
        }
      ],
      "name": "createNewProduct",
      "outputs": [],
      "stateMutability": "nonpayable",
      "type": "function"
    },
    {
      "inputs": [
        {
          "internalType": "uint256",
          "name": "_tokenId",
          "type": "uint256"
        }
      ],
      "name": "setListOrNot",
      "outputs": [],
      "stateMutability": "nonpayable",
      "type": "function"
    },
    {
      "inputs": [
        {
          "internalType": "uint256",
          "name": "_tokenId",
          "type": "uint256"
        }
      ],
      "name": "setSellOrNot",
      "outputs": [],
      "stateMutability": "nonpayable",
      "type": "function"
    },
    {
      "inputs": [
        {
          "internalType": "uint256",
          "name": "_tokenId",
          "type": "uint256"
        },
        {
          "internalType": "uint256",
          "name": "_price",
          "type": "uint256"
        }
      ],
      "name": "setPrice",
      "outputs": [],
      "stateMutability": "nonpayable",
      "type": "function"
    },
    {
      "inputs": [
        {
          "internalType": "address",
          "name": "_user",
          "type": "address"
        }
      ],
      "name": "getProductListCreated",
      "outputs": [
        {
          "components": [
            {
              "internalType": "uint256",
              "name": "tokenId",
              "type": "uint256"
            },
            {
              "internalType": "uint256",
              "name": "price",
              "type": "uint256"
            },
            {
              "internalType": "bool",
              "name": "listing",
              "type": "bool"
            },
            {
              "internalType": "bool",
              "name": "selling",
              "type": "bool"
            },
            {
              "internalType": "address",
              "name": "creator",
              "type": "address"
            },
            {
              "internalType": "uint256",
              "name": "rate",
              "type": "uint256"
            },
            {
              "internalType": "uint256",
              "name": "timestamp",
              "type": "uint256"
            }
          ],
          "internalType": "struct IMarketPlace.Product[]",
          "name": "",
          "type": "tuple[]"
        }
      ],
      "stateMutability": "view",
      "type": "function"
    },
    {
      "inputs": [
        {
          "internalType": "uint256",
          "name": "_tokenId",
          "type": "uint256"
        }
      ],
      "name": "buyWithETH",
      "outputs": [],
      "stateMutability": "payable",
      "type": "function"
    },
    {
      "inputs": [
        {
          "internalType": "uint256",
          "name": "_tokenId",
          "type": "uint256"
        },
        {
          "internalType": "string",
          "name": "traransactionId",
          "type": "string"
        }
      ],
      "name": "buyWithCurrency",
      "outputs": [],
      "stateMutability": "nonpayable",
      "type": "function"
    },
    {
      "inputs": [
        {
          "internalType": "address",
          "name": "_owner",
          "type": "address"
        }
      ],
      "name": "getProducListOwnable",
      "outputs": [
        {
          "components": [
            {
              "internalType": "uint256",
              "name": "tokenId",
              "type": "uint256"
            },
            {
              "internalType": "uint256",
              "name": "price",
              "type": "uint256"
            },
            {
              "internalType": "bool",
              "name": "listing",
              "type": "bool"
            },
            {
              "internalType": "bool",
              "name": "selling",
              "type": "bool"
            },
            {
              "internalType": "address",
              "name": "creator",
              "type": "address"
            },
            {
              "internalType": "uint256",
              "name": "rate",
              "type": "uint256"
            },
            {
              "internalType": "uint256",
              "name": "timestamp",
              "type": "uint256"
            }
          ],
          "internalType": "struct IMarketPlace.Product[]",
          "name": "",
          "type": "tuple[]"
        }
      ],
      "stateMutability": "view",
      "type": "function"
    },
    {
      "inputs": [
        {
          "internalType": "uint256",
          "name": "_tokenId",
          "type": "uint256"
        },
        {
          "internalType": "uint256",
          "name": "_amount",
          "type": "uint256"
        },
        {
          "internalType": "address",
          "name": "_token20",
          "type": "address"
        },
        {
          "internalType": "uint256",
          "name": "_timeout",
          "type": "uint256"
        }
      ],
      "name": "offer",
      "outputs": [],
      "stateMutability": "nonpayable",
      "type": "function"
    },
    {
      "inputs": [
        {
          "internalType": "uint256",
          "name": "_tokenId",
          "type": "uint256"
        },
        {
          "internalType": "uint256",
          "name": "_index",
          "type": "uint256"
        },
        {
          "internalType": "uint256",
          "name": "_timeout",
          "type": "uint256"
        }
      ],
      "name": "restartOffer",
      "outputs": [],
      "stateMutability": "nonpayable",
      "type": "function"
    },
    {
      "inputs": [
        {
          "internalType": "uint256",
          "name": "_tokenId",
          "type": "uint256"
        },
        {
          "internalType": "uint256",
          "name": "_index",
          "type": "uint256"
        }
      ],
      "name": "getOffer",
      "outputs": [
        {
          "components": [
            {
              "internalType": "uint256",
              "name": "tokenId",
              "type": "uint256"
            },
            {
              "internalType": "uint256",
              "name": "amount",
              "type": "uint256"
            },
            {
              "internalType": "address",
              "name": "token20",
              "type": "address"
            },
            {
              "internalType": "address",
              "name": "bargainer",
              "type": "address"
            },
            {
              "internalType": "bool",
              "name": "accepted",
              "type": "bool"
            },
            {
              "internalType": "uint256",
              "name": "timeout",
              "type": "uint256"
            }
          ],
          "internalType": "struct IMarketPlace.Offer",
          "name": "",
          "type": "tuple"
        }
      ],
      "stateMutability": "view",
      "type": "function"
    },
    {
      "inputs": [
        {
          "internalType": "uint256",
          "name": "_tokenId",
          "type": "uint256"
        },
        {
          "internalType": "uint256",
          "name": "_index",
          "type": "uint256"
        }
      ],
      "name": "approveOffer",
      "outputs": [],
      "stateMutability": "nonpayable",
      "type": "function"
    }
  ],
  "bytecode": "0x60806040523480156200001157600080fd5b50604051620041d9380380620041d9833981810160405281019062000037919062000182565b620000576200004b6200009f60201b60201c565b620000a760201b60201c565b80600160006101000a81548173ffffffffffffffffffffffffffffffffffffffff021916908373ffffffffffffffffffffffffffffffffffffffff16021790555050620001fc565b600033905090565b60008060009054906101000a900473ffffffffffffffffffffffffffffffffffffffff169050816000806101000a81548173ffffffffffffffffffffffffffffffffffffffff021916908373ffffffffffffffffffffffffffffffffffffffff1602179055508173ffffffffffffffffffffffffffffffffffffffff168173ffffffffffffffffffffffffffffffffffffffff167f8be0079c531659141344cd1fd0a4f28419497f9722a3daafe3b4186f6b6457e060405160405180910390a35050565b6000815190506200017c81620001e2565b92915050565b6000602082840312156200019557600080fd5b6000620001a5848285016200016b565b91505092915050565b6000620001bb82620001c2565b9050919050565b600073ffffffffffffffffffffffffffffffffffffffff82169050919050565b620001ed81620001ae565b8114620001f957600080fd5b50565b613fcd806200020c6000396000f3fe6080604052600436106101355760003560e01c8063a2bd1c41116100ab578063cee26ed51161006f578063cee26ed514610436578063f16f373014610473578063f2fde38b1461049c578063f7d97577146104c5578063fd7acfe7146104ee578063fdfe74851461052b57610135565b8063a2bd1c4114610321578063acb1ba6714610364578063b6f949c31461038d578063b9b8245c146103d0578063c7ea1e8b146103f957610135565b806366a65af1116100fd57806366a65af11461022f578063688ec40414610271578063715018a61461029a5780638a195912146102b15780638da5cb5b146102da57806394dc9cf31461030557610135565b80632509907c1461013a5780632e7a34b7146101775780633cd0cd67146101a05780635e7524e7146101dd578063656ea7d214610206575b600080fd5b34801561014657600080fd5b50610161600480360381019061015c91906130f6565b610568565b60405161016e9190613983565b60405180910390f35b34801561018357600080fd5b5061019e60048036038101906101999190612ffe565b61059e565b005b3480156101ac57600080fd5b506101c760048036038101906101c2919061325c565b610698565b6040516101d49190613ac0565b60405180910390f35b3480156101e957600080fd5b5061020460048036038101906101ff9190613208565b610814565b005b34801561021257600080fd5b5061022d600480360381019061022891906131b6565b610aa4565b005b34801561023b57600080fd5b506102566004803603810190610251919061325c565b610bd1565b60405161026896959493929190613b2d565b60405180910390f35b34801561027d57600080fd5b50610298600480360381019061029391906132fb565b610c77565b005b3480156102a657600080fd5b506102af610e05565b005b3480156102bd57600080fd5b506102d860048036038101906102d391906131b6565b610e8d565b005b3480156102e657600080fd5b506102ef610fba565b6040516102fc919061388d565b60405180910390f35b61031f600480360381019061031a91906131b6565b610fe3565b005b34801561032d57600080fd5b5061034860048036038101906103439190613050565b6112cf565b60405161035b9796959493929190613b8e565b60405180910390f35b34801561037057600080fd5b5061038b60048036038101906103869190613298565b611368565b005b34801561039957600080fd5b506103b460048036038101906103af91906131b6565b611731565b6040516103c79796959493929190613b8e565b60405180910390f35b3480156103dc57600080fd5b506103f760048036038101906103f29190613137565b6117ad565b005b34801561040557600080fd5b50610420600480360381019061041b9190612ffe565b611bfd565b60405161042d9190613961565b60405180910390f35b34801561044257600080fd5b5061045d600480360381019061045891906131b6565b611eb2565b60405161046a919061388d565b60405180910390f35b34801561047f57600080fd5b5061049a6004803603810190610495919061325c565b611ef1565b005b3480156104a857600080fd5b506104c360048036038101906104be9190612ffe565b6122fd565b005b3480156104d157600080fd5b506104ec60048036038101906104e7919061325c565b6123f5565b005b3480156104fa57600080fd5b50610515600480360381019061051091906130f6565b6124fe565b6040516105229190613983565b60405180910390f35b34801561053757600080fd5b50610552600480360381019061054d9190612ffe565b612534565b60405161055f9190613961565b60405180910390f35b6006818051602081018201805184825260208301602085012081835280955050505050506000915054906101000a900460ff1681565b6105a6612686565b73ffffffffffffffffffffffffffffffffffffffff166105c4610fba565b73ffffffffffffffffffffffffffffffffffffffff161461061a576040517f08c379a000000000000000000000000000000000000000000000000000000000815260040161061190613a40565b60405180910390fd5b600073ffffffffffffffffffffffffffffffffffffffff168173ffffffffffffffffffffffffffffffffffffffff16141561065457600080fd5b80600160006101000a81548173ffffffffffffffffffffffffffffffffffffffff021916908373ffffffffffffffffffffffffffffffffffffffff16021790555050565b6106a0612ddc565b60056000848152602001908152602001600020805490508211156106c357600080fd5b60056000848152602001908152602001600020828154811061070e577f4e487b7100000000000000000000000000000000000000000000000000000000600052603260045260246000fd5b90600052602060002090600502016040518060c001604052908160008201548152602001600182015481526020016002820160009054906101000a900473ffffffffffffffffffffffffffffffffffffffff1673ffffffffffffffffffffffffffffffffffffffff1673ffffffffffffffffffffffffffffffffffffffff1681526020016003820160009054906101000a900473ffffffffffffffffffffffffffffffffffffffff1673ffffffffffffffffffffffffffffffffffffffff1673ffffffffffffffffffffffffffffffffffffffff1681526020016003820160149054906101000a900460ff16151515158152602001600482015481525050905092915050565b60006003600084815260200190815260200160002090508060020160019054906101000a900460ff1661084657600080fd5b3073ffffffffffffffffffffffffffffffffffffffff16600160009054906101000a900473ffffffffffffffffffffffffffffffffffffffff1673ffffffffffffffffffffffffffffffffffffffff1663081812fc856040518263ffffffff1660e01b81526004016108b89190613adb565b60206040518083038186803b1580156108d057600080fd5b505afa1580156108e4573d6000803e3d6000fd5b505050506040513d601f19601f820116820180604052508101906109089190613027565b73ffffffffffffffffffffffffffffffffffffffff161461092857600080fd5b600160009054906101000a900473ffffffffffffffffffffffffffffffffffffffff1673ffffffffffffffffffffffffffffffffffffffff16636352211e846040518263ffffffff1660e01b81526004016109839190613adb565b60206040518083038186803b15801561099b57600080fd5b505afa1580156109af573d6000803e3d6000fd5b505050506040513d601f19601f820116820180604052508101906109d39190613027565b73ffffffffffffffffffffffffffffffffffffffff163373ffffffffffffffffffffffffffffffffffffffff161415610a0b57600080fd5b600682604051610a1b9190613861565b908152602001604051809103902060009054906101000a900460ff1615610a4157600080fd5b6001600683604051610a539190613861565b908152602001604051809103902060006101000a81548160ff02191690831515021790555060008160020160016101000a81548160ff021916908315150217905550610a9f338461268e565b505050565b803373ffffffffffffffffffffffffffffffffffffffff16600160009054906101000a900473ffffffffffffffffffffffffffffffffffffffff1673ffffffffffffffffffffffffffffffffffffffff16636352211e836040518263ffffffff1660e01b8152600401610b179190613adb565b60206040518083038186803b158015610b2f57600080fd5b505afa158015610b43573d6000803e3d6000fd5b505050506040513d601f19601f82011682018060405250810190610b679190613027565b73ffffffffffffffffffffffffffffffffffffffff1614610b8757600080fd5b60006003600084815260200190815260200160002090508060020160009054906101000a900460ff16158160020160006101000a81548160ff021916908315150217905550505050565b60056020528160005260406000208181548110610bed57600080fd5b9060005260206000209060050201600091509150508060000154908060010154908060020160009054906101000a900473ffffffffffffffffffffffffffffffffffffffff16908060030160009054906101000a900473ffffffffffffffffffffffffffffffffffffffff16908060030160149054906101000a900460ff16908060040154905086565b3373ffffffffffffffffffffffffffffffffffffffff16600560008581526020019081526020016000208381548110610cd9577f4e487b7100000000000000000000000000000000000000000000000000000000600052603260045260246000fd5b906000526020600020906005020160030160009054906101000a900473ffffffffffffffffffffffffffffffffffffffff1673ffffffffffffffffffffffffffffffffffffffff1614610d2b57600080fd5b42600560008581526020019081526020016000208381548110610d77577f4e487b7100000000000000000000000000000000000000000000000000000000600052603260045260246000fd5b90600052602060002090600502016004015410610d9357600080fd5b428111610d9f57600080fd5b80600560008581526020019081526020016000208381548110610deb577f4e487b7100000000000000000000000000000000000000000000000000000000600052603260045260246000fd5b906000526020600020906005020160040181905550505050565b610e0d612686565b73ffffffffffffffffffffffffffffffffffffffff16610e2b610fba565b73ffffffffffffffffffffffffffffffffffffffff1614610e81576040517f08c379a0000000000000000000000000000000000000000000000000000000008152600401610e7890613a40565b60405180910390fd5b610e8b60006128bd565b565b803373ffffffffffffffffffffffffffffffffffffffff16600160009054906101000a900473ffffffffffffffffffffffffffffffffffffffff1673ffffffffffffffffffffffffffffffffffffffff16636352211e836040518263ffffffff1660e01b8152600401610f009190613adb565b60206040518083038186803b158015610f1857600080fd5b505afa158015610f2c573d6000803e3d6000fd5b505050506040513d601f19601f82011682018060405250810190610f509190613027565b73ffffffffffffffffffffffffffffffffffffffff1614610f7057600080fd5b60006003600084815260200190815260200160002090508060020160019054906101000a900460ff16158160020160016101000a81548160ff021916908315150217905550505050565b60008060009054906101000a900473ffffffffffffffffffffffffffffffffffffffff16905090565b60006003600083815260200190815260200160002090508060020160019054906101000a900460ff1661101557600080fd5b3073ffffffffffffffffffffffffffffffffffffffff16600160009054906101000a900473ffffffffffffffffffffffffffffffffffffffff1673ffffffffffffffffffffffffffffffffffffffff1663081812fc846040518263ffffffff1660e01b81526004016110879190613adb565b60206040518083038186803b15801561109f57600080fd5b505afa1580156110b3573d6000803e3d6000fd5b505050506040513d601f19601f820116820180604052508101906110d79190613027565b73ffffffffffffffffffffffffffffffffffffffff16146110f757600080fd5b8060010154341461110757600080fd5b600160009054906101000a900473ffffffffffffffffffffffffffffffffffffffff1673ffffffffffffffffffffffffffffffffffffffff16636352211e836040518263ffffffff1660e01b81526004016111629190613adb565b60206040518083038186803b15801561117a57600080fd5b505afa15801561118e573d6000803e3d6000fd5b505050506040513d601f19601f820116820180604052508101906111b29190613027565b73ffffffffffffffffffffffffffffffffffffffff163373ffffffffffffffffffffffffffffffffffffffff1614156111ea57600080fd5b60008160020160016101000a81548160ff0219169083151502179055506000600160009054906101000a900473ffffffffffffffffffffffffffffffffffffffff1673ffffffffffffffffffffffffffffffffffffffff16636352211e846040518263ffffffff1660e01b81526004016112649190613adb565b60206040518083038186803b15801561127c57600080fd5b505afa158015611290573d6000803e3d6000fd5b505050506040513d601f19601f820116820180604052508101906112b49190613027565b90506112c0338461268e565b6112ca8134612981565b505050565b600460205281600052604060002081815481106112eb57600080fd5b9060005260206000209060050201600091509150508060000154908060010154908060020160009054906101000a900460ff16908060020160019054906101000a900460ff16908060020160029054906101000a900473ffffffffffffffffffffffffffffffffffffffff16908060030154908060040154905087565b60006003600086815260200190815260200160002090508060020160019054906101000a900460ff1661139a57600080fd5b600073ffffffffffffffffffffffffffffffffffffffff16600160009054906101000a900473ffffffffffffffffffffffffffffffffffffffff1673ffffffffffffffffffffffffffffffffffffffff16636352211e876040518263ffffffff1660e01b815260040161140d9190613adb565b60206040518083038186803b15801561142557600080fd5b505afa158015611439573d6000803e3d6000fd5b505050506040513d601f19601f8201168201806040525081019061145d9190613027565b73ffffffffffffffffffffffffffffffffffffffff16141561147e57600080fd5b600073ffffffffffffffffffffffffffffffffffffffff168373ffffffffffffffffffffffffffffffffffffffff1614156114b857600080fd5b838373ffffffffffffffffffffffffffffffffffffffff1663dd62ed3e33306040518363ffffffff1660e01b81526004016114f49291906138a8565b60206040518083038186803b15801561150c57600080fd5b505afa158015611520573d6000803e3d6000fd5b505050506040513d601f19601f8201168201806040525081019061154491906131df565b101561154f57600080fd5b42821161155b57600080fd5b600560008681526020019081526020016000206040518060c001604052808781526020018681526020018573ffffffffffffffffffffffffffffffffffffffff1681526020013373ffffffffffffffffffffffffffffffffffffffff16815260200160001515815260200184426115d29190613d00565b8152509080600181540180825580915050600190039060005260206000209060050201600090919091909150600082015181600001556020820151816001015560408201518160020160006101000a81548173ffffffffffffffffffffffffffffffffffffffff021916908373ffffffffffffffffffffffffffffffffffffffff16021790555060608201518160030160006101000a81548173ffffffffffffffffffffffffffffffffffffffff021916908373ffffffffffffffffffffffffffffffffffffffff16021790555060808201518160030160146101000a81548160ff02191690831515021790555060a0820151816004015550503373ffffffffffffffffffffffffffffffffffffffff16857f8b4d06c200b17b9c1150172953ceb6fa3e7ace7623f6f933707badfa52c354cf868686426117139190613d00565b60405161172293929190613af6565b60405180910390a35050505050565b60036020528060005260406000206000915090508060000154908060010154908060020160009054906101000a900460ff16908060020160019054906101000a900460ff16908060020160029054906101000a900473ffffffffffffffffffffffffffffffffffffffff16908060030154908060040154905087565b6007826040516117bd9190613861565b908152602001604051809103902060009054906101000a900460ff1615611819576040517f08c379a000000000000000000000000000000000000000000000000000000000815260040161181090613a60565b60405180910390fd5b6000600160009054906101000a900473ffffffffffffffffffffffffffffffffffffffff1673ffffffffffffffffffffffffffffffffffffffff16637cf87f9d33866040518363ffffffff1660e01b8152600401611878929190613908565b602060405180830381600087803b15801561189257600080fd5b505af11580156118a6573d6000803e3d6000fd5b505050506040513d601f19601f820116820180604052508101906118ca91906131df565b90506002339080600181540180825580915050600190039060005260206000200160009091909190916101000a81548173ffffffffffffffffffffffffffffffffffffffff021916908373ffffffffffffffffffffffffffffffffffffffff16021790555060016007846040516119419190613861565b908152602001604051809103902060006101000a81548160ff02191690831515021790555060006040518060e001604052808381526020018481526020016001151581526020016001151581526020013373ffffffffffffffffffffffffffffffffffffffff16815260200160008152602001428152509050600460003373ffffffffffffffffffffffffffffffffffffffff1673ffffffffffffffffffffffffffffffffffffffff168152602001908152602001600020819080600181540180825580915050600190039060005260206000209060050201600090919091909150600082015181600001556020820151816001015560408201518160020160006101000a81548160ff02191690831515021790555060608201518160020160016101000a81548160ff02191690831515021790555060808201518160020160026101000a81548173ffffffffffffffffffffffffffffffffffffffff021916908373ffffffffffffffffffffffffffffffffffffffff16021790555060a0820151816003015560c0820151816004015550508060036000848152602001908152602001600020600082015181600001556020820151816001015560408201518160020160006101000a81548160ff02191690831515021790555060608201518160020160016101000a81548160ff02191690831515021790555060808201518160020160026101000a81548173ffffffffffffffffffffffffffffffffffffffff021916908373ffffffffffffffffffffffffffffffffffffffff16021790555060a0820151816003015560c082015181600401559050503373ffffffffffffffffffffffffffffffffffffffff16600073ffffffffffffffffffffffffffffffffffffffff16837f0a429aba3d89849a2db0153e4534d95c46a1d83c8109d73893f55ebc44010ff460405160405180910390a45050505050565b60606000600160009054906101000a900473ffffffffffffffffffffffffffffffffffffffff1673ffffffffffffffffffffffffffffffffffffffff1663d8a30732846040518263ffffffff1660e01b8152600401611c5c919061388d565b60006040518083038186803b158015611c7457600080fd5b505afa158015611c88573d6000803e3d6000fd5b505050506040513d6000823e3d601f19601f82011682018060405250810190611cb1919061308c565b90506000815167ffffffffffffffff811115611cf6577f4e487b7100000000000000000000000000000000000000000000000000000000600052604160045260246000fd5b604051908082528060200260200182016040528015611d2f57816020015b611d1c612e40565b815260200190600190039081611d145790505b50905060005b8251811015611ea75760036000848381518110611d7b577f4e487b7100000000000000000000000000000000000000000000000000000000600052603260045260246000fd5b602002602001015181526020019081526020016000206040518060e001604052908160008201548152602001600182015481526020016002820160009054906101000a900460ff161515151581526020016002820160019054906101000a900460ff161515151581526020016002820160029054906101000a900473ffffffffffffffffffffffffffffffffffffffff1673ffffffffffffffffffffffffffffffffffffffff1673ffffffffffffffffffffffffffffffffffffffff16815260200160038201548152602001600482015481525050828281518110611e89577f4e487b7100000000000000000000000000000000000000000000000000000000600052603260045260246000fd5b60200260200101819052508080611e9f90613e6b565b915050611d35565b508092505050919050565b60028181548110611ec257600080fd5b906000526020600020016000915054906101000a900473ffffffffffffffffffffffffffffffffffffffff1681565b60006003600084815260200190815260200160002090506000611f148484610698565b90508160020160019054906101000a900460ff16611f3157600080fd5b3073ffffffffffffffffffffffffffffffffffffffff16600160009054906101000a900473ffffffffffffffffffffffffffffffffffffffff1673ffffffffffffffffffffffffffffffffffffffff1663081812fc866040518263ffffffff1660e01b8152600401611fa39190613adb565b60206040518083038186803b158015611fbb57600080fd5b505afa158015611fcf573d6000803e3d6000fd5b505050506040513d601f19601f82011682018060405250810190611ff39190613027565b73ffffffffffffffffffffffffffffffffffffffff161461201357600080fd5b3373ffffffffffffffffffffffffffffffffffffffff16600160009054906101000a900473ffffffffffffffffffffffffffffffffffffffff1673ffffffffffffffffffffffffffffffffffffffff16636352211e866040518263ffffffff1660e01b81526004016120859190613adb565b60206040518083038186803b15801561209d57600080fd5b505afa1580156120b1573d6000803e3d6000fd5b505050506040513d601f19601f820116820180604052508101906120d59190613027565b73ffffffffffffffffffffffffffffffffffffffff16146120f557600080fd5b600560008581526020019081526020016000208054905083111561211857600080fd5b8060a0015142111561212957600080fd5b6001600560008681526020019081526020016000208481548110612176577f4e487b7100000000000000000000000000000000000000000000000000000000600052603260045260246000fd5b906000526020600020906005020160030160146101000a81548160ff02191690831515021790555060008260020160016101000a81548160ff0219169083151502179055506121c981606001518561268e565b6000600160009054906101000a900473ffffffffffffffffffffffffffffffffffffffff1673ffffffffffffffffffffffffffffffffffffffff16636352211e866040518263ffffffff1660e01b81526004016122269190613adb565b60206040518083038186803b15801561223e57600080fd5b505afa158015612252573d6000803e3d6000fd5b505050506040513d601f19601f820116820180604052508101906122769190613027565b9050612290826040015183606001518385602001516129a7565b3373ffffffffffffffffffffffffffffffffffffffff168173ffffffffffffffffffffffffffffffffffffffff16867f4ec4ba0f51972e72b52d0a288922dc59ab70adba5344f6e3e645b995e701a944876040516122ee9190613adb565b60405180910390a45050505050565b612305612686565b73ffffffffffffffffffffffffffffffffffffffff16612323610fba565b73ffffffffffffffffffffffffffffffffffffffff1614612379576040517f08c379a000000000000000000000000000000000000000000000000000000000815260040161237090613a40565b60405180910390fd5b600073ffffffffffffffffffffffffffffffffffffffff168173ffffffffffffffffffffffffffffffffffffffff1614156123e9576040517f08c379a00000000000000000000000000000000000000000000000000000000081526004016123e0906139c0565b60405180910390fd5b6123f2816128bd565b50565b813373ffffffffffffffffffffffffffffffffffffffff16600160009054906101000a900473ffffffffffffffffffffffffffffffffffffffff1673ffffffffffffffffffffffffffffffffffffffff16636352211e836040518263ffffffff1660e01b81526004016124689190613adb565b60206040518083038186803b15801561248057600080fd5b505afa158015612494573d6000803e3d6000fd5b505050506040513d601f19601f820116820180604052508101906124b89190613027565b73ffffffffffffffffffffffffffffffffffffffff16146124d857600080fd5b600060036000858152602001908152602001600020905082816001018190555050505050565b6007818051602081018201805184825260208301602085012081835280955050505050506000915054906101000a900460ff1681565b6060600460008373ffffffffffffffffffffffffffffffffffffffff1673ffffffffffffffffffffffffffffffffffffffff168152602001908152602001600020805480602002602001604051908101604052809291908181526020016000905b8282101561267b57838290600052602060002090600502016040518060e001604052908160008201548152602001600182015481526020016002820160009054906101000a900460ff161515151581526020016002820160019054906101000a900460ff161515151581526020016002820160029054906101000a900473ffffffffffffffffffffffffffffffffffffffff1673ffffffffffffffffffffffffffffffffffffffff1673ffffffffffffffffffffffffffffffffffffffff1681526020016003820154815260200160048201548152505081526020019060010190612595565b505050509050919050565b600033905090565b600160009054906101000a900473ffffffffffffffffffffffffffffffffffffffff1673ffffffffffffffffffffffffffffffffffffffff1663d78dd96b83836040518363ffffffff1660e01b81526004016126eb929190613938565b600060405180830381600087803b15801561270557600080fd5b505af1158015612719573d6000803e3d6000fd5b505050506000600160009054906101000a900473ffffffffffffffffffffffffffffffffffffffff1673ffffffffffffffffffffffffffffffffffffffff16636352211e836040518263ffffffff1660e01b815260040161277a9190613adb565b60206040518083038186803b15801561279257600080fd5b505afa1580156127a6573d6000803e3d6000fd5b505050506040513d601f19601f820116820180604052508101906127ca9190613027565b9050600160009054906101000a900473ffffffffffffffffffffffffffffffffffffffff1673ffffffffffffffffffffffffffffffffffffffff166342842e0e8285856040518463ffffffff1660e01b815260040161282b939291906138d1565b600060405180830381600087803b15801561284557600080fd5b505af1158015612859573d6000803e3d6000fd5b505050508273ffffffffffffffffffffffffffffffffffffffff168173ffffffffffffffffffffffffffffffffffffffff16837f0a429aba3d89849a2db0153e4534d95c46a1d83c8109d73893f55ebc44010ff460405160405180910390a4505050565b60008060009054906101000a900473ffffffffffffffffffffffffffffffffffffffff169050816000806101000a81548173ffffffffffffffffffffffffffffffffffffffff021916908373ffffffffffffffffffffffffffffffffffffffff1602179055508173ffffffffffffffffffffffffffffffffffffffff168173ffffffffffffffffffffffffffffffffffffffff167f8be0079c531659141344cd1fd0a4f28419497f9722a3daafe3b4186f6b6457e060405160405180910390a35050565b6129a38260646062846129949190613d87565b61299e9190613d56565b6129f2565b5050565b6129ec83836064605f856129bb9190613d87565b6129c59190613d56565b8773ffffffffffffffffffffffffffffffffffffffff16612ae6909392919063ffffffff16565b50505050565b80471015612a35576040517f08c379a0000000000000000000000000000000000000000000000000000000008152600401612a2c90613a00565b60405180910390fd5b60008273ffffffffffffffffffffffffffffffffffffffff1682604051612a5b90613878565b60006040518083038185875af1925050503d8060008114612a98576040519150601f19603f3d011682016040523d82523d6000602084013e612a9d565b606091505b5050905080612ae1576040517f08c379a0000000000000000000000000000000000000000000000000000000008152600401612ad8906139e0565b60405180910390fd5b505050565b612b69846323b872dd60e01b858585604051602401612b07939291906138d1565b604051602081830303815290604052907bffffffffffffffffffffffffffffffffffffffffffffffffffffffff19166020820180517bffffffffffffffffffffffffffffffffffffffffffffffffffffffff8381831617835250505050612b6f565b50505050565b6000612bd1826040518060400160405280602081526020017f5361666545524332303a206c6f772d6c6576656c2063616c6c206661696c65648152508573ffffffffffffffffffffffffffffffffffffffff16612c369092919063ffffffff16565b9050600081511115612c315780806020019051810190612bf191906130cd565b612c30576040517f08c379a0000000000000000000000000000000000000000000000000000000008152600401612c2790613aa0565b60405180910390fd5b5b505050565b6060612c458484600085612c4e565b90509392505050565b606082471015612c93576040517f08c379a0000000000000000000000000000000000000000000000000000000008152600401612c8a90613a20565b60405180910390fd5b612c9c85612d62565b612cdb576040517f08c379a0000000000000000000000000000000000000000000000000000000008152600401612cd290613a80565b60405180910390fd5b6000808673ffffffffffffffffffffffffffffffffffffffff168587604051612d04919061384a565b60006040518083038185875af1925050503d8060008114612d41576040519150601f19603f3d011682016040523d82523d6000602084013e612d46565b606091505b5091509150612d56828286612d75565b92505050949350505050565b600080823b905060008111915050919050565b60608315612d8557829050612dd5565b600083511115612d985782518084602001fd5b816040517f08c379a0000000000000000000000000000000000000000000000000000000008152600401612dcc919061399e565b60405180910390fd5b9392505050565b6040518060c001604052806000815260200160008152602001600073ffffffffffffffffffffffffffffffffffffffff168152602001600073ffffffffffffffffffffffffffffffffffffffff168152602001600015158152602001600081525090565b6040518060e001604052806000815260200160008152602001600015158152602001600015158152602001600073ffffffffffffffffffffffffffffffffffffffff16815260200160008152602001600081525090565b6000612eaa612ea584613c2e565b613bfd565b90508083825260208201905082856020860282011115612ec957600080fd5b60005b85811015612ef95781612edf8882612fe9565b845260208401935060208301925050600181019050612ecc565b5050509392505050565b6000612f16612f1184613c5a565b613bfd565b905082815260208101848484011115612f2e57600080fd5b612f39848285613e29565b509392505050565b600081359050612f5081613f52565b92915050565b600081519050612f6581613f52565b92915050565b600082601f830112612f7c57600080fd5b8151612f8c848260208601612e97565b91505092915050565b600081519050612fa481613f69565b92915050565b600082601f830112612fbb57600080fd5b8135612fcb848260208601612f03565b91505092915050565b600081359050612fe381613f80565b92915050565b600081519050612ff881613f80565b92915050565b60006020828403121561301057600080fd5b600061301e84828501612f41565b91505092915050565b60006020828403121561303957600080fd5b600061304784828501612f56565b91505092915050565b6000806040838503121561306357600080fd5b600061307185828601612f41565b925050602061308285828601612fd4565b9150509250929050565b60006020828403121561309e57600080fd5b600082015167ffffffffffffffff8111156130b857600080fd5b6130c484828501612f6b565b91505092915050565b6000602082840312156130df57600080fd5b60006130ed84828501612f95565b91505092915050565b60006020828403121561310857600080fd5b600082013567ffffffffffffffff81111561312257600080fd5b61312e84828501612faa565b91505092915050565b60008060006060848603121561314c57600080fd5b600084013567ffffffffffffffff81111561316657600080fd5b61317286828701612faa565b935050602084013567ffffffffffffffff81111561318f57600080fd5b61319b86828701612faa565b92505060406131ac86828701612fd4565b9150509250925092565b6000602082840312156131c857600080fd5b60006131d684828501612fd4565b91505092915050565b6000602082840312156131f157600080fd5b60006131ff84828501612fe9565b91505092915050565b6000806040838503121561321b57600080fd5b600061322985828601612fd4565b925050602083013567ffffffffffffffff81111561324657600080fd5b61325285828601612faa565b9150509250929050565b6000806040838503121561326f57600080fd5b600061327d85828601612fd4565b925050602061328e85828601612fd4565b9150509250929050565b600080600080608085870312156132ae57600080fd5b60006132bc87828801612fd4565b94505060206132cd87828801612fd4565b93505060406132de87828801612f41565b92505060606132ef87828801612fd4565b91505092959194509250565b60008060006060848603121561331057600080fd5b600061331e86828701612fd4565b935050602061332f86828701612fd4565b925050604061334086828701612fd4565b9150509250925092565b6000613356838361379e565b60e08301905092915050565b61336b81613de1565b82525050565b61337a81613de1565b82525050565b600061338b82613c9a565b6133958185613cc8565b93506133a083613c8a565b8060005b838110156133d15781516133b8888261334a565b97506133c383613cbb565b9250506001810190506133a4565b5085935050505092915050565b6133e781613df3565b82525050565b6133f681613df3565b82525050565b600061340782613ca5565b6134118185613cd9565b9350613421818560208601613e38565b80840191505092915050565b600061343882613cb0565b6134428185613ce4565b9350613452818560208601613e38565b61345b81613f41565b840191505092915050565b600061347182613cb0565b61347b8185613cf5565b935061348b818560208601613e38565b80840191505092915050565b60006134a4602683613ce4565b91507f4f776e61626c653a206e6577206f776e657220697320746865207a65726f206160008301527f64647265737300000000000000000000000000000000000000000000000000006020830152604082019050919050565b600061350a603a83613ce4565b91507f416464726573733a20756e61626c6520746f2073656e642076616c75652c207260008301527f6563697069656e74206d617920686176652072657665727465640000000000006020830152604082019050919050565b6000613570601d83613ce4565b91507f416464726573733a20696e73756666696369656e742062616c616e63650000006000830152602082019050919050565b60006135b0602683613ce4565b91507f416464726573733a20696e73756666696369656e742062616c616e636520666f60008301527f722063616c6c00000000000000000000000000000000000000000000000000006020830152604082019050919050565b6000613616602083613ce4565b91507f4f776e61626c653a2063616c6c6572206973206e6f7420746865206f776e65726000830152602082019050919050565b6000613656600083613cd9565b9150600082019050919050565b6000613670600083613ce4565b9150600082019050919050565b600061368a601d83613ce4565b91507f416464726573733a2063616c6c20746f206e6f6e2d636f6e74726163740000006000830152602082019050919050565b60006136ca602a83613ce4565b91507f5361666545524332303a204552433230206f7065726174696f6e20646964206e60008301527f6f742073756363656564000000000000000000000000000000000000000000006020830152604082019050919050565b60c082016000820151613739600085018261382c565b50602082015161374c602085018261382c565b50604082015161375f6040850182613362565b5060608201516137726060850182613362565b50608082015161378560808501826133de565b5060a082015161379860a085018261382c565b50505050565b60e0820160008201516137b4600085018261382c565b5060208201516137c7602085018261382c565b5060408201516137da60408501826133de565b5060608201516137ed60608501826133de565b5060808201516138006080850182613362565b5060a082015161381360a085018261382c565b5060c082015161382660c085018261382c565b50505050565b61383581613e1f565b82525050565b61384481613e1f565b82525050565b600061385682846133fc565b915081905092915050565b600061386d8284613466565b915081905092915050565b600061388382613649565b9150819050919050565b60006020820190506138a26000830184613371565b92915050565b60006040820190506138bd6000830185613371565b6138ca6020830184613371565b9392505050565b60006060820190506138e66000830186613371565b6138f36020830185613371565b613900604083018461383b565b949350505050565b600060408201905061391d6000830185613371565b818103602083015261392f818461342d565b90509392505050565b600060408201905061394d6000830185613371565b61395a602083018461383b565b9392505050565b6000602082019050818103600083015261397b8184613380565b905092915050565b600060208201905061399860008301846133ed565b92915050565b600060208201905081810360008301526139b8818461342d565b905092915050565b600060208201905081810360008301526139d981613497565b9050919050565b600060208201905081810360008301526139f9816134fd565b9050919050565b60006020820190508181036000830152613a1981613563565b9050919050565b60006020820190508181036000830152613a39816135a3565b9050919050565b60006020820190508181036000830152613a5981613609565b9050919050565b60006020820190508181036000830152613a7981613663565b9050919050565b60006020820190508181036000830152613a998161367d565b9050919050565b60006020820190508181036000830152613ab9816136bd565b9050919050565b600060c082019050613ad56000830184613723565b92915050565b6000602082019050613af0600083018461383b565b92915050565b6000606082019050613b0b600083018661383b565b613b186020830185613371565b613b25604083018461383b565b949350505050565b600060c082019050613b42600083018961383b565b613b4f602083018861383b565b613b5c6040830187613371565b613b696060830186613371565b613b7660808301856133ed565b613b8360a083018461383b565b979650505050505050565b600060e082019050613ba3600083018a61383b565b613bb0602083018961383b565b613bbd60408301886133ed565b613bca60608301876133ed565b613bd76080830186613371565b613be460a083018561383b565b613bf160c083018461383b565b98975050505050505050565b6000604051905081810181811067ffffffffffffffff82111715613c2457613c23613f12565b5b8060405250919050565b600067ffffffffffffffff821115613c4957613c48613f12565b5b602082029050602081019050919050565b600067ffffffffffffffff821115613c7557613c74613f12565b5b601f19601f8301169050602081019050919050565b6000819050602082019050919050565b600081519050919050565b600081519050919050565b600081519050919050565b6000602082019050919050565b600082825260208201905092915050565b600081905092915050565b600082825260208201905092915050565b600081905092915050565b6000613d0b82613e1f565b9150613d1683613e1f565b9250827fffffffffffffffffffffffffffffffffffffffffffffffffffffffffffffffff03821115613d4b57613d4a613eb4565b5b828201905092915050565b6000613d6182613e1f565b9150613d6c83613e1f565b925082613d7c57613d7b613ee3565b5b828204905092915050565b6000613d9282613e1f565b9150613d9d83613e1f565b9250817fffffffffffffffffffffffffffffffffffffffffffffffffffffffffffffffff0483118215151615613dd657613dd5613eb4565b5b828202905092915050565b6000613dec82613dff565b9050919050565b60008115159050919050565b600073ffffffffffffffffffffffffffffffffffffffff82169050919050565b6000819050919050565b82818337600083830152505050565b60005b83811015613e56578082015181840152602081019050613e3b565b83811115613e65576000848401525b50505050565b6000613e7682613e1f565b91507fffffffffffffffffffffffffffffffffffffffffffffffffffffffffffffffff821415613ea957613ea8613eb4565b5b600182019050919050565b7f4e487b7100000000000000000000000000000000000000000000000000000000600052601160045260246000fd5b7f4e487b7100000000000000000000000000000000000000000000000000000000600052601260045260246000fd5b7f4e487b7100000000000000000000000000000000000000000000000000000000600052604160045260246000fd5b6000601f19601f8301169050919050565b613f5b81613de1565b8114613f6657600080fd5b50565b613f7281613df3565b8114613f7d57600080fd5b50565b613f8981613e1f565b8114613f9457600080fd5b5056fea264697066735822122094edc2e70ad50616ee8571519edf9696e99e7b8790187b674258d47323f1bad564736f6c63430008000033",
  "immutableReferences": {},
  "source": "// SPDX-License-Identifier: UNLICENSED\r\npragma solidity ^0.8.0;\r\n\r\nimport \"@openzeppelin/contracts/access/Ownable.sol\";\r\nimport \"@openzeppelin/contracts/token/ERC20/IERC20.sol\";\r\nimport \"@openzeppelin/contracts/utils/Address.sol\";\r\nimport \"@openzeppelin/contracts/token/ERC20/utils/SafeERC20.sol\";\r\nimport \"./Art.sol\";\r\nimport \"./interfaces/IMarketPlace.sol\";\r\n\r\ncontract MarketPlace is Ownable, IMarketPlace {\r\n    using SafeERC20 for IERC20;\r\n\r\n    Art art;\r\n\r\n    address[] public sellers;\r\n    mapping(uint256 => Product) public tokenIdToProduct;\r\n    mapping(address => Product[]) public userToProduct; //creator anf their product\r\n    mapping(uint256 => Offer[]) public tokenIdToOffer;\r\n    mapping(string => bool) public checkTransactionId;\r\n    mapping(string => bool) public imageExisted;\r\n\r\n    modifier onlyOwnerOfToken(uint256 _tokenId) {\r\n        require(art.ownerOf(_tokenId) == msg.sender);\r\n        _;\r\n    }\r\n\r\n    /**\r\n     * @dev Sets the values for {art}.\r\n     *\r\n     * This value can be immutable: they can only be set once during\r\n     * construction.\r\n     */\r\n    constructor(address _artAddr) {\r\n        art = Art(_artAddr);\r\n    }\r\n\r\n    /**\r\n     * @dev See {IMarketplace-setArtAddr}.\r\n     *\r\n     * Requirements:\r\n     *\r\n     * - `_artAddr` cannot be the zero address.\r\n     * - Only owner have right to call this function.\r\n     */\r\n    function setArtAddr(address _artAddr) public override onlyOwner {\r\n        require(_artAddr != address(0));\r\n        art = Art(_artAddr);\r\n    }\r\n\r\n    /**\r\n     * @dev See {IMarketplace-createNewProduct}.\r\n     *\r\n     * Emits an {Transfer} event indicating the successful NFT generation\r\n     *\r\n     * Requirements:\r\n     *\r\n     * - `_hashImg` use only once.\r\n     */\r\n    function createNewProduct(\r\n        string memory _hashInfo,\r\n        string memory _hashImg,\r\n        uint256 _price\r\n    ) public override {\r\n        require(!imageExisted[_hashImg], \"\");\r\n        uint256 _tokenId = art.createNewNFT(msg.sender, _hashInfo);\r\n        sellers.push(msg.sender);\r\n        imageExisted[_hashImg] = true;\r\n        Product memory product = Product(\r\n            _tokenId,\r\n            _price,\r\n            true,\r\n            true,\r\n            msg.sender,\r\n            0,\r\n            block.timestamp\r\n        );\r\n        userToProduct[msg.sender].push(product);\r\n        tokenIdToProduct[_tokenId] = product;\r\n        // art.approve(address(this), _tokenId);\r\n        emit Transfer(_tokenId, address(0), msg.sender);\r\n    } //goi kem approve\r\n\r\n    /**\r\n     * @dev See {IMarketplace-setListOrNot}.\r\n     */\r\n    function setListOrNot(uint256 _tokenId)\r\n        public\r\n        override\r\n        onlyOwnerOfToken(_tokenId)\r\n    {\r\n        Product storage product = tokenIdToProduct[_tokenId];\r\n        product.listing = !product.listing;\r\n    }\r\n\r\n    /**\r\n     * @dev See {IMarketplace-setSellOrNot}.\r\n     */\r\n    //neu tu false sang true thi phai goi kem approve\r\n    function setSellOrNot(uint256 _tokenId)\r\n        public\r\n        override\r\n        onlyOwnerOfToken(_tokenId)\r\n    {\r\n        Product storage product = tokenIdToProduct[_tokenId];\r\n        product.selling = !product.selling;\r\n    }\r\n\r\n    /**\r\n     * @dev See {IMarketplace-setPrice}.\r\n     *\r\n     * Requirements:\r\n     *\r\n     * - Only owner of `_tokenId` can call this function.\r\n     */\r\n    function setPrice(uint256 _tokenId, uint256 _price)\r\n        public\r\n        override\r\n        onlyOwnerOfToken(_tokenId)\r\n    {\r\n        Product storage product = tokenIdToProduct[_tokenId];\r\n        product.price = _price;\r\n    }\r\n\r\n    /**\r\n     * @dev See {IMarketplace-getProductListCreated}.\r\n     */\r\n    function getProductListCreated(address _user)\r\n        public\r\n        view\r\n        override\r\n        returns (Product[] memory)\r\n    {\r\n        return userToProduct[_user];\r\n    }\r\n\r\n    /**\r\n     * @dev See {IMarketplace-buyWithETH}.\r\n     *\r\n     * Requirements:\r\n     *\r\n     * - `_tokenId` product must be selling on market place\r\n     * - must be approved first\r\n     * - send value ETH equal price of product\r\n     * - caller can not be owner of `_tokenId`\r\n     */\r\n    //Phai approve truoc\r\n    function buyWithETH(uint256 _tokenId) public payable override {\r\n        Product storage _product = tokenIdToProduct[_tokenId];\r\n        require(_product.selling);\r\n        require(art.getApproved(_tokenId) == address(this));\r\n        require(msg.value == _product.price);\r\n        require(msg.sender != art.ownerOf(_tokenId));\r\n\r\n        _product.selling = false;\r\n        address _owner = art.ownerOf(_tokenId);\r\n\r\n        setOwnerRight(msg.sender, _tokenId);\r\n        payment(_owner, msg.value);\r\n    }\r\n\r\n    /**\r\n     * @dev See {IMarketplace-buyWithCurrency}.\r\n     *\r\n     * Requirements:\r\n     *\r\n     * - `_tokenId` product must be selling on market place\r\n     * - must be approved first\r\n     * - caller can not be owner of `_tokenId`\r\n     * - `traransactionId` haven't used yet\r\n     */\r\n    function buyWithCurrency(uint256 _tokenId, string memory traransactionId)\r\n        public\r\n        override\r\n    {\r\n        Product storage _product = tokenIdToProduct[_tokenId];\r\n        require(_product.selling);\r\n        require(art.getApproved(_tokenId) == address(this));\r\n        require(msg.sender != art.ownerOf(_tokenId));\r\n        require(!checkTransactionId[traransactionId]);\r\n\r\n        checkTransactionId[traransactionId] = true;\r\n        _product.selling = false;\r\n\r\n        setOwnerRight(msg.sender, _tokenId);\r\n    }\r\n\r\n    /**\r\n     * @dev See {IMarketplace-getProducListOwnable}.\r\n     */\r\n    //lay ra danh sach cac san pham so huu\r\n    function getProducListOwnable(address _owner)\r\n        public\r\n        view\r\n        override\r\n        returns (Product[] memory)\r\n    {\r\n        uint256[] memory arr = art.getTokenList(_owner);\r\n        Product[] memory productList = new Product[](arr.length);\r\n        for (uint256 i = 0; i < arr.length; i++) {\r\n            productList[i] = tokenIdToProduct[arr[i]];\r\n        }\r\n        return productList;\r\n    }\r\n\r\n    /**\r\n     * @dev See {IMarketplace-offer}.\r\n     *\r\n     * Emits an {NewOffer} event indicating the successful NewOffer generation\r\n     *\r\n     * Requirements:\r\n     *\r\n     * - `_tokenId`'s owner  must be selling on market place\r\n     * - `_token20` address can not address zero\r\n     * - caller must approve `_amount` token erc20 for this contract\r\n     * - `_timeout` must be time in the future\r\n     */\r\n    //Phai goi kem approve token cho contractt nay\r\n    function offer(\r\n        uint256 _tokenId,\r\n        uint256 _amount,\r\n        address _token20,\r\n        uint256 _timeout\r\n    ) public override {\r\n        Product storage _product = tokenIdToProduct[_tokenId];\r\n        require(_product.selling);\r\n        require(art.ownerOf(_tokenId) != address(0));\r\n        require(_token20 != address(0));\r\n        require(\r\n            IERC20(_token20).allowance(msg.sender, address(this)) >= _amount\r\n        );\r\n        require(_timeout > block.timestamp);\r\n        // IERC20(_token20).approve(address(this), _amount);\r\n\r\n        tokenIdToOffer[_tokenId].push(\r\n            Offer(\r\n                _tokenId,\r\n                _amount,\r\n                _token20,\r\n                msg.sender,\r\n                false,\r\n                block.timestamp + _timeout\r\n            )\r\n        );\r\n        emit NewOffer(\r\n            _tokenId,\r\n            _amount,\r\n            _token20,\r\n            msg.sender,\r\n            block.timestamp + _timeout\r\n        );\r\n    }\r\n\r\n    /**\r\n     * @dev See {IMarketplace-restartOffer}.\r\n     *\r\n     * Requirements:\r\n     *\r\n     * - `_tokenId`'s owner  must be selling on market place\r\n     * - caller must be creator of offer\r\n     * - `_timeout` must be time in the future\r\n     */\r\n    function restartOffer(\r\n        uint256 _tokenId,\r\n        uint256 _index,\r\n        uint256 _timeout\r\n    ) public override {\r\n        require(tokenIdToOffer[_tokenId][_index].bargainer == msg.sender);\r\n        require(tokenIdToOffer[_tokenId][_index].timeout < block.timestamp);\r\n        require(_timeout > block.timestamp);\r\n        tokenIdToOffer[_tokenId][_index].timeout = _timeout;\r\n    }\r\n\r\n    /**\r\n     * @dev See {IMarketplace-getOffer}.\r\n     */\r\n    function getOffer(uint256 _tokenId, uint256 _index)\r\n        public\r\n        view\r\n        override\r\n        returns (Offer memory)\r\n    {\r\n        require(_index <= tokenIdToOffer[_tokenId].length);\r\n        return tokenIdToOffer[_tokenId][_index];\r\n    }\r\n\r\n    /**\r\n     * @dev See {IMarketplace-approveOffer}.\r\n     *\r\n     * Emits an {ApproveOffer} event indicating the successful approved offer\r\n     *\r\n     * Requirements:\r\n     *\r\n     * - `_tokenId`'s owner  must be selling on market place\r\n     * and approved for this contract\r\n     * - caller must be owner  of `_tokenId` product\r\n     * - `_timeout` of offer must be greater than current timestamp\r\n     */\r\n    //ch s hu da approve token721 hay chua\r\n    function approveOffer(uint256 _tokenId, uint256 _index) public override {\r\n        Product storage _product = tokenIdToProduct[_tokenId];\r\n        Offer memory _offer = getOffer(_tokenId, _index);\r\n\r\n        require(_product.selling);\r\n        require(art.getApproved(_tokenId) == address(this));\r\n        require(art.ownerOf(_tokenId) == msg.sender);\r\n        require(_index <= tokenIdToOffer[_tokenId].length);\r\n        require(block.timestamp <= _offer.timeout);\r\n\r\n        tokenIdToOffer[_tokenId][_index].accepted = true;\r\n        _product.selling = false;\r\n\r\n        setOwnerRight(_offer.bargainer, _tokenId);\r\n\r\n        address _owner = art.ownerOf(_tokenId);\r\n\r\n        payment(_offer.token20, _offer.bargainer, _owner, _offer.amount);\r\n\r\n        emit ApproveOffer(_tokenId, _owner, msg.sender, _index);\r\n    }\r\n\r\n    /**\r\n     * @dev Update new owner for product.\r\n     */\r\n    function setOwnerRight(address buyer, uint256 _tokenId) internal {\r\n        art.setOwnerToTokenId(buyer, _tokenId);\r\n        address _owner = art.ownerOf(_tokenId);\r\n        art.safeTransferFrom(_owner, buyer, _tokenId);\r\n        emit Transfer(_tokenId, _owner, buyer);\r\n    }\r\n\r\n    /**\r\n     * @dev Payment for ETH.\r\n     */\r\n    function payment(address _owner, uint256 _value) internal {\r\n        Address.sendValue(payable(_owner), (_value * 98) / 100);\r\n    }\r\n\r\n    /**\r\n     * @dev Payment for ERC20.\r\n     */\r\n    function payment(\r\n        address _tokenEr20,\r\n        address _sender,\r\n        address _receipent,\r\n        uint256 _amount\r\n    ) internal {\r\n        IERC20(_tokenEr20).safeTransferFrom(\r\n            _sender,\r\n            _receipent,\r\n            (_amount * 95) / 100\r\n        );\r\n    }\r\n}\r\n",
  "sourcePath": "E:\\MNM\\UIT-SE301.M11-BidDapp\\marketplace-contracts\\contracts\\MarketPlace.sol",
  "compiler": {
    "name": "solc",
    "version": "0.8.0+commit.c7dfd78e.Emscripten.clang"
  },
  "schemaVersion": "3.4.3",
  "updatedAt": "2021-11-27T07:41:30.971Z",
  "devdoc": {
    "kind": "dev",
    "methods": {
      "approveOffer(uint256,uint256)": {
        "details": "See {IMarketplace-approveOffer}. Emits an {ApproveOffer} event indicating the successful approved offer Requirements: - `_tokenId`'s owner  must be selling on market place and approved for this contract - caller must be owner  of `_tokenId` product - `_timeout` of offer must be greater than current timestamp"
      },
      "buyWithCurrency(uint256,string)": {
        "details": "See {IMarketplace-buyWithCurrency}. Requirements: - `_tokenId` product must be selling on market place - must be approved first - caller can not be owner of `_tokenId` - `traransactionId` haven't used yet"
      },
      "buyWithETH(uint256)": {
        "details": "See {IMarketplace-buyWithETH}. Requirements: - `_tokenId` product must be selling on market place - must be approved first - send value ETH equal price of product - caller can not be owner of `_tokenId`"
      },
      "constructor": {
        "details": "Sets the values for {art}. This value can be immutable: they can only be set once during construction."
      },
      "createNewProduct(string,string,uint256)": {
        "details": "See {IMarketplace-createNewProduct}. Emits an {Transfer} event indicating the successful NFT generation Requirements: - `_hashImg` use only once."
      },
      "getOffer(uint256,uint256)": {
        "details": "See {IMarketplace-getOffer}."
      },
      "getProducListOwnable(address)": {
        "details": "See {IMarketplace-getProducListOwnable}."
      },
      "getProductListCreated(address)": {
        "details": "See {IMarketplace-getProductListCreated}."
      },
      "offer(uint256,uint256,address,uint256)": {
        "details": "See {IMarketplace-offer}. Emits an {NewOffer} event indicating the successful NewOffer generation Requirements: - `_tokenId`'s owner  must be selling on market place - `_token20` address can not address zero - caller must approve `_amount` token erc20 for this contract - `_timeout` must be time in the future"
      },
      "owner()": {
        "details": "Returns the address of the current owner."
      },
      "renounceOwnership()": {
        "details": "Leaves the contract without owner. It will not be possible to call `onlyOwner` functions anymore. Can only be called by the current owner. NOTE: Renouncing ownership will leave the contract without an owner, thereby removing any functionality that is only available to the owner."
      },
      "restartOffer(uint256,uint256,uint256)": {
        "details": "See {IMarketplace-restartOffer}. Requirements: - `_tokenId`'s owner  must be selling on market place - caller must be creator of offer - `_timeout` must be time in the future"
      },
      "setArtAddr(address)": {
        "details": "See {IMarketplace-setArtAddr}. Requirements: - `_artAddr` cannot be the zero address. - Only owner have right to call this function."
      },
      "setListOrNot(uint256)": {
        "details": "See {IMarketplace-setListOrNot}."
      },
      "setPrice(uint256,uint256)": {
        "details": "See {IMarketplace-setPrice}. Requirements: - Only owner of `_tokenId` can call this function."
      },
      "setSellOrNot(uint256)": {
        "details": "See {IMarketplace-setSellOrNot}."
      },
      "transferOwnership(address)": {
        "details": "Transfers ownership of the contract to a new account (`newOwner`). Can only be called by the current owner."
      }
    },
    "version": 1
  },
  "userdoc": {
    "kind": "user",
    "methods": {},
    "version": 1
  }
}